{
  "_format": "hh-sol-artifact-1",
  "contractName": "DaoGovernance",
  "sourceName": "contracts/DaoGovernance.sol",
  "abi": [
    {
      "inputs": [
        {
          "internalType": "string",
          "name": "tokenName",
          "type": "string"
        },
        {
          "internalType": "string",
          "name": "tokenSymbol",
          "type": "string"
        },
        {
          "internalType": "uint256",
          "name": "_tokenPriceWei",
          "type": "uint256"
        },
        {
          "internalType": "uint256",
          "name": "_lockPeriod",
          "type": "uint256"
        },
        {
          "internalType": "uint256",
          "name": "_proposalDuration",
          "type": "uint256"
        },
        {
          "internalType": "uint256",
          "name": "_voteUnit",
          "type": "uint256"
        },
        {
          "internalType": "address",
          "name": "initialStrategy",
          "type": "address"
        },
        {
          "internalType": "address",
          "name": "_owner",
          "type": "address"
        }
      ],
      "stateMutability": "nonpayable",
      "type": "constructor"
    },
    {
      "anonymous": false,
      "inputs": [
        {
          "indexed": true,
          "internalType": "uint256",
          "name": "id",
          "type": "uint256"
        },
        {
          "indexed": false,
          "internalType": "bool",
          "name": "accepted",
          "type": "bool"
        }
      ],
      "name": "Finalized",
      "type": "event"
    },
    {
      "anonymous": false,
      "inputs": [
        {
          "indexed": true,
          "internalType": "uint256",
          "name": "id",
          "type": "uint256"
        },
        {
          "indexed": true,
          "internalType": "address",
          "name": "proposer",
          "type": "address"
        }
      ],
      "name": "ProposalCreated",
      "type": "event"
    },
    {
      "anonymous": false,
      "inputs": [
        {
          "indexed": true,
          "internalType": "address",
          "name": "newStrategy",
          "type": "address"
        }
      ],
      "name": "StrategyChanged",
      "type": "event"
    },
    {
      "anonymous": false,
      "inputs": [
        {
          "indexed": true,
          "internalType": "uint256",
          "name": "id",
          "type": "uint256"
        },
        {
          "indexed": true,
          "internalType": "address",
          "name": "voter",
          "type": "address"
        },
        {
          "indexed": false,
          "internalType": "bool",
          "name": "support",
          "type": "bool"
        },
        {
          "indexed": false,
          "internalType": "uint256",
          "name": "weight",
          "type": "uint256"
        }
      ],
      "name": "Voted",
      "type": "event"
    },
    {
      "inputs": [],
      "name": "buyTokens",
      "outputs": [],
      "stateMutability": "payable",
      "type": "function"
    },
    {
      "inputs": [
        {
          "internalType": "string",
          "name": "title",
          "type": "string"
        },
        {
          "internalType": "string",
          "name": "description",
          "type": "string"
        }
      ],
      "name": "createProposal",
      "outputs": [],
      "stateMutability": "nonpayable",
      "type": "function"
    },
    {
      "inputs": [
        {
          "internalType": "uint256",
          "name": "proposalId",
          "type": "uint256"
        }
      ],
      "name": "finalizeProposal",
      "outputs": [],
      "stateMutability": "nonpayable",
      "type": "function"
    },
    {
      "inputs": [],
      "name": "lockPeriod",
      "outputs": [
        {
          "internalType": "uint256",
          "name": "",
          "type": "uint256"
        }
      ],
      "stateMutability": "view",
      "type": "function"
    },
    {
      "inputs": [],
      "name": "minStakePropose",
      "outputs": [
        {
          "internalType": "uint256",
          "name": "",
          "type": "uint256"
        }
      ],
      "stateMutability": "view",
      "type": "function"
    },
    {
      "inputs": [],
      "name": "minStakeVote",
      "outputs": [
        {
          "internalType": "uint256",
          "name": "",
          "type": "uint256"
        }
      ],
      "stateMutability": "view",
      "type": "function"
    },
    {
      "inputs": [
        {
          "internalType": "uint256",
          "name": "amount",
          "type": "uint256"
        }
      ],
      "name": "mintTokens",
      "outputs": [],
      "stateMutability": "nonpayable",
      "type": "function"
    },
    {
      "inputs": [],
      "name": "owner",
      "outputs": [
        {
          "internalType": "address",
          "name": "",
          "type": "address"
        }
      ],
      "stateMutability": "view",
      "type": "function"
    },
    {
      "inputs": [],
      "name": "proposalCount",
      "outputs": [
        {
          "internalType": "uint256",
          "name": "",
          "type": "uint256"
        }
      ],
      "stateMutability": "view",
      "type": "function"
    },
    {
      "inputs": [],
      "name": "proposalDuration",
      "outputs": [
        {
          "internalType": "uint256",
          "name": "",
          "type": "uint256"
        }
      ],
      "stateMutability": "view",
      "type": "function"
    },
    {
      "inputs": [
        {
          "internalType": "uint256",
          "name": "",
          "type": "uint256"
        }
      ],
      "name": "proposals",
      "outputs": [
        {
          "internalType": "uint256",
          "name": "id",
          "type": "uint256"
        },
        {
          "internalType": "address",
          "name": "proposer",
          "type": "address"
        },
        {
          "internalType": "string",
          "name": "title",
          "type": "string"
        },
        {
          "internalType": "string",
          "name": "description",
          "type": "string"
        },
        {
          "internalType": "uint256",
          "name": "start",
          "type": "uint256"
        },
        {
          "internalType": "uint256",
          "name": "end",
          "type": "uint256"
        },
        {
          "internalType": "uint256",
          "name": "forVotes",
          "type": "uint256"
        },
        {
          "internalType": "uint256",
          "name": "againstVotes",
          "type": "uint256"
        },
        {
          "internalType": "bool",
          "name": "executed",
          "type": "bool"
        }
      ],
      "stateMutability": "view",
      "type": "function"
    },
    {
      "inputs": [
        {
          "internalType": "address",
          "name": "",
          "type": "address"
        }
      ],
      "name": "proposeStakeUnlock",
      "outputs": [
        {
          "internalType": "uint256",
          "name": "",
          "type": "uint256"
        }
      ],
      "stateMutability": "view",
      "type": "function"
    },
    {
      "inputs": [
        {
          "internalType": "uint256",
          "name": "_lockPeriod",
          "type": "uint256"
        }
      ],
      "name": "setLockPeriod",
      "outputs": [],
      "stateMutability": "nonpayable",
      "type": "function"
    },
    {
      "inputs": [
        {
          "internalType": "uint256",
          "name": "_minStakePropose",
          "type": "uint256"
        }
      ],
      "name": "setMinStakePropose",
      "outputs": [],
      "stateMutability": "nonpayable",
      "type": "function"
    },
    {
      "inputs": [
        {
          "internalType": "uint256",
          "name": "_minStakeVote",
          "type": "uint256"
        }
      ],
      "name": "setMinStakeVote",
      "outputs": [],
      "stateMutability": "nonpayable",
      "type": "function"
    },
    {
      "inputs": [
        {
          "internalType": "uint256",
          "name": "_proposalDuration",
          "type": "uint256"
        }
      ],
      "name": "setProposalDuration",
      "outputs": [],
      "stateMutability": "nonpayable",
      "type": "function"
    },
    {
      "inputs": [
        {
          "internalType": "uint256",
          "name": "_tokenPriceWei",
          "type": "uint256"
        }
      ],
      "name": "setTokenPriceWei",
      "outputs": [],
      "stateMutability": "nonpayable",
      "type": "function"
    },
    {
      "inputs": [
        {
          "internalType": "uint256",
          "name": "_voteUnit",
          "type": "uint256"
        }
      ],
      "name": "setVoteUnit",
      "outputs": [],
      "stateMutability": "nonpayable",
      "type": "function"
    },
    {
      "inputs": [
        {
          "internalType": "address",
          "name": "strategy",
          "type": "address"
        }
      ],
      "name": "setVotingStrategy",
      "outputs": [],
      "stateMutability": "nonpayable",
      "type": "function"
    },
    {
      "inputs": [
        {
          "internalType": "uint256",
          "name": "amount",
          "type": "uint256"
        }
      ],
      "name": "stakeForProposal",
      "outputs": [],
      "stateMutability": "nonpayable",
      "type": "function"
    },
    {
      "inputs": [
        {
          "internalType": "uint256",
          "name": "amount",
          "type": "uint256"
        }
      ],
      "name": "stakeForVote",
      "outputs": [],
      "stateMutability": "nonpayable",
      "type": "function"
    },
    {
      "inputs": [
        {
          "internalType": "address",
          "name": "",
          "type": "address"
        }
      ],
      "name": "stakePropose",
      "outputs": [
        {
          "internalType": "uint256",
          "name": "",
          "type": "uint256"
        }
      ],
      "stateMutability": "view",
      "type": "function"
    },
    {
      "inputs": [
        {
          "internalType": "address",
          "name": "",
          "type": "address"
        }
      ],
      "name": "stakeVotes",
      "outputs": [
        {
          "internalType": "uint256",
          "name": "",
          "type": "uint256"
        }
      ],
      "stateMutability": "view",
      "type": "function"
    },
    {
      "inputs": [],
      "name": "token",
      "outputs": [
        {
          "internalType": "contract VotingToken",
          "name": "",
          "type": "address"
        }
      ],
      "stateMutability": "view",
      "type": "function"
    },
    {
      "inputs": [],
      "name": "tokenPriceWei",
      "outputs": [
        {
          "internalType": "uint256",
          "name": "",
          "type": "uint256"
        }
      ],
      "stateMutability": "view",
      "type": "function"
    },
    {
      "inputs": [
        {
          "internalType": "address",
          "name": "newOwner",
          "type": "address"
        }
      ],
      "name": "transferOwnership",
      "outputs": [],
      "stateMutability": "nonpayable",
      "type": "function"
    },
    {
      "inputs": [],
      "name": "unstakeProposals",
      "outputs": [],
      "stateMutability": "nonpayable",
      "type": "function"
    },
    {
      "inputs": [],
      "name": "unstakeVotes",
      "outputs": [],
      "stateMutability": "nonpayable",
      "type": "function"
    },
    {
      "inputs": [
        {
          "internalType": "uint256",
          "name": "proposalId",
          "type": "uint256"
        },
        {
          "internalType": "bool",
          "name": "support",
          "type": "bool"
        }
      ],
      "name": "vote",
      "outputs": [],
      "stateMutability": "nonpayable",
      "type": "function"
    },
    {
      "inputs": [
        {
          "internalType": "address",
          "name": "",
          "type": "address"
        }
      ],
      "name": "voteStakeUnlock",
      "outputs": [
        {
          "internalType": "uint256",
          "name": "",
          "type": "uint256"
        }
      ],
      "stateMutability": "view",
      "type": "function"
    },
    {
      "inputs": [],
      "name": "voteUnit",
      "outputs": [
        {
          "internalType": "uint256",
          "name": "",
          "type": "uint256"
        }
      ],
      "stateMutability": "view",
      "type": "function"
    },
    {
      "inputs": [],
      "name": "votingStrategy",
      "outputs": [
        {
          "internalType": "contract IVotingStrategy",
          "name": "",
          "type": "address"
        }
      ],
      "stateMutability": "view",
      "type": "function"
    }
  ],
  "bytecode": "0x60806040523480156200001157600080fd5b5060405162004e5538038062004e558339818101604052810190620000379190620003c0565b8787308360405162000049906200017f565b62000058949392919062000535565b604051809103906000f08015801562000075573d6000803e3d6000fd5b506000806101000a81548173ffffffffffffffffffffffffffffffffffffffff021916908373ffffffffffffffffffffffffffffffffffffffff1602179055508560028190555084600381905550836004819055508260058190555081600160006101000a81548173ffffffffffffffffffffffffffffffffffffffff021916908373ffffffffffffffffffffffffffffffffffffffff16021790555080600e60006101000a81548173ffffffffffffffffffffffffffffffffffffffff021916908373ffffffffffffffffffffffffffffffffffffffff160217905550670de0b6b3a7640000600681905550678ac7230489e80000600781905550505050505050505062000590565b6117d4806200368183390190565b6000604051905090565b600080fd5b600080fd5b600080fd5b600080fd5b6000601f19601f8301169050919050565b7f4e487b7100000000000000000000000000000000000000000000000000000000600052604160045260246000fd5b620001f682620001ab565b810181811067ffffffffffffffff82111715620002185762000217620001bc565b5b80604052505050565b60006200022d6200018d565b90506200023b8282620001eb565b919050565b600067ffffffffffffffff8211156200025e576200025d620001bc565b5b6200026982620001ab565b9050602081019050919050565b60005b838110156200029657808201518184015260208101905062000279565b60008484015250505050565b6000620002b9620002b38462000240565b62000221565b905082815260208101848484011115620002d857620002d7620001a6565b5b620002e584828562000276565b509392505050565b600082601f830112620003055762000304620001a1565b5b815162000317848260208601620002a2565b91505092915050565b6000819050919050565b620003358162000320565b81146200034157600080fd5b50565b60008151905062000355816200032a565b92915050565b600073ffffffffffffffffffffffffffffffffffffffff82169050919050565b600062000388826200035b565b9050919050565b6200039a816200037b565b8114620003a657600080fd5b50565b600081519050620003ba816200038f565b92915050565b600080600080600080600080610100898b031215620003e457620003e362000197565b5b600089015167ffffffffffffffff8111156200040557620004046200019c565b5b620004138b828c01620002ed565b985050602089015167ffffffffffffffff8111156200043757620004366200019c565b5b620004458b828c01620002ed565b9750506040620004588b828c0162000344565b96505060606200046b8b828c0162000344565b95505060806200047e8b828c0162000344565b94505060a0620004918b828c0162000344565b93505060c0620004a48b828c01620003a9565b92505060e0620004b78b828c01620003a9565b9150509295985092959890939650565b600081519050919050565b600082825260208201905092915050565b6000620004f082620004c7565b620004fc8185620004d2565b93506200050e81856020860162000276565b6200051981620001ab565b840191505092915050565b6200052f816200037b565b82525050565b60006080820190508181036000830152620005518187620004e3565b90508181036020830152620005678186620004e3565b905062000578604083018562000524565b62000587606083018462000524565b95945050505050565b6130e180620005a06000396000f3fe6080604052600436106101e35760003560e01c806397304ced11610102578063d32f1c4011610095578063f2fde38b11610064578063f2fde38b146106af578063fb5c8bfd146106d8578063fc0c546a14610703578063fdc7cce31461072e576101e3565b8063d32f1c40146105f1578063da35c6641461062e578063dfcbd8f414610659578063e9fab05514610684576101e3565b8063c9d27afe116100d1578063c9d27afe14610558578063cec7247914610581578063d0febe4c146105be578063d289dcbf146105c8576101e3565b806397304ced146104b457806398fe5691146104dd578063b8f96b6f14610506578063bb6c74b71461052f576101e3565b806365e481e21161017a5780637d007ac1116101495780637d007ac1146103fa57806381889499146104235780638c91b6381461044c5780638da5cb5b14610489576101e3565b806365e481e2146103545780637297bbe71461037d578063779972da146103a85780637bd58bee146103d1576101e3565b80633fd8b02f116101b65780633fd8b02f146102c0578063479f738a146102eb5780635652077c1461030257806360855bf71461032b576101e3565b8063013cf08b146101e857806305d0f15b1461022d578063301099621461025857806334f8901214610283575b600080fd5b3480156101f457600080fd5b5061020f600480360381019061020a9190612068565b610745565b60405161022499989796959493929190612190565b60405180910390f35b34801561023957600080fd5b506102426108d0565b60405161024f919061222b565b60405180910390f35b34801561026457600080fd5b5061026d6108d6565b60405161027a919061222b565b60405180910390f35b34801561028f57600080fd5b506102aa60048036038101906102a59190612272565b6108dc565b6040516102b7919061222b565b60405180910390f35b3480156102cc57600080fd5b506102d56108f4565b6040516102e2919061222b565b60405180910390f35b3480156102f757600080fd5b506103006108fa565b005b34801561030e57600080fd5b5061032960048036038101906103249190612068565b610ae5565b005b34801561033757600080fd5b50610352600480360381019061034d9190612068565b610d3c565b005b34801561036057600080fd5b5061037b600480360381019061037691906123d4565b610dd6565b005b34801561038957600080fd5b50610392610f69565b60405161039f919061222b565b60405180910390f35b3480156103b457600080fd5b506103cf60048036038101906103ca9190612068565b610f6f565b005b3480156103dd57600080fd5b506103f860048036038101906103f39190612068565b611009565b005b34801561040657600080fd5b50610421600480360381019061041c9190612068565b6111d7565b005b34801561042f57600080fd5b5061044a60048036038101906104459190612068565b611271565b005b34801561045857600080fd5b50610473600480360381019061046e9190612272565b61130b565b604051610480919061222b565b60405180910390f35b34801561049557600080fd5b5061049e611323565b6040516104ab919061244c565b60405180910390f35b3480156104c057600080fd5b506104db60048036038101906104d69190612068565b611349565b005b3480156104e957600080fd5b5061050460048036038101906104ff9190612068565b611469565b005b34801561051257600080fd5b5061052d60048036038101906105289190612068565b611637565b005b34801561053b57600080fd5b5061055660048036038101906105519190612068565b6116d1565b005b34801561056457600080fd5b5061057f600480360381019061057a9190612493565b61176b565b005b34801561058d57600080fd5b506105a860048036038101906105a39190612272565b6119de565b6040516105b5919061222b565b60405180910390f35b6105c66119f6565b005b3480156105d457600080fd5b506105ef60048036038101906105ea9190612272565b611bf1565b005b3480156105fd57600080fd5b5061061860048036038101906106139190612272565b611c78565b604051610625919061222b565b60405180910390f35b34801561063a57600080fd5b50610643611c90565b604051610650919061222b565b60405180910390f35b34801561066557600080fd5b5061066e611c9a565b60405161067b919061222b565b60405180910390f35b34801561069057600080fd5b50610699611ca0565b6040516106a6919061222b565b60405180910390f35b3480156106bb57600080fd5b506106d660048036038101906106d19190612272565b611ca6565b005b3480156106e457600080fd5b506106ed611de9565b6040516106fa9190612532565b60405180910390f35b34801561070f57600080fd5b50610718611e0f565b604051610725919061256e565b60405180910390f35b34801561073a57600080fd5b50610743611e33565b005b60096020528060005260406000206000915090508060000154908060010160009054906101000a900473ffffffffffffffffffffffffffffffffffffffff1690806002018054610794906125b8565b80601f01602080910402602001604051908101604052809291908181526020018280546107c0906125b8565b801561080d5780601f106107e25761010080835404028352916020019161080d565b820191906000526020600020905b8154815290600101906020018083116107f057829003601f168201915b505050505090806003018054610822906125b8565b80601f016020809104026020016040519081016040528092919081815260200182805461084e906125b8565b801561089b5780601f106108705761010080835404028352916020019161089b565b820191906000526020600020905b81548152906001019060200180831161087e57829003601f168201915b5050505050908060040154908060050154908060060154908060070154908060080160009054906101000a900460ff16905089565b60025481565b60045481565b600d6020528060005260406000206000915090505481565b60035481565b600b60003373ffffffffffffffffffffffffffffffffffffffff1673ffffffffffffffffffffffffffffffffffffffff1681526020019081526020016000205442101561097c576040517f08c379a000000000000000000000000000000000000000000000000000000000815260040161097390612635565b60405180910390fd5b6000600a60003373ffffffffffffffffffffffffffffffffffffffff1673ffffffffffffffffffffffffffffffffffffffff1681526020019081526020016000205490506000600a60003373ffffffffffffffffffffffffffffffffffffffff1673ffffffffffffffffffffffffffffffffffffffff1681526020019081526020016000208190555060008054906101000a900473ffffffffffffffffffffffffffffffffffffffff1673ffffffffffffffffffffffffffffffffffffffff1663a9059cbb33836040518363ffffffff1660e01b8152600401610a60929190612655565b6020604051808303816000875af1158015610a7f573d6000803e3d6000fd5b505050506040513d601f19601f82011682018060405250810190610aa39190612693565b610ae2576040517f08c379a0000000000000000000000000000000000000000000000000000000008152600401610ad99061270c565b60405180910390fd5b50565b60006009600083815260200190815260200160002090508060050154421015610b43576040517f08c379a0000000000000000000000000000000000000000000000000000000008152600401610b3a90612778565b60405180910390fd5b8060080160009054906101000a900460ff1615610b95576040517f08c379a0000000000000000000000000000000000000000000000000000000008152600401610b8c906127e4565b60405180910390fd5b600060055460008054906101000a900473ffffffffffffffffffffffffffffffffffffffff1673ffffffffffffffffffffffffffffffffffffffff166318160ddd6040518163ffffffff1660e01b8152600401602060405180830381865afa158015610c05573d6000803e3d6000fd5b505050506040513d601f19601f82011682018060405250810190610c299190612819565b610c3391906128a4565b90506000600160009054906101000a900473ffffffffffffffffffffffffffffffffffffffff1673ffffffffffffffffffffffffffffffffffffffff1663d95baddf84600601548560070154856040518463ffffffff1660e01b8152600401610c9e939291906128d5565b602060405180830381865afa158015610cbb573d6000803e3d6000fd5b505050506040513d601f19601f82011682018060405250810190610cdf9190612693565b905060018360080160006101000a81548160ff021916908315150217905550837f82693b732f9696c8a914b820dd6c52544bd61b844bbd4c8707253df9340cf6b782604051610d2e919061290c565b60405180910390a250505050565b600e60009054906101000a900473ffffffffffffffffffffffffffffffffffffffff1673ffffffffffffffffffffffffffffffffffffffff163373ffffffffffffffffffffffffffffffffffffffff1614610dcc576040517f08c379a0000000000000000000000000000000000000000000000000000000008152600401610dc390612973565b60405180910390fd5b8060078190555050565b600754600c60003373ffffffffffffffffffffffffffffffffffffffff1673ffffffffffffffffffffffffffffffffffffffff168152602001908152602001600020541015610e5a576040517f08c379a0000000000000000000000000000000000000000000000000000000008152600401610e51906129df565b60405180910390fd5b60086000815480929190610e6d906129ff565b9190505550600060096000600854815260200190815260200160002090506008548160000181905550338160010160006101000a81548173ffffffffffffffffffffffffffffffffffffffff021916908373ffffffffffffffffffffffffffffffffffffffff16021790555082816002019081610eea9190612be9565b5081816003019081610efc9190612be9565b5042816004018190555060045442610f149190612cbb565b81600501819055503373ffffffffffffffffffffffffffffffffffffffff1681600001547fcd423cc1203c0af96b9b3d68d73b3064a69de2d14450bb7181c5e5df2132b35860405160405180910390a3505050565b60055481565b600e60009054906101000a900473ffffffffffffffffffffffffffffffffffffffff1673ffffffffffffffffffffffffffffffffffffffff163373ffffffffffffffffffffffffffffffffffffffff1614610fff576040517f08c379a0000000000000000000000000000000000000000000000000000000008152600401610ff690612973565b60405180910390fd5b8060038190555050565b60075481101561104e576040517f08c379a0000000000000000000000000000000000000000000000000000000008152600401611045906129df565b60405180910390fd5b60008054906101000a900473ffffffffffffffffffffffffffffffffffffffff1673ffffffffffffffffffffffffffffffffffffffff166323b872dd3330846040518463ffffffff1660e01b81526004016110ab93929190612cef565b6020604051808303816000875af11580156110ca573d6000803e3d6000fd5b505050506040513d601f19601f820116820180604052508101906110ee9190612693565b61112d576040517f08c379a00000000000000000000000000000000000000000000000000000000081526004016111249061270c565b60405180910390fd5b80600c60003373ffffffffffffffffffffffffffffffffffffffff1673ffffffffffffffffffffffffffffffffffffffff168152602001908152602001600020600082825461117c9190612cbb565b92505081905550600354426111919190612cbb565b600d60003373ffffffffffffffffffffffffffffffffffffffff1673ffffffffffffffffffffffffffffffffffffffff1681526020019081526020016000208190555050565b600e60009054906101000a900473ffffffffffffffffffffffffffffffffffffffff1673ffffffffffffffffffffffffffffffffffffffff163373ffffffffffffffffffffffffffffffffffffffff1614611267576040517f08c379a000000000000000000000000000000000000000000000000000000000815260040161125e90612973565b60405180910390fd5b8060048190555050565b600e60009054906101000a900473ffffffffffffffffffffffffffffffffffffffff1673ffffffffffffffffffffffffffffffffffffffff163373ffffffffffffffffffffffffffffffffffffffff1614611301576040517f08c379a00000000000000000000000000000000000000000000000000000000081526004016112f890612973565b60405180910390fd5b8060068190555050565b600a6020528060005260406000206000915090505481565b600e60009054906101000a900473ffffffffffffffffffffffffffffffffffffffff1681565b600e60009054906101000a900473ffffffffffffffffffffffffffffffffffffffff1673ffffffffffffffffffffffffffffffffffffffff163373ffffffffffffffffffffffffffffffffffffffff16146113d9576040517f08c379a00000000000000000000000000000000000000000000000000000000081526004016113d090612973565b60405180910390fd5b60008054906101000a900473ffffffffffffffffffffffffffffffffffffffff1673ffffffffffffffffffffffffffffffffffffffff166340c10f1930836040518363ffffffff1660e01b8152600401611434929190612655565b600060405180830381600087803b15801561144e57600080fd5b505af1158015611462573d6000803e3d6000fd5b5050505050565b6006548110156114ae576040517f08c379a00000000000000000000000000000000000000000000000000000000081526004016114a590612d72565b60405180910390fd5b60008054906101000a900473ffffffffffffffffffffffffffffffffffffffff1673ffffffffffffffffffffffffffffffffffffffff166323b872dd3330846040518463ffffffff1660e01b815260040161150b93929190612cef565b6020604051808303816000875af115801561152a573d6000803e3d6000fd5b505050506040513d601f19601f8201168201806040525081019061154e9190612693565b61158d576040517f08c379a00000000000000000000000000000000000000000000000000000000081526004016115849061270c565b60405180910390fd5b80600a60003373ffffffffffffffffffffffffffffffffffffffff1673ffffffffffffffffffffffffffffffffffffffff16815260200190815260200160002060008282546115dc9190612cbb565b92505081905550600354426115f19190612cbb565b600b60003373ffffffffffffffffffffffffffffffffffffffff1673ffffffffffffffffffffffffffffffffffffffff1681526020019081526020016000208190555050565b600e60009054906101000a900473ffffffffffffffffffffffffffffffffffffffff1673ffffffffffffffffffffffffffffffffffffffff163373ffffffffffffffffffffffffffffffffffffffff16146116c7576040517f08c379a00000000000000000000000000000000000000000000000000000000081526004016116be90612973565b60405180910390fd5b8060058190555050565b600e60009054906101000a900473ffffffffffffffffffffffffffffffffffffffff1673ffffffffffffffffffffffffffffffffffffffff163373ffffffffffffffffffffffffffffffffffffffff1614611761576040517f08c379a000000000000000000000000000000000000000000000000000000000815260040161175890612973565b60405180910390fd5b8060028190555050565b6000600960008481526020019081526020016000209050806005015442106117c8576040517f08c379a00000000000000000000000000000000000000000000000000000000081526004016117bf90612dde565b60405180910390fd5b8060090160003373ffffffffffffffffffffffffffffffffffffffff1673ffffffffffffffffffffffffffffffffffffffff16815260200190815260200160002060009054906101000a900460ff1615611857576040517f08c379a000000000000000000000000000000000000000000000000000000000815260040161184e90612e4a565b60405180910390fd5b6000600554600a60003373ffffffffffffffffffffffffffffffffffffffff1673ffffffffffffffffffffffffffffffffffffffff168152602001908152602001600020546118a691906128a4565b9050600081116118eb576040517f08c379a00000000000000000000000000000000000000000000000000000000081526004016118e290612eb6565b60405180910390fd5b821561191157808260060160008282546119059190612cbb565b9250508190555061192d565b808260070160008282546119259190612cbb565b925050819055505b60018260090160003373ffffffffffffffffffffffffffffffffffffffff1673ffffffffffffffffffffffffffffffffffffffff16815260200190815260200160002060006101000a81548160ff0219169083151502179055503373ffffffffffffffffffffffffffffffffffffffff16847f7c2de587c00d75474a0c6c6fa96fd3b45dc974cd4e8a75f712bb84c950dce1b585846040516119d0929190612ed6565b60405180910390a350505050565b600b6020528060005260406000206000915090505481565b600254341015611a3b576040517f08c379a0000000000000000000000000000000000000000000000000000000008152600401611a3290612f4b565b60405180910390fd5b6000600254670de0b6b3a764000034611a549190612f6b565b611a5e91906128a4565b905060008060009054906101000a900473ffffffffffffffffffffffffffffffffffffffff1673ffffffffffffffffffffffffffffffffffffffff166370a08231306040518263ffffffff1660e01b8152600401611abc919061244c565b602060405180830381865afa158015611ad9573d6000803e3d6000fd5b505050506040513d601f19601f82011682018060405250810190611afd9190612819565b905080821115611b0b578091505b60008211611b4e576040517f08c379a0000000000000000000000000000000000000000000000000000000008152600401611b459061301f565b60405180910390fd5b60008054906101000a900473ffffffffffffffffffffffffffffffffffffffff1673ffffffffffffffffffffffffffffffffffffffff1663a9059cbb33846040518363ffffffff1660e01b8152600401611ba9929190612655565b6020604051808303816000875af1158015611bc8573d6000803e3d6000fd5b505050506040513d601f19601f82011682018060405250810190611bec9190612693565b505050565b80600160006101000a81548173ffffffffffffffffffffffffffffffffffffffff021916908373ffffffffffffffffffffffffffffffffffffffff1602179055508073ffffffffffffffffffffffffffffffffffffffff167fafd1cdc355e15bfc9038294be1c6203ce953704fda8c991bebe78ddd4d5420d160405160405180910390a250565b600c6020528060005260406000206000915090505481565b6000600854905090565b60065481565b60075481565b600e60009054906101000a900473ffffffffffffffffffffffffffffffffffffffff1673ffffffffffffffffffffffffffffffffffffffff163373ffffffffffffffffffffffffffffffffffffffff1614611d36576040517f08c379a0000000000000000000000000000000000000000000000000000000008152600401611d2d90612973565b60405180910390fd5b600073ffffffffffffffffffffffffffffffffffffffff168173ffffffffffffffffffffffffffffffffffffffff1603611da5576040517f08c379a0000000000000000000000000000000000000000000000000000000008152600401611d9c9061308b565b60405180910390fd5b80600e60006101000a81548173ffffffffffffffffffffffffffffffffffffffff021916908373ffffffffffffffffffffffffffffffffffffffff16021790555050565b600160009054906101000a900473ffffffffffffffffffffffffffffffffffffffff1681565b60008054906101000a900473ffffffffffffffffffffffffffffffffffffffff1681565b600d60003373ffffffffffffffffffffffffffffffffffffffff1673ffffffffffffffffffffffffffffffffffffffff16815260200190815260200160002054421015611eb5576040517f08c379a0000000000000000000000000000000000000000000000000000000008152600401611eac90612635565b60405180910390fd5b6000600c60003373ffffffffffffffffffffffffffffffffffffffff1673ffffffffffffffffffffffffffffffffffffffff1681526020019081526020016000205490506000600c60003373ffffffffffffffffffffffffffffffffffffffff1673ffffffffffffffffffffffffffffffffffffffff1681526020019081526020016000208190555060008054906101000a900473ffffffffffffffffffffffffffffffffffffffff1673ffffffffffffffffffffffffffffffffffffffff1663a9059cbb33836040518363ffffffff1660e01b8152600401611f99929190612655565b6020604051808303816000875af1158015611fb8573d6000803e3d6000fd5b505050506040513d601f19601f82011682018060405250810190611fdc9190612693565b61201b576040517f08c379a00000000000000000000000000000000000000000000000000000000081526004016120129061270c565b60405180910390fd5b50565b6000604051905090565b600080fd5b600080fd5b6000819050919050565b61204581612032565b811461205057600080fd5b50565b6000813590506120628161203c565b92915050565b60006020828403121561207e5761207d612028565b5b600061208c84828501612053565b91505092915050565b61209e81612032565b82525050565b600073ffffffffffffffffffffffffffffffffffffffff82169050919050565b60006120cf826120a4565b9050919050565b6120df816120c4565b82525050565b600081519050919050565b600082825260208201905092915050565b60005b8381101561211f578082015181840152602081019050612104565b60008484015250505050565b6000601f19601f8301169050919050565b6000612147826120e5565b61215181856120f0565b9350612161818560208601612101565b61216a8161212b565b840191505092915050565b60008115159050919050565b61218a81612175565b82525050565b6000610120820190506121a6600083018c612095565b6121b3602083018b6120d6565b81810360408301526121c5818a61213c565b905081810360608301526121d9818961213c565b90506121e86080830188612095565b6121f560a0830187612095565b61220260c0830186612095565b61220f60e0830185612095565b61221d610100830184612181565b9a9950505050505050505050565b60006020820190506122406000830184612095565b92915050565b61224f816120c4565b811461225a57600080fd5b50565b60008135905061226c81612246565b92915050565b60006020828403121561228857612287612028565b5b60006122968482850161225d565b91505092915050565b600080fd5b600080fd5b7f4e487b7100000000000000000000000000000000000000000000000000000000600052604160045260246000fd5b6122e18261212b565b810181811067ffffffffffffffff82111715612300576122ff6122a9565b5b80604052505050565b600061231361201e565b905061231f82826122d8565b919050565b600067ffffffffffffffff82111561233f5761233e6122a9565b5b6123488261212b565b9050602081019050919050565b82818337600083830152505050565b600061237761237284612324565b612309565b905082815260208101848484011115612393576123926122a4565b5b61239e848285612355565b509392505050565b600082601f8301126123bb576123ba61229f565b5b81356123cb848260208601612364565b91505092915050565b600080604083850312156123eb576123ea612028565b5b600083013567ffffffffffffffff8111156124095761240861202d565b5b612415858286016123a6565b925050602083013567ffffffffffffffff8111156124365761243561202d565b5b612442858286016123a6565b9150509250929050565b600060208201905061246160008301846120d6565b92915050565b61247081612175565b811461247b57600080fd5b50565b60008135905061248d81612467565b92915050565b600080604083850312156124aa576124a9612028565b5b60006124b885828601612053565b92505060206124c98582860161247e565b9150509250929050565b6000819050919050565b60006124f86124f36124ee846120a4565b6124d3565b6120a4565b9050919050565b600061250a826124dd565b9050919050565b600061251c826124ff565b9050919050565b61252c81612511565b82525050565b60006020820190506125476000830184612523565b92915050565b6000612558826124ff565b9050919050565b6125688161254d565b82525050565b6000602082019050612583600083018461255f565b92915050565b7f4e487b7100000000000000000000000000000000000000000000000000000000600052602260045260246000fd5b600060028204905060018216806125d057607f821691505b6020821081036125e3576125e2612589565b5b50919050565b7f4c6f636b20706572696f64206e6f742070617373656400000000000000000000600082015250565b600061261f6016836120f0565b915061262a826125e9565b602082019050919050565b6000602082019050818103600083015261264e81612612565b9050919050565b600060408201905061266a60008301856120d6565b6126776020830184612095565b9392505050565b60008151905061268d81612467565b92915050565b6000602082840312156126a9576126a8612028565b5b60006126b78482850161267e565b91505092915050565b7f5472616e73666572206661696c65640000000000000000000000000000000000600082015250565b60006126f6600f836120f0565b9150612701826126c0565b602082019050919050565b60006020820190508181036000830152612725816126e9565b9050919050565b7f566f74696e67207374696c6c2061637469766500000000000000000000000000600082015250565b60006127626013836120f0565b915061276d8261272c565b602082019050919050565b6000602082019050818103600083015261279181612755565b9050919050565b7f416c72656164792066696e616c697a6564000000000000000000000000000000600082015250565b60006127ce6011836120f0565b91506127d982612798565b602082019050919050565b600060208201905081810360008301526127fd816127c1565b9050919050565b6000815190506128138161203c565b92915050565b60006020828403121561282f5761282e612028565b5b600061283d84828501612804565b91505092915050565b7f4e487b7100000000000000000000000000000000000000000000000000000000600052601260045260246000fd5b7f4e487b7100000000000000000000000000000000000000000000000000000000600052601160045260246000fd5b60006128af82612032565b91506128ba83612032565b9250826128ca576128c9612846565b5b828204905092915050565b60006060820190506128ea6000830186612095565b6128f76020830185612095565b6129046040830184612095565b949350505050565b60006020820190506129216000830184612181565b92915050565b7f4f6e6c79206f776e657200000000000000000000000000000000000000000000600082015250565b600061295d600a836120f0565b915061296882612927565b602082019050919050565b6000602082019050818103600083015261298c81612950565b9050919050565b7f4d696e696d6f20706172612070726f706f6e6572000000000000000000000000600082015250565b60006129c96014836120f0565b91506129d482612993565b602082019050919050565b600060208201905081810360008301526129f8816129bc565b9050919050565b6000612a0a82612032565b91507fffffffffffffffffffffffffffffffffffffffffffffffffffffffffffffffff8203612a3c57612a3b612875565b5b600182019050919050565b60008190508160005260206000209050919050565b60006020601f8301049050919050565b600082821b905092915050565b600060088302612aa97fffffffffffffffffffffffffffffffffffffffffffffffffffffffffffffffff82612a6c565b612ab38683612a6c565b95508019841693508086168417925050509392505050565b6000612ae6612ae1612adc84612032565b6124d3565b612032565b9050919050565b6000819050919050565b612b0083612acb565b612b14612b0c82612aed565b848454612a79565b825550505050565b600090565b612b29612b1c565b612b34818484612af7565b505050565b5b81811015612b5857612b4d600082612b21565b600181019050612b3a565b5050565b601f821115612b9d57612b6e81612a47565b612b7784612a5c565b81016020851015612b86578190505b612b9a612b9285612a5c565b830182612b39565b50505b505050565b600082821c905092915050565b6000612bc060001984600802612ba2565b1980831691505092915050565b6000612bd98383612baf565b9150826002028217905092915050565b612bf2826120e5565b67ffffffffffffffff811115612c0b57612c0a6122a9565b5b612c1582546125b8565b612c20828285612b5c565b600060209050601f831160018114612c535760008415612c41578287015190505b612c4b8582612bcd565b865550612cb3565b601f198416612c6186612a47565b60005b82811015612c8957848901518255600182019150602085019450602081019050612c64565b86831015612ca65784890151612ca2601f891682612baf565b8355505b6001600288020188555050505b505050505050565b6000612cc682612032565b9150612cd183612032565b9250828201905080821115612ce957612ce8612875565b5b92915050565b6000606082019050612d0460008301866120d6565b612d1160208301856120d6565b612d1e6040830184612095565b949350505050565b7f4d696e696d6f207061726120766f746172000000000000000000000000000000600082015250565b6000612d5c6011836120f0565b9150612d6782612d26565b602082019050919050565b60006020820190508181036000830152612d8b81612d4f565b9050919050565b7f566f74696e6720706572696f6420656e64656400000000000000000000000000600082015250565b6000612dc86013836120f0565b9150612dd382612d92565b602082019050919050565b60006020820190508181036000830152612df781612dbb565b9050919050565b7f416c726561647920766f74656400000000000000000000000000000000000000600082015250565b6000612e34600d836120f0565b9150612e3f82612dfe565b602082019050919050565b60006020820190508181036000830152612e6381612e27565b9050919050565b7f4e6f207374616b656420746f6b656e7320746f20766f74650000000000000000600082015250565b6000612ea06018836120f0565b9150612eab82612e6a565b602082019050919050565b60006020820190508181036000830152612ecf81612e93565b9050919050565b6000604082019050612eeb6000830185612181565b612ef86020830184612095565b9392505050565b7f496e73756666696369656e742045544800000000000000000000000000000000600082015250565b6000612f356010836120f0565b9150612f4082612eff565b602082019050919050565b60006020820190508181036000830152612f6481612f28565b9050919050565b6000612f7682612032565b9150612f8183612032565b9250828202612f8f81612032565b91508282048414831517612fa657612fa5612875565b5b5092915050565b7f4e6f2068617920746f6b656e7320646973706f6e69626c65732070617261206360008201527f6f6d707261720000000000000000000000000000000000000000000000000000602082015250565b60006130096026836120f0565b915061301482612fad565b604082019050919050565b6000602082019050818103600083015261303881612ffc565b9050919050565b7f4e7565766f206f776e657220696e76616c69646f000000000000000000000000600082015250565b60006130756014836120f0565b91506130808261303f565b602082019050919050565b600060208201905081810360008301526130a481613068565b905091905056fea2646970667358221220c00e7a5b18653fa8934c2a4322c7192c4786065c24fa05a00a40c54a6486081264736f6c6343000814003360806040523480156200001157600080fd5b50604051620017d4380380620017d48339818101604052810190620000379190620002e3565b838381600390816200004a9190620005de565b5080600490816200005c9190620005de565b50505081600560006101000a81548173ffffffffffffffffffffffffffffffffffffffff021916908373ffffffffffffffffffffffffffffffffffffffff16021790555080600660006101000a81548173ffffffffffffffffffffffffffffffffffffffff021916908373ffffffffffffffffffffffffffffffffffffffff16021790555050505050620006c5565b6000604051905090565b600080fd5b600080fd5b600080fd5b600080fd5b6000601f19601f8301169050919050565b7f4e487b7100000000000000000000000000000000000000000000000000000000600052604160045260246000fd5b620001548262000109565b810181811067ffffffffffffffff821117156200017657620001756200011a565b5b80604052505050565b60006200018b620000eb565b905062000199828262000149565b919050565b600067ffffffffffffffff821115620001bc57620001bb6200011a565b5b620001c78262000109565b9050602081019050919050565b60005b83811015620001f4578082015181840152602081019050620001d7565b60008484015250505050565b60006200021762000211846200019e565b6200017f565b90508281526020810184848401111562000236576200023562000104565b5b62000243848285620001d4565b509392505050565b600082601f830112620002635762000262620000ff565b5b81516200027584826020860162000200565b91505092915050565b600073ffffffffffffffffffffffffffffffffffffffff82169050919050565b6000620002ab826200027e565b9050919050565b620002bd816200029e565b8114620002c957600080fd5b50565b600081519050620002dd81620002b2565b92915050565b600080600080608085870312156200030057620002ff620000f5565b5b600085015167ffffffffffffffff811115620003215762000320620000fa565b5b6200032f878288016200024b565b945050602085015167ffffffffffffffff811115620003535762000352620000fa565b5b62000361878288016200024b565b93505060406200037487828801620002cc565b92505060606200038787828801620002cc565b91505092959194509250565b600081519050919050565b7f4e487b7100000000000000000000000000000000000000000000000000000000600052602260045260246000fd5b60006002820490506001821680620003e657607f821691505b602082108103620003fc57620003fb6200039e565b5b50919050565b60008190508160005260206000209050919050565b60006020601f8301049050919050565b600082821b905092915050565b600060088302620004667fffffffffffffffffffffffffffffffffffffffffffffffffffffffffffffffff8262000427565b62000472868362000427565b95508019841693508086168417925050509392505050565b6000819050919050565b6000819050919050565b6000620004bf620004b9620004b3846200048a565b62000494565b6200048a565b9050919050565b6000819050919050565b620004db836200049e565b620004f3620004ea82620004c6565b84845462000434565b825550505050565b600090565b6200050a620004fb565b62000517818484620004d0565b505050565b5b818110156200053f576200053360008262000500565b6001810190506200051d565b5050565b601f8211156200058e57620005588162000402565b620005638462000417565b8101602085101562000573578190505b6200058b620005828562000417565b8301826200051c565b50505b505050565b600082821c905092915050565b6000620005b36000198460080262000593565b1980831691505092915050565b6000620005ce8383620005a0565b9150826002028217905092915050565b620005e98262000393565b67ffffffffffffffff8111156200060557620006046200011a565b5b620006118254620003cd565b6200061e82828562000543565b600060209050601f83116001811462000656576000841562000641578287015190505b6200064d8582620005c0565b865550620006bd565b601f198416620006668662000402565b60005b82811015620006905784890151825560018201915060208501945060208101905062000669565b86831015620006b05784890151620006ac601f891682620005a0565b8355505b6001600288020188555050505b505050505050565b6110ff80620006d56000396000f3fe608060405234801561001057600080fd5b50600436106100b45760003560e01c80634162169f116100715780634162169f1461018f57806370a08231146101ad5780638da5cb5b146101dd57806395d89b41146101fb578063a9059cbb14610219578063dd62ed3e14610249576100b4565b806306fdde03146100b9578063095ea7b3146100d757806318160ddd1461010757806323b872dd14610125578063313ce5671461015557806340c10f1914610173575b600080fd5b6100c1610279565b6040516100ce9190610ce7565b60405180910390f35b6100f160048036038101906100ec9190610da2565b61030b565b6040516100fe9190610dfd565b60405180910390f35b61010f61032e565b60405161011c9190610e27565b60405180910390f35b61013f600480360381019061013a9190610e42565b610338565b60405161014c9190610dfd565b60405180910390f35b61015d610367565b60405161016a9190610eb1565b60405180910390f35b61018d60048036038101906101889190610da2565b610370565b005b610197610466565b6040516101a49190610edb565b60405180910390f35b6101c760048036038101906101c29190610ef6565b61048c565b6040516101d49190610e27565b60405180910390f35b6101e56104d4565b6040516101f29190610edb565b60405180910390f35b6102036104fa565b6040516102109190610ce7565b60405180910390f35b610233600480360381019061022e9190610da2565b61058c565b6040516102409190610dfd565b60405180910390f35b610263600480360381019061025e9190610f23565b6105af565b6040516102709190610e27565b60405180910390f35b60606003805461028890610f92565b80601f01602080910402602001604051908101604052809291908181526020018280546102b490610f92565b80156103015780601f106102d657610100808354040283529160200191610301565b820191906000526020600020905b8154815290600101906020018083116102e457829003601f168201915b5050505050905090565b600080610316610636565b905061032381858561063e565b600191505092915050565b6000600254905090565b600080610343610636565b9050610350858285610650565b61035b8585856106e5565b60019150509392505050565b60006012905090565b600560009054906101000a900473ffffffffffffffffffffffffffffffffffffffff1673ffffffffffffffffffffffffffffffffffffffff163373ffffffffffffffffffffffffffffffffffffffff1614806104195750600660009054906101000a900473ffffffffffffffffffffffffffffffffffffffff1673ffffffffffffffffffffffffffffffffffffffff163373ffffffffffffffffffffffffffffffffffffffff16145b610458576040517f08c379a000000000000000000000000000000000000000000000000000000000815260040161044f9061100f565b60405180910390fd5b61046282826107d9565b5050565b600560009054906101000a900473ffffffffffffffffffffffffffffffffffffffff1681565b60008060008373ffffffffffffffffffffffffffffffffffffffff1673ffffffffffffffffffffffffffffffffffffffff168152602001908152602001600020549050919050565b600660009054906101000a900473ffffffffffffffffffffffffffffffffffffffff1681565b60606004805461050990610f92565b80601f016020809104026020016040519081016040528092919081815260200182805461053590610f92565b80156105825780601f1061055757610100808354040283529160200191610582565b820191906000526020600020905b81548152906001019060200180831161056557829003601f168201915b5050505050905090565b600080610597610636565b90506105a48185856106e5565b600191505092915050565b6000600160008473ffffffffffffffffffffffffffffffffffffffff1673ffffffffffffffffffffffffffffffffffffffff16815260200190815260200160002060008373ffffffffffffffffffffffffffffffffffffffff1673ffffffffffffffffffffffffffffffffffffffff16815260200190815260200160002054905092915050565b600033905090565b61064b838383600161085b565b505050565b600061065c84846105af565b90507fffffffffffffffffffffffffffffffffffffffffffffffffffffffffffffffff8110156106df57818110156106cf578281836040517ffb8f41b20000000000000000000000000000000000000000000000000000000081526004016106c69392919061102f565b60405180910390fd5b6106de8484848403600061085b565b5b50505050565b600073ffffffffffffffffffffffffffffffffffffffff168373ffffffffffffffffffffffffffffffffffffffff16036107575760006040517f96c6fd1e00000000000000000000000000000000000000000000000000000000815260040161074e9190610edb565b60405180910390fd5b600073ffffffffffffffffffffffffffffffffffffffff168273ffffffffffffffffffffffffffffffffffffffff16036107c95760006040517fec442f050000000000000000000000000000000000000000000000000000000081526004016107c09190610edb565b60405180910390fd5b6107d4838383610a32565b505050565b600073ffffffffffffffffffffffffffffffffffffffff168273ffffffffffffffffffffffffffffffffffffffff160361084b5760006040517fec442f050000000000000000000000000000000000000000000000000000000081526004016108429190610edb565b60405180910390fd5b61085760008383610a32565b5050565b600073ffffffffffffffffffffffffffffffffffffffff168473ffffffffffffffffffffffffffffffffffffffff16036108cd5760006040517fe602df050000000000000000000000000000000000000000000000000000000081526004016108c49190610edb565b60405180910390fd5b600073ffffffffffffffffffffffffffffffffffffffff168373ffffffffffffffffffffffffffffffffffffffff160361093f5760006040517f94280d620000000000000000000000000000000000000000000000000000000081526004016109369190610edb565b60405180910390fd5b81600160008673ffffffffffffffffffffffffffffffffffffffff1673ffffffffffffffffffffffffffffffffffffffff16815260200190815260200160002060008573ffffffffffffffffffffffffffffffffffffffff1673ffffffffffffffffffffffffffffffffffffffff168152602001908152602001600020819055508015610a2c578273ffffffffffffffffffffffffffffffffffffffff168473ffffffffffffffffffffffffffffffffffffffff167f8c5be1e5ebec7d5bd14f71427d1e84f3dd0314c0f7b2291e5b200ac8c7c3b92584604051610a239190610e27565b60405180910390a35b50505050565b600073ffffffffffffffffffffffffffffffffffffffff168373ffffffffffffffffffffffffffffffffffffffff1603610a84578060026000828254610a789190611095565b92505081905550610b57565b60008060008573ffffffffffffffffffffffffffffffffffffffff1673ffffffffffffffffffffffffffffffffffffffff16815260200190815260200160002054905081811015610b10578381836040517fe450d38c000000000000000000000000000000000000000000000000000000008152600401610b079392919061102f565b60405180910390fd5b8181036000808673ffffffffffffffffffffffffffffffffffffffff1673ffffffffffffffffffffffffffffffffffffffff16815260200190815260200160002081905550505b600073ffffffffffffffffffffffffffffffffffffffff168273ffffffffffffffffffffffffffffffffffffffff1603610ba05780600260008282540392505081905550610bed565b806000808473ffffffffffffffffffffffffffffffffffffffff1673ffffffffffffffffffffffffffffffffffffffff168152602001908152602001600020600082825401925050819055505b8173ffffffffffffffffffffffffffffffffffffffff168373ffffffffffffffffffffffffffffffffffffffff167fddf252ad1be2c89b69c2b068fc378daa952ba7f163c4a11628f55a4df523b3ef83604051610c4a9190610e27565b60405180910390a3505050565b600081519050919050565b600082825260208201905092915050565b60005b83811015610c91578082015181840152602081019050610c76565b60008484015250505050565b6000601f19601f8301169050919050565b6000610cb982610c57565b610cc38185610c62565b9350610cd3818560208601610c73565b610cdc81610c9d565b840191505092915050565b60006020820190508181036000830152610d018184610cae565b905092915050565b600080fd5b600073ffffffffffffffffffffffffffffffffffffffff82169050919050565b6000610d3982610d0e565b9050919050565b610d4981610d2e565b8114610d5457600080fd5b50565b600081359050610d6681610d40565b92915050565b6000819050919050565b610d7f81610d6c565b8114610d8a57600080fd5b50565b600081359050610d9c81610d76565b92915050565b60008060408385031215610db957610db8610d09565b5b6000610dc785828601610d57565b9250506020610dd885828601610d8d565b9150509250929050565b60008115159050919050565b610df781610de2565b82525050565b6000602082019050610e126000830184610dee565b92915050565b610e2181610d6c565b82525050565b6000602082019050610e3c6000830184610e18565b92915050565b600080600060608486031215610e5b57610e5a610d09565b5b6000610e6986828701610d57565b9350506020610e7a86828701610d57565b9250506040610e8b86828701610d8d565b9150509250925092565b600060ff82169050919050565b610eab81610e95565b82525050565b6000602082019050610ec66000830184610ea2565b92915050565b610ed581610d2e565b82525050565b6000602082019050610ef06000830184610ecc565b92915050565b600060208284031215610f0c57610f0b610d09565b5b6000610f1a84828501610d57565b91505092915050565b60008060408385031215610f3a57610f39610d09565b5b6000610f4885828601610d57565b9250506020610f5985828601610d57565b9150509250929050565b7f4e487b7100000000000000000000000000000000000000000000000000000000600052602260045260246000fd5b60006002820490506001821680610faa57607f821691505b602082108103610fbd57610fbc610f63565b5b50919050565b7f4f6e6c792044414f206f72206f776e65722063616e206d696e74000000000000600082015250565b6000610ff9601a83610c62565b915061100482610fc3565b602082019050919050565b6000602082019050818103600083015261102881610fec565b9050919050565b60006060820190506110446000830186610ecc565b6110516020830185610e18565b61105e6040830184610e18565b949350505050565b7f4e487b7100000000000000000000000000000000000000000000000000000000600052601160045260246000fd5b60006110a082610d6c565b91506110ab83610d6c565b92508282019050808211156110c3576110c2611066565b5b9291505056fea2646970667358221220fa1c7c00b3dd22025ce92f202847901cf6aef11a9f179b41461962be4e616b6664736f6c63430008140033",
  "linkReferences": {},
  "deployedLinkReferences": {}
}