{
  "_format": "hh-sol-artifact-1",
  "contractName": "DaoGovernance",
  "sourceName": "contracts/DaoGovernance.sol",
  "abi": [
    {
      "inputs": [
        {
          "internalType": "string",
          "name": "tokenName",
          "type": "string"
        },
        {
          "internalType": "string",
          "name": "tokenSymbol",
          "type": "string"
        },
        {
          "internalType": "uint256",
          "name": "_tokenPriceWei",
          "type": "uint256"
        },
        {
          "internalType": "uint256",
          "name": "_lockPeriod",
          "type": "uint256"
        },
        {
          "internalType": "uint256",
          "name": "_proposalDuration",
          "type": "uint256"
        },
        {
          "internalType": "uint256",
          "name": "_voteUnit",
          "type": "uint256"
        },
        {
          "internalType": "address",
          "name": "initialStrategy",
          "type": "address"
        },
        {
          "internalType": "address",
          "name": "_owner",
          "type": "address"
        }
      ],
      "stateMutability": "nonpayable",
      "type": "constructor"
    },
    {
      "anonymous": false,
      "inputs": [
        {
          "indexed": true,
          "internalType": "uint256",
          "name": "id",
          "type": "uint256"
        },
        {
          "indexed": false,
          "internalType": "bool",
          "name": "accepted",
          "type": "bool"
        }
      ],
      "name": "Finalized",
      "type": "event"
    },
    {
      "anonymous": false,
      "inputs": [
        {
          "indexed": true,
          "internalType": "uint256",
          "name": "id",
          "type": "uint256"
        },
        {
          "indexed": true,
          "internalType": "address",
          "name": "proposer",
          "type": "address"
        }
      ],
      "name": "ProposalCreated",
      "type": "event"
    },
    {
      "anonymous": false,
      "inputs": [
        {
          "indexed": true,
          "internalType": "address",
          "name": "newStrategy",
          "type": "address"
        }
      ],
      "name": "StrategyChanged",
      "type": "event"
    },
    {
      "anonymous": false,
      "inputs": [
        {
          "indexed": true,
          "internalType": "uint256",
          "name": "id",
          "type": "uint256"
        },
        {
          "indexed": true,
          "internalType": "address",
          "name": "voter",
          "type": "address"
        },
        {
          "indexed": false,
          "internalType": "bool",
          "name": "support",
          "type": "bool"
        },
        {
          "indexed": false,
          "internalType": "uint256",
          "name": "weight",
          "type": "uint256"
        }
      ],
      "name": "Voted",
      "type": "event"
    },
    {
      "inputs": [],
      "name": "buyTokens",
      "outputs": [],
      "stateMutability": "payable",
      "type": "function"
    },
    {
      "inputs": [
        {
          "internalType": "string",
          "name": "title",
          "type": "string"
        },
        {
          "internalType": "string",
          "name": "description",
          "type": "string"
        }
      ],
      "name": "createProposal",
      "outputs": [],
      "stateMutability": "nonpayable",
      "type": "function"
    },
    {
      "inputs": [
        {
          "internalType": "uint256",
          "name": "proposalId",
          "type": "uint256"
        }
      ],
      "name": "finalizeProposal",
      "outputs": [],
      "stateMutability": "nonpayable",
      "type": "function"
    },
    {
      "inputs": [],
      "name": "lockPeriod",
      "outputs": [
        {
          "internalType": "uint256",
          "name": "",
          "type": "uint256"
        }
      ],
      "stateMutability": "view",
      "type": "function"
    },
    {
      "inputs": [],
      "name": "minStakePropose",
      "outputs": [
        {
          "internalType": "uint256",
          "name": "",
          "type": "uint256"
        }
      ],
      "stateMutability": "view",
      "type": "function"
    },
    {
      "inputs": [],
      "name": "minStakeVote",
      "outputs": [
        {
          "internalType": "uint256",
          "name": "",
          "type": "uint256"
        }
      ],
      "stateMutability": "view",
      "type": "function"
    },
    {
      "inputs": [
        {
          "internalType": "uint256",
          "name": "amount",
          "type": "uint256"
        }
      ],
      "name": "mintTokens",
      "outputs": [],
      "stateMutability": "nonpayable",
      "type": "function"
    },
    {
      "inputs": [],
      "name": "owner",
      "outputs": [
        {
          "internalType": "address",
          "name": "",
          "type": "address"
        }
      ],
      "stateMutability": "view",
      "type": "function"
    },
    {
      "inputs": [],
      "name": "proposalCount",
      "outputs": [
        {
          "internalType": "uint256",
          "name": "",
          "type": "uint256"
        }
      ],
      "stateMutability": "view",
      "type": "function"
    },
    {
      "inputs": [],
      "name": "proposalDuration",
      "outputs": [
        {
          "internalType": "uint256",
          "name": "",
          "type": "uint256"
        }
      ],
      "stateMutability": "view",
      "type": "function"
    },
    {
      "inputs": [
        {
          "internalType": "uint256",
          "name": "",
          "type": "uint256"
        }
      ],
      "name": "proposals",
      "outputs": [
        {
          "internalType": "uint256",
          "name": "id",
          "type": "uint256"
        },
        {
          "internalType": "address",
          "name": "proposer",
          "type": "address"
        },
        {
          "internalType": "string",
          "name": "title",
          "type": "string"
        },
        {
          "internalType": "string",
          "name": "description",
          "type": "string"
        },
        {
          "internalType": "uint256",
          "name": "start",
          "type": "uint256"
        },
        {
          "internalType": "uint256",
          "name": "end",
          "type": "uint256"
        },
        {
          "internalType": "uint256",
          "name": "forVotes",
          "type": "uint256"
        },
        {
          "internalType": "uint256",
          "name": "againstVotes",
          "type": "uint256"
        },
        {
          "internalType": "bool",
          "name": "executed",
          "type": "bool"
        }
      ],
      "stateMutability": "view",
      "type": "function"
    },
    {
      "inputs": [
        {
          "internalType": "address",
          "name": "",
          "type": "address"
        }
      ],
      "name": "proposeStakeUnlock",
      "outputs": [
        {
          "internalType": "uint256",
          "name": "",
          "type": "uint256"
        }
      ],
      "stateMutability": "view",
      "type": "function"
    },
    {
      "inputs": [
        {
          "internalType": "uint256",
          "name": "_lockPeriod",
          "type": "uint256"
        }
      ],
      "name": "setLockPeriod",
      "outputs": [],
      "stateMutability": "nonpayable",
      "type": "function"
    },
    {
      "inputs": [
        {
          "internalType": "uint256",
          "name": "_minStakePropose",
          "type": "uint256"
        }
      ],
      "name": "setMinStakePropose",
      "outputs": [],
      "stateMutability": "nonpayable",
      "type": "function"
    },
    {
      "inputs": [
        {
          "internalType": "uint256",
          "name": "_minStakeVote",
          "type": "uint256"
        }
      ],
      "name": "setMinStakeVote",
      "outputs": [],
      "stateMutability": "nonpayable",
      "type": "function"
    },
    {
      "inputs": [
        {
          "internalType": "uint256",
          "name": "_proposalDuration",
          "type": "uint256"
        }
      ],
      "name": "setProposalDuration",
      "outputs": [],
      "stateMutability": "nonpayable",
      "type": "function"
    },
    {
      "inputs": [
        {
          "internalType": "uint256",
          "name": "_tokenPriceWei",
          "type": "uint256"
        }
      ],
      "name": "setTokenPriceWei",
      "outputs": [],
      "stateMutability": "nonpayable",
      "type": "function"
    },
    {
      "inputs": [
        {
          "internalType": "uint256",
          "name": "_voteUnit",
          "type": "uint256"
        }
      ],
      "name": "setVoteUnit",
      "outputs": [],
      "stateMutability": "nonpayable",
      "type": "function"
    },
    {
      "inputs": [
        {
          "internalType": "address",
          "name": "strategy",
          "type": "address"
        }
      ],
      "name": "setVotingStrategy",
      "outputs": [],
      "stateMutability": "nonpayable",
      "type": "function"
    },
    {
      "inputs": [
        {
          "internalType": "uint256",
          "name": "amount",
          "type": "uint256"
        }
      ],
      "name": "stakeForProposal",
      "outputs": [],
      "stateMutability": "nonpayable",
      "type": "function"
    },
    {
      "inputs": [
        {
          "internalType": "uint256",
          "name": "amount",
          "type": "uint256"
        }
      ],
      "name": "stakeForVote",
      "outputs": [],
      "stateMutability": "nonpayable",
      "type": "function"
    },
    {
      "inputs": [
        {
          "internalType": "address",
          "name": "",
          "type": "address"
        }
      ],
      "name": "stakePropose",
      "outputs": [
        {
          "internalType": "uint256",
          "name": "",
          "type": "uint256"
        }
      ],
      "stateMutability": "view",
      "type": "function"
    },
    {
      "inputs": [
        {
          "internalType": "address",
          "name": "",
          "type": "address"
        }
      ],
      "name": "stakeVotes",
      "outputs": [
        {
          "internalType": "uint256",
          "name": "",
          "type": "uint256"
        }
      ],
      "stateMutability": "view",
      "type": "function"
    },
    {
      "inputs": [],
      "name": "token",
      "outputs": [
        {
          "internalType": "contract VotingToken",
          "name": "",
          "type": "address"
        }
      ],
      "stateMutability": "view",
      "type": "function"
    },
    {
      "inputs": [],
      "name": "tokenPriceWei",
      "outputs": [
        {
          "internalType": "uint256",
          "name": "",
          "type": "uint256"
        }
      ],
      "stateMutability": "view",
      "type": "function"
    },
    {
      "inputs": [],
      "name": "unstakeProposals",
      "outputs": [],
      "stateMutability": "nonpayable",
      "type": "function"
    },
    {
      "inputs": [],
      "name": "unstakeVotes",
      "outputs": [],
      "stateMutability": "nonpayable",
      "type": "function"
    },
    {
      "inputs": [
        {
          "internalType": "uint256",
          "name": "proposalId",
          "type": "uint256"
        },
        {
          "internalType": "bool",
          "name": "support",
          "type": "bool"
        }
      ],
      "name": "vote",
      "outputs": [],
      "stateMutability": "nonpayable",
      "type": "function"
    },
    {
      "inputs": [
        {
          "internalType": "address",
          "name": "",
          "type": "address"
        }
      ],
      "name": "voteStakeUnlock",
      "outputs": [
        {
          "internalType": "uint256",
          "name": "",
          "type": "uint256"
        }
      ],
      "stateMutability": "view",
      "type": "function"
    },
    {
      "inputs": [],
      "name": "voteUnit",
      "outputs": [
        {
          "internalType": "uint256",
          "name": "",
          "type": "uint256"
        }
      ],
      "stateMutability": "view",
      "type": "function"
    },
    {
      "inputs": [],
      "name": "votingStrategy",
      "outputs": [
        {
          "internalType": "contract IVotingStrategy",
          "name": "",
          "type": "address"
        }
      ],
      "stateMutability": "view",
      "type": "function"
    }
  ],
  "bytecode": "0x60806040523480156200001157600080fd5b5060405162004c7238038062004c728339818101604052810190620000379190620003c0565b8787308360405162000049906200017f565b62000058949392919062000535565b604051809103906000f08015801562000075573d6000803e3d6000fd5b506000806101000a81548173ffffffffffffffffffffffffffffffffffffffff021916908373ffffffffffffffffffffffffffffffffffffffff1602179055508560028190555084600381905550836004819055508260058190555081600160006101000a81548173ffffffffffffffffffffffffffffffffffffffff021916908373ffffffffffffffffffffffffffffffffffffffff16021790555080600e60006101000a81548173ffffffffffffffffffffffffffffffffffffffff021916908373ffffffffffffffffffffffffffffffffffffffff160217905550670de0b6b3a7640000600681905550678ac7230489e80000600781905550505050505050505062000590565b6117d4806200349e83390190565b6000604051905090565b600080fd5b600080fd5b600080fd5b600080fd5b6000601f19601f8301169050919050565b7f4e487b7100000000000000000000000000000000000000000000000000000000600052604160045260246000fd5b620001f682620001ab565b810181811067ffffffffffffffff82111715620002185762000217620001bc565b5b80604052505050565b60006200022d6200018d565b90506200023b8282620001eb565b919050565b600067ffffffffffffffff8211156200025e576200025d620001bc565b5b6200026982620001ab565b9050602081019050919050565b60005b838110156200029657808201518184015260208101905062000279565b60008484015250505050565b6000620002b9620002b38462000240565b62000221565b905082815260208101848484011115620002d857620002d7620001a6565b5b620002e584828562000276565b509392505050565b600082601f830112620003055762000304620001a1565b5b815162000317848260208601620002a2565b91505092915050565b6000819050919050565b620003358162000320565b81146200034157600080fd5b50565b60008151905062000355816200032a565b92915050565b600073ffffffffffffffffffffffffffffffffffffffff82169050919050565b600062000388826200035b565b9050919050565b6200039a816200037b565b8114620003a657600080fd5b50565b600081519050620003ba816200038f565b92915050565b600080600080600080600080610100898b031215620003e457620003e362000197565b5b600089015167ffffffffffffffff8111156200040557620004046200019c565b5b620004138b828c01620002ed565b985050602089015167ffffffffffffffff8111156200043757620004366200019c565b5b620004458b828c01620002ed565b9750506040620004588b828c0162000344565b96505060606200046b8b828c0162000344565b95505060806200047e8b828c0162000344565b94505060a0620004918b828c0162000344565b93505060c0620004a48b828c01620003a9565b92505060e0620004b78b828c01620003a9565b9150509295985092959890939650565b600081519050919050565b600082825260208201905092915050565b6000620004f082620004c7565b620004fc8185620004d2565b93506200050e81856020860162000276565b6200051981620001ab565b840191505092915050565b6200052f816200037b565b82525050565b60006080820190508181036000830152620005518187620004e3565b90508181036020830152620005678186620004e3565b905062000578604083018562000524565b62000587606083018462000524565b95945050505050565b612efe80620005a06000396000f3fe6080604052600436106101d85760003560e01c80638da5cb5b11610102578063d289dcbf11610095578063e9fab05511610064578063e9fab05514610679578063fb5c8bfd146106a4578063fc0c546a146106cf578063fdc7cce3146106fa576101d8565b8063d289dcbf146105bd578063d32f1c40146105e6578063da35c66414610623578063dfcbd8f41461064e576101d8565b8063bb6c74b7116100d1578063bb6c74b714610524578063c9d27afe1461054d578063cec7247914610576578063d0febe4c146105b3576101d8565b80638da5cb5b1461047e57806397304ced146104a957806398fe5691146104d2578063b8f96b6f146104fb576101d8565b806360855bf71161017a5780637bd58bee116101495780637bd58bee146103c65780637d007ac1146103ef57806381889499146104185780638c91b63814610441576101d8565b806360855bf71461032057806365e481e2146103495780637297bbe714610372578063779972da1461039d576101d8565b806334f89012116101b657806334f89012146102785780633fd8b02f146102b5578063479f738a146102e05780635652077c146102f7576101d8565b8063013cf08b146101dd57806305d0f15b14610222578063301099621461024d575b600080fd5b3480156101e957600080fd5b5061020460048036038101906101ff9190611ef1565b610711565b60405161021999989796959493929190612019565b60405180910390f35b34801561022e57600080fd5b5061023761089c565b60405161024491906120b4565b60405180910390f35b34801561025957600080fd5b506102626108a2565b60405161026f91906120b4565b60405180910390f35b34801561028457600080fd5b5061029f600480360381019061029a91906120fb565b6108a8565b6040516102ac91906120b4565b60405180910390f35b3480156102c157600080fd5b506102ca6108c0565b6040516102d791906120b4565b60405180910390f35b3480156102ec57600080fd5b506102f56108c6565b005b34801561030357600080fd5b5061031e60048036038101906103199190611ef1565b610ab1565b005b34801561032c57600080fd5b5061034760048036038101906103429190611ef1565b610d08565b005b34801561035557600080fd5b50610370600480360381019061036b919061225d565b610da2565b005b34801561037e57600080fd5b50610387610f35565b60405161039491906120b4565b60405180910390f35b3480156103a957600080fd5b506103c460048036038101906103bf9190611ef1565b610f3b565b005b3480156103d257600080fd5b506103ed60048036038101906103e89190611ef1565b610fd5565b005b3480156103fb57600080fd5b5061041660048036038101906104119190611ef1565b6111a3565b005b34801561042457600080fd5b5061043f600480360381019061043a9190611ef1565b61123d565b005b34801561044d57600080fd5b50610468600480360381019061046391906120fb565b6112d7565b60405161047591906120b4565b60405180910390f35b34801561048a57600080fd5b506104936112ef565b6040516104a091906122d5565b60405180910390f35b3480156104b557600080fd5b506104d060048036038101906104cb9190611ef1565b611315565b005b3480156104de57600080fd5b506104f960048036038101906104f49190611ef1565b611435565b005b34801561050757600080fd5b50610522600480360381019061051d9190611ef1565b611603565b005b34801561053057600080fd5b5061054b60048036038101906105469190611ef1565b61169d565b005b34801561055957600080fd5b50610574600480360381019061056f919061231c565b611737565b005b34801561058257600080fd5b5061059d600480360381019061059891906120fb565b6119aa565b6040516105aa91906120b4565b60405180910390f35b6105bb6119c2565b005b3480156105c957600080fd5b506105e460048036038101906105df91906120fb565b611bbd565b005b3480156105f257600080fd5b5061060d600480360381019061060891906120fb565b611c44565b60405161061a91906120b4565b60405180910390f35b34801561062f57600080fd5b50610638611c5c565b60405161064591906120b4565b60405180910390f35b34801561065a57600080fd5b50610663611c66565b60405161067091906120b4565b60405180910390f35b34801561068557600080fd5b5061068e611c6c565b60405161069b91906120b4565b60405180910390f35b3480156106b057600080fd5b506106b9611c72565b6040516106c691906123bb565b60405180910390f35b3480156106db57600080fd5b506106e4611c98565b6040516106f191906123f7565b60405180910390f35b34801561070657600080fd5b5061070f611cbc565b005b60096020528060005260406000206000915090508060000154908060010160009054906101000a900473ffffffffffffffffffffffffffffffffffffffff169080600201805461076090612441565b80601f016020809104026020016040519081016040528092919081815260200182805461078c90612441565b80156107d95780601f106107ae576101008083540402835291602001916107d9565b820191906000526020600020905b8154815290600101906020018083116107bc57829003601f168201915b5050505050908060030180546107ee90612441565b80601f016020809104026020016040519081016040528092919081815260200182805461081a90612441565b80156108675780601f1061083c57610100808354040283529160200191610867565b820191906000526020600020905b81548152906001019060200180831161084a57829003601f168201915b5050505050908060040154908060050154908060060154908060070154908060080160009054906101000a900460ff16905089565b60025481565b60045481565b600d6020528060005260406000206000915090505481565b60035481565b600b60003373ffffffffffffffffffffffffffffffffffffffff1673ffffffffffffffffffffffffffffffffffffffff16815260200190815260200160002054421015610948576040517f08c379a000000000000000000000000000000000000000000000000000000000815260040161093f906124be565b60405180910390fd5b6000600a60003373ffffffffffffffffffffffffffffffffffffffff1673ffffffffffffffffffffffffffffffffffffffff1681526020019081526020016000205490506000600a60003373ffffffffffffffffffffffffffffffffffffffff1673ffffffffffffffffffffffffffffffffffffffff1681526020019081526020016000208190555060008054906101000a900473ffffffffffffffffffffffffffffffffffffffff1673ffffffffffffffffffffffffffffffffffffffff1663a9059cbb33836040518363ffffffff1660e01b8152600401610a2c9291906124de565b6020604051808303816000875af1158015610a4b573d6000803e3d6000fd5b505050506040513d601f19601f82011682018060405250810190610a6f919061251c565b610aae576040517f08c379a0000000000000000000000000000000000000000000000000000000008152600401610aa590612595565b60405180910390fd5b50565b60006009600083815260200190815260200160002090508060050154421015610b0f576040517f08c379a0000000000000000000000000000000000000000000000000000000008152600401610b0690612601565b60405180910390fd5b8060080160009054906101000a900460ff1615610b61576040517f08c379a0000000000000000000000000000000000000000000000000000000008152600401610b589061266d565b60405180910390fd5b600060055460008054906101000a900473ffffffffffffffffffffffffffffffffffffffff1673ffffffffffffffffffffffffffffffffffffffff166318160ddd6040518163ffffffff1660e01b8152600401602060405180830381865afa158015610bd1573d6000803e3d6000fd5b505050506040513d601f19601f82011682018060405250810190610bf591906126a2565b610bff919061272d565b90506000600160009054906101000a900473ffffffffffffffffffffffffffffffffffffffff1673ffffffffffffffffffffffffffffffffffffffff1663d95baddf84600601548560070154856040518463ffffffff1660e01b8152600401610c6a9392919061275e565b602060405180830381865afa158015610c87573d6000803e3d6000fd5b505050506040513d601f19601f82011682018060405250810190610cab919061251c565b905060018360080160006101000a81548160ff021916908315150217905550837f82693b732f9696c8a914b820dd6c52544bd61b844bbd4c8707253df9340cf6b782604051610cfa9190612795565b60405180910390a250505050565b600e60009054906101000a900473ffffffffffffffffffffffffffffffffffffffff1673ffffffffffffffffffffffffffffffffffffffff163373ffffffffffffffffffffffffffffffffffffffff1614610d98576040517f08c379a0000000000000000000000000000000000000000000000000000000008152600401610d8f906127fc565b60405180910390fd5b8060078190555050565b600754600c60003373ffffffffffffffffffffffffffffffffffffffff1673ffffffffffffffffffffffffffffffffffffffff168152602001908152602001600020541015610e26576040517f08c379a0000000000000000000000000000000000000000000000000000000008152600401610e1d90612868565b60405180910390fd5b60086000815480929190610e3990612888565b9190505550600060096000600854815260200190815260200160002090506008548160000181905550338160010160006101000a81548173ffffffffffffffffffffffffffffffffffffffff021916908373ffffffffffffffffffffffffffffffffffffffff16021790555082816002019081610eb69190612a72565b5081816003019081610ec89190612a72565b5042816004018190555060045442610ee09190612b44565b81600501819055503373ffffffffffffffffffffffffffffffffffffffff1681600001547fcd423cc1203c0af96b9b3d68d73b3064a69de2d14450bb7181c5e5df2132b35860405160405180910390a3505050565b60055481565b600e60009054906101000a900473ffffffffffffffffffffffffffffffffffffffff1673ffffffffffffffffffffffffffffffffffffffff163373ffffffffffffffffffffffffffffffffffffffff1614610fcb576040517f08c379a0000000000000000000000000000000000000000000000000000000008152600401610fc2906127fc565b60405180910390fd5b8060038190555050565b60075481101561101a576040517f08c379a000000000000000000000000000000000000000000000000000000000815260040161101190612868565b60405180910390fd5b60008054906101000a900473ffffffffffffffffffffffffffffffffffffffff1673ffffffffffffffffffffffffffffffffffffffff166323b872dd3330846040518463ffffffff1660e01b815260040161107793929190612b78565b6020604051808303816000875af1158015611096573d6000803e3d6000fd5b505050506040513d601f19601f820116820180604052508101906110ba919061251c565b6110f9576040517f08c379a00000000000000000000000000000000000000000000000000000000081526004016110f090612595565b60405180910390fd5b80600c60003373ffffffffffffffffffffffffffffffffffffffff1673ffffffffffffffffffffffffffffffffffffffff16815260200190815260200160002060008282546111489190612b44565b925050819055506003544261115d9190612b44565b600d60003373ffffffffffffffffffffffffffffffffffffffff1673ffffffffffffffffffffffffffffffffffffffff1681526020019081526020016000208190555050565b600e60009054906101000a900473ffffffffffffffffffffffffffffffffffffffff1673ffffffffffffffffffffffffffffffffffffffff163373ffffffffffffffffffffffffffffffffffffffff1614611233576040517f08c379a000000000000000000000000000000000000000000000000000000000815260040161122a906127fc565b60405180910390fd5b8060048190555050565b600e60009054906101000a900473ffffffffffffffffffffffffffffffffffffffff1673ffffffffffffffffffffffffffffffffffffffff163373ffffffffffffffffffffffffffffffffffffffff16146112cd576040517f08c379a00000000000000000000000000000000000000000000000000000000081526004016112c4906127fc565b60405180910390fd5b8060068190555050565b600a6020528060005260406000206000915090505481565b600e60009054906101000a900473ffffffffffffffffffffffffffffffffffffffff1681565b600e60009054906101000a900473ffffffffffffffffffffffffffffffffffffffff1673ffffffffffffffffffffffffffffffffffffffff163373ffffffffffffffffffffffffffffffffffffffff16146113a5576040517f08c379a000000000000000000000000000000000000000000000000000000000815260040161139c906127fc565b60405180910390fd5b60008054906101000a900473ffffffffffffffffffffffffffffffffffffffff1673ffffffffffffffffffffffffffffffffffffffff166340c10f1930836040518363ffffffff1660e01b81526004016114009291906124de565b600060405180830381600087803b15801561141a57600080fd5b505af115801561142e573d6000803e3d6000fd5b5050505050565b60065481101561147a576040517f08c379a000000000000000000000000000000000000000000000000000000000815260040161147190612bfb565b60405180910390fd5b60008054906101000a900473ffffffffffffffffffffffffffffffffffffffff1673ffffffffffffffffffffffffffffffffffffffff166323b872dd3330846040518463ffffffff1660e01b81526004016114d793929190612b78565b6020604051808303816000875af11580156114f6573d6000803e3d6000fd5b505050506040513d601f19601f8201168201806040525081019061151a919061251c565b611559576040517f08c379a000000000000000000000000000000000000000000000000000000000815260040161155090612595565b60405180910390fd5b80600a60003373ffffffffffffffffffffffffffffffffffffffff1673ffffffffffffffffffffffffffffffffffffffff16815260200190815260200160002060008282546115a89190612b44565b92505081905550600354426115bd9190612b44565b600b60003373ffffffffffffffffffffffffffffffffffffffff1673ffffffffffffffffffffffffffffffffffffffff1681526020019081526020016000208190555050565b600e60009054906101000a900473ffffffffffffffffffffffffffffffffffffffff1673ffffffffffffffffffffffffffffffffffffffff163373ffffffffffffffffffffffffffffffffffffffff1614611693576040517f08c379a000000000000000000000000000000000000000000000000000000000815260040161168a906127fc565b60405180910390fd5b8060058190555050565b600e60009054906101000a900473ffffffffffffffffffffffffffffffffffffffff1673ffffffffffffffffffffffffffffffffffffffff163373ffffffffffffffffffffffffffffffffffffffff161461172d576040517f08c379a0000000000000000000000000000000000000000000000000000000008152600401611724906127fc565b60405180910390fd5b8060028190555050565b600060096000848152602001908152602001600020905080600501544210611794576040517f08c379a000000000000000000000000000000000000000000000000000000000815260040161178b90612c67565b60405180910390fd5b8060090160003373ffffffffffffffffffffffffffffffffffffffff1673ffffffffffffffffffffffffffffffffffffffff16815260200190815260200160002060009054906101000a900460ff1615611823576040517f08c379a000000000000000000000000000000000000000000000000000000000815260040161181a90612cd3565b60405180910390fd5b6000600554600a60003373ffffffffffffffffffffffffffffffffffffffff1673ffffffffffffffffffffffffffffffffffffffff16815260200190815260200160002054611872919061272d565b9050600081116118b7576040517f08c379a00000000000000000000000000000000000000000000000000000000081526004016118ae90612d3f565b60405180910390fd5b82156118dd57808260060160008282546118d19190612b44565b925050819055506118f9565b808260070160008282546118f19190612b44565b925050819055505b60018260090160003373ffffffffffffffffffffffffffffffffffffffff1673ffffffffffffffffffffffffffffffffffffffff16815260200190815260200160002060006101000a81548160ff0219169083151502179055503373ffffffffffffffffffffffffffffffffffffffff16847f7c2de587c00d75474a0c6c6fa96fd3b45dc974cd4e8a75f712bb84c950dce1b5858460405161199c929190612d5f565b60405180910390a350505050565b600b6020528060005260406000206000915090505481565b600254341015611a07576040517f08c379a00000000000000000000000000000000000000000000000000000000081526004016119fe90612dd4565b60405180910390fd5b6000600254670de0b6b3a764000034611a209190612df4565b611a2a919061272d565b905060008060009054906101000a900473ffffffffffffffffffffffffffffffffffffffff1673ffffffffffffffffffffffffffffffffffffffff166370a08231306040518263ffffffff1660e01b8152600401611a8891906122d5565b602060405180830381865afa158015611aa5573d6000803e3d6000fd5b505050506040513d601f19601f82011682018060405250810190611ac991906126a2565b905080821115611ad7578091505b60008211611b1a576040517f08c379a0000000000000000000000000000000000000000000000000000000008152600401611b1190612ea8565b60405180910390fd5b60008054906101000a900473ffffffffffffffffffffffffffffffffffffffff1673ffffffffffffffffffffffffffffffffffffffff1663a9059cbb33846040518363ffffffff1660e01b8152600401611b759291906124de565b6020604051808303816000875af1158015611b94573d6000803e3d6000fd5b505050506040513d601f19601f82011682018060405250810190611bb8919061251c565b505050565b80600160006101000a81548173ffffffffffffffffffffffffffffffffffffffff021916908373ffffffffffffffffffffffffffffffffffffffff1602179055508073ffffffffffffffffffffffffffffffffffffffff167fafd1cdc355e15bfc9038294be1c6203ce953704fda8c991bebe78ddd4d5420d160405160405180910390a250565b600c6020528060005260406000206000915090505481565b6000600854905090565b60065481565b60075481565b600160009054906101000a900473ffffffffffffffffffffffffffffffffffffffff1681565b60008054906101000a900473ffffffffffffffffffffffffffffffffffffffff1681565b600d60003373ffffffffffffffffffffffffffffffffffffffff1673ffffffffffffffffffffffffffffffffffffffff16815260200190815260200160002054421015611d3e576040517f08c379a0000000000000000000000000000000000000000000000000000000008152600401611d35906124be565b60405180910390fd5b6000600c60003373ffffffffffffffffffffffffffffffffffffffff1673ffffffffffffffffffffffffffffffffffffffff1681526020019081526020016000205490506000600c60003373ffffffffffffffffffffffffffffffffffffffff1673ffffffffffffffffffffffffffffffffffffffff1681526020019081526020016000208190555060008054906101000a900473ffffffffffffffffffffffffffffffffffffffff1673ffffffffffffffffffffffffffffffffffffffff1663a9059cbb33836040518363ffffffff1660e01b8152600401611e229291906124de565b6020604051808303816000875af1158015611e41573d6000803e3d6000fd5b505050506040513d601f19601f82011682018060405250810190611e65919061251c565b611ea4576040517f08c379a0000000000000000000000000000000000000000000000000000000008152600401611e9b90612595565b60405180910390fd5b50565b6000604051905090565b600080fd5b600080fd5b6000819050919050565b611ece81611ebb565b8114611ed957600080fd5b50565b600081359050611eeb81611ec5565b92915050565b600060208284031215611f0757611f06611eb1565b5b6000611f1584828501611edc565b91505092915050565b611f2781611ebb565b82525050565b600073ffffffffffffffffffffffffffffffffffffffff82169050919050565b6000611f5882611f2d565b9050919050565b611f6881611f4d565b82525050565b600081519050919050565b600082825260208201905092915050565b60005b83811015611fa8578082015181840152602081019050611f8d565b60008484015250505050565b6000601f19601f8301169050919050565b6000611fd082611f6e565b611fda8185611f79565b9350611fea818560208601611f8a565b611ff381611fb4565b840191505092915050565b60008115159050919050565b61201381611ffe565b82525050565b60006101208201905061202f600083018c611f1e565b61203c602083018b611f5f565b818103604083015261204e818a611fc5565b905081810360608301526120628189611fc5565b90506120716080830188611f1e565b61207e60a0830187611f1e565b61208b60c0830186611f1e565b61209860e0830185611f1e565b6120a661010083018461200a565b9a9950505050505050505050565b60006020820190506120c96000830184611f1e565b92915050565b6120d881611f4d565b81146120e357600080fd5b50565b6000813590506120f5816120cf565b92915050565b60006020828403121561211157612110611eb1565b5b600061211f848285016120e6565b91505092915050565b600080fd5b600080fd5b7f4e487b7100000000000000000000000000000000000000000000000000000000600052604160045260246000fd5b61216a82611fb4565b810181811067ffffffffffffffff8211171561218957612188612132565b5b80604052505050565b600061219c611ea7565b90506121a88282612161565b919050565b600067ffffffffffffffff8211156121c8576121c7612132565b5b6121d182611fb4565b9050602081019050919050565b82818337600083830152505050565b60006122006121fb846121ad565b612192565b90508281526020810184848401111561221c5761221b61212d565b5b6122278482856121de565b509392505050565b600082601f83011261224457612243612128565b5b81356122548482602086016121ed565b91505092915050565b6000806040838503121561227457612273611eb1565b5b600083013567ffffffffffffffff81111561229257612291611eb6565b5b61229e8582860161222f565b925050602083013567ffffffffffffffff8111156122bf576122be611eb6565b5b6122cb8582860161222f565b9150509250929050565b60006020820190506122ea6000830184611f5f565b92915050565b6122f981611ffe565b811461230457600080fd5b50565b600081359050612316816122f0565b92915050565b6000806040838503121561233357612332611eb1565b5b600061234185828601611edc565b925050602061235285828601612307565b9150509250929050565b6000819050919050565b600061238161237c61237784611f2d565b61235c565b611f2d565b9050919050565b600061239382612366565b9050919050565b60006123a582612388565b9050919050565b6123b58161239a565b82525050565b60006020820190506123d060008301846123ac565b92915050565b60006123e182612388565b9050919050565b6123f1816123d6565b82525050565b600060208201905061240c60008301846123e8565b92915050565b7f4e487b7100000000000000000000000000000000000000000000000000000000600052602260045260246000fd5b6000600282049050600182168061245957607f821691505b60208210810361246c5761246b612412565b5b50919050565b7f4c6f636b20706572696f64206e6f742070617373656400000000000000000000600082015250565b60006124a8601683611f79565b91506124b382612472565b602082019050919050565b600060208201905081810360008301526124d78161249b565b9050919050565b60006040820190506124f36000830185611f5f565b6125006020830184611f1e565b9392505050565b600081519050612516816122f0565b92915050565b60006020828403121561253257612531611eb1565b5b600061254084828501612507565b91505092915050565b7f5472616e73666572206661696c65640000000000000000000000000000000000600082015250565b600061257f600f83611f79565b915061258a82612549565b602082019050919050565b600060208201905081810360008301526125ae81612572565b9050919050565b7f566f74696e67207374696c6c2061637469766500000000000000000000000000600082015250565b60006125eb601383611f79565b91506125f6826125b5565b602082019050919050565b6000602082019050818103600083015261261a816125de565b9050919050565b7f416c72656164792066696e616c697a6564000000000000000000000000000000600082015250565b6000612657601183611f79565b915061266282612621565b602082019050919050565b600060208201905081810360008301526126868161264a565b9050919050565b60008151905061269c81611ec5565b92915050565b6000602082840312156126b8576126b7611eb1565b5b60006126c68482850161268d565b91505092915050565b7f4e487b7100000000000000000000000000000000000000000000000000000000600052601260045260246000fd5b7f4e487b7100000000000000000000000000000000000000000000000000000000600052601160045260246000fd5b600061273882611ebb565b915061274383611ebb565b925082612753576127526126cf565b5b828204905092915050565b60006060820190506127736000830186611f1e565b6127806020830185611f1e565b61278d6040830184611f1e565b949350505050565b60006020820190506127aa600083018461200a565b92915050565b7f4f6e6c79206f776e657200000000000000000000000000000000000000000000600082015250565b60006127e6600a83611f79565b91506127f1826127b0565b602082019050919050565b60006020820190508181036000830152612815816127d9565b9050919050565b7f4d696e696d6f20706172612070726f706f6e6572000000000000000000000000600082015250565b6000612852601483611f79565b915061285d8261281c565b602082019050919050565b6000602082019050818103600083015261288181612845565b9050919050565b600061289382611ebb565b91507fffffffffffffffffffffffffffffffffffffffffffffffffffffffffffffffff82036128c5576128c46126fe565b5b600182019050919050565b60008190508160005260206000209050919050565b60006020601f8301049050919050565b600082821b905092915050565b6000600883026129327fffffffffffffffffffffffffffffffffffffffffffffffffffffffffffffffff826128f5565b61293c86836128f5565b95508019841693508086168417925050509392505050565b600061296f61296a61296584611ebb565b61235c565b611ebb565b9050919050565b6000819050919050565b61298983612954565b61299d61299582612976565b848454612902565b825550505050565b600090565b6129b26129a5565b6129bd818484612980565b505050565b5b818110156129e1576129d66000826129aa565b6001810190506129c3565b5050565b601f821115612a26576129f7816128d0565b612a00846128e5565b81016020851015612a0f578190505b612a23612a1b856128e5565b8301826129c2565b50505b505050565b600082821c905092915050565b6000612a4960001984600802612a2b565b1980831691505092915050565b6000612a628383612a38565b9150826002028217905092915050565b612a7b82611f6e565b67ffffffffffffffff811115612a9457612a93612132565b5b612a9e8254612441565b612aa98282856129e5565b600060209050601f831160018114612adc5760008415612aca578287015190505b612ad48582612a56565b865550612b3c565b601f198416612aea866128d0565b60005b82811015612b1257848901518255600182019150602085019450602081019050612aed565b86831015612b2f5784890151612b2b601f891682612a38565b8355505b6001600288020188555050505b505050505050565b6000612b4f82611ebb565b9150612b5a83611ebb565b9250828201905080821115612b7257612b716126fe565b5b92915050565b6000606082019050612b8d6000830186611f5f565b612b9a6020830185611f5f565b612ba76040830184611f1e565b949350505050565b7f4d696e696d6f207061726120766f746172000000000000000000000000000000600082015250565b6000612be5601183611f79565b9150612bf082612baf565b602082019050919050565b60006020820190508181036000830152612c1481612bd8565b9050919050565b7f566f74696e6720706572696f6420656e64656400000000000000000000000000600082015250565b6000612c51601383611f79565b9150612c5c82612c1b565b602082019050919050565b60006020820190508181036000830152612c8081612c44565b9050919050565b7f416c726561647920766f74656400000000000000000000000000000000000000600082015250565b6000612cbd600d83611f79565b9150612cc882612c87565b602082019050919050565b60006020820190508181036000830152612cec81612cb0565b9050919050565b7f4e6f207374616b656420746f6b656e7320746f20766f74650000000000000000600082015250565b6000612d29601883611f79565b9150612d3482612cf3565b602082019050919050565b60006020820190508181036000830152612d5881612d1c565b9050919050565b6000604082019050612d74600083018561200a565b612d816020830184611f1e565b9392505050565b7f496e73756666696369656e742045544800000000000000000000000000000000600082015250565b6000612dbe601083611f79565b9150612dc982612d88565b602082019050919050565b60006020820190508181036000830152612ded81612db1565b9050919050565b6000612dff82611ebb565b9150612e0a83611ebb565b9250828202612e1881611ebb565b91508282048414831517612e2f57612e2e6126fe565b5b5092915050565b7f4e6f2068617920746f6b656e7320646973706f6e69626c65732070617261206360008201527f6f6d707261720000000000000000000000000000000000000000000000000000602082015250565b6000612e92602683611f79565b9150612e9d82612e36565b604082019050919050565b60006020820190508181036000830152612ec181612e85565b905091905056fea264697066735822122047fff2e2177a25bc8cdf2832eb43c2d7491d98575a3198d06f3647848338950b64736f6c6343000814003360806040523480156200001157600080fd5b50604051620017d4380380620017d48339818101604052810190620000379190620002e3565b838381600390816200004a9190620005de565b5080600490816200005c9190620005de565b50505081600560006101000a81548173ffffffffffffffffffffffffffffffffffffffff021916908373ffffffffffffffffffffffffffffffffffffffff16021790555080600660006101000a81548173ffffffffffffffffffffffffffffffffffffffff021916908373ffffffffffffffffffffffffffffffffffffffff16021790555050505050620006c5565b6000604051905090565b600080fd5b600080fd5b600080fd5b600080fd5b6000601f19601f8301169050919050565b7f4e487b7100000000000000000000000000000000000000000000000000000000600052604160045260246000fd5b620001548262000109565b810181811067ffffffffffffffff821117156200017657620001756200011a565b5b80604052505050565b60006200018b620000eb565b905062000199828262000149565b919050565b600067ffffffffffffffff821115620001bc57620001bb6200011a565b5b620001c78262000109565b9050602081019050919050565b60005b83811015620001f4578082015181840152602081019050620001d7565b60008484015250505050565b60006200021762000211846200019e565b6200017f565b90508281526020810184848401111562000236576200023562000104565b5b62000243848285620001d4565b509392505050565b600082601f830112620002635762000262620000ff565b5b81516200027584826020860162000200565b91505092915050565b600073ffffffffffffffffffffffffffffffffffffffff82169050919050565b6000620002ab826200027e565b9050919050565b620002bd816200029e565b8114620002c957600080fd5b50565b600081519050620002dd81620002b2565b92915050565b600080600080608085870312156200030057620002ff620000f5565b5b600085015167ffffffffffffffff811115620003215762000320620000fa565b5b6200032f878288016200024b565b945050602085015167ffffffffffffffff811115620003535762000352620000fa565b5b62000361878288016200024b565b93505060406200037487828801620002cc565b92505060606200038787828801620002cc565b91505092959194509250565b600081519050919050565b7f4e487b7100000000000000000000000000000000000000000000000000000000600052602260045260246000fd5b60006002820490506001821680620003e657607f821691505b602082108103620003fc57620003fb6200039e565b5b50919050565b60008190508160005260206000209050919050565b60006020601f8301049050919050565b600082821b905092915050565b600060088302620004667fffffffffffffffffffffffffffffffffffffffffffffffffffffffffffffffff8262000427565b62000472868362000427565b95508019841693508086168417925050509392505050565b6000819050919050565b6000819050919050565b6000620004bf620004b9620004b3846200048a565b62000494565b6200048a565b9050919050565b6000819050919050565b620004db836200049e565b620004f3620004ea82620004c6565b84845462000434565b825550505050565b600090565b6200050a620004fb565b62000517818484620004d0565b505050565b5b818110156200053f576200053360008262000500565b6001810190506200051d565b5050565b601f8211156200058e57620005588162000402565b620005638462000417565b8101602085101562000573578190505b6200058b620005828562000417565b8301826200051c565b50505b505050565b600082821c905092915050565b6000620005b36000198460080262000593565b1980831691505092915050565b6000620005ce8383620005a0565b9150826002028217905092915050565b620005e98262000393565b67ffffffffffffffff8111156200060557620006046200011a565b5b620006118254620003cd565b6200061e82828562000543565b600060209050601f83116001811462000656576000841562000641578287015190505b6200064d8582620005c0565b865550620006bd565b601f198416620006668662000402565b60005b82811015620006905784890151825560018201915060208501945060208101905062000669565b86831015620006b05784890151620006ac601f891682620005a0565b8355505b6001600288020188555050505b505050505050565b6110ff80620006d56000396000f3fe608060405234801561001057600080fd5b50600436106100b45760003560e01c80634162169f116100715780634162169f1461018f57806370a08231146101ad5780638da5cb5b146101dd57806395d89b41146101fb578063a9059cbb14610219578063dd62ed3e14610249576100b4565b806306fdde03146100b9578063095ea7b3146100d757806318160ddd1461010757806323b872dd14610125578063313ce5671461015557806340c10f1914610173575b600080fd5b6100c1610279565b6040516100ce9190610ce7565b60405180910390f35b6100f160048036038101906100ec9190610da2565b61030b565b6040516100fe9190610dfd565b60405180910390f35b61010f61032e565b60405161011c9190610e27565b60405180910390f35b61013f600480360381019061013a9190610e42565b610338565b60405161014c9190610dfd565b60405180910390f35b61015d610367565b60405161016a9190610eb1565b60405180910390f35b61018d60048036038101906101889190610da2565b610370565b005b610197610466565b6040516101a49190610edb565b60405180910390f35b6101c760048036038101906101c29190610ef6565b61048c565b6040516101d49190610e27565b60405180910390f35b6101e56104d4565b6040516101f29190610edb565b60405180910390f35b6102036104fa565b6040516102109190610ce7565b60405180910390f35b610233600480360381019061022e9190610da2565b61058c565b6040516102409190610dfd565b60405180910390f35b610263600480360381019061025e9190610f23565b6105af565b6040516102709190610e27565b60405180910390f35b60606003805461028890610f92565b80601f01602080910402602001604051908101604052809291908181526020018280546102b490610f92565b80156103015780601f106102d657610100808354040283529160200191610301565b820191906000526020600020905b8154815290600101906020018083116102e457829003601f168201915b5050505050905090565b600080610316610636565b905061032381858561063e565b600191505092915050565b6000600254905090565b600080610343610636565b9050610350858285610650565b61035b8585856106e5565b60019150509392505050565b60006012905090565b600560009054906101000a900473ffffffffffffffffffffffffffffffffffffffff1673ffffffffffffffffffffffffffffffffffffffff163373ffffffffffffffffffffffffffffffffffffffff1614806104195750600660009054906101000a900473ffffffffffffffffffffffffffffffffffffffff1673ffffffffffffffffffffffffffffffffffffffff163373ffffffffffffffffffffffffffffffffffffffff16145b610458576040517f08c379a000000000000000000000000000000000000000000000000000000000815260040161044f9061100f565b60405180910390fd5b61046282826107d9565b5050565b600560009054906101000a900473ffffffffffffffffffffffffffffffffffffffff1681565b60008060008373ffffffffffffffffffffffffffffffffffffffff1673ffffffffffffffffffffffffffffffffffffffff168152602001908152602001600020549050919050565b600660009054906101000a900473ffffffffffffffffffffffffffffffffffffffff1681565b60606004805461050990610f92565b80601f016020809104026020016040519081016040528092919081815260200182805461053590610f92565b80156105825780601f1061055757610100808354040283529160200191610582565b820191906000526020600020905b81548152906001019060200180831161056557829003601f168201915b5050505050905090565b600080610597610636565b90506105a48185856106e5565b600191505092915050565b6000600160008473ffffffffffffffffffffffffffffffffffffffff1673ffffffffffffffffffffffffffffffffffffffff16815260200190815260200160002060008373ffffffffffffffffffffffffffffffffffffffff1673ffffffffffffffffffffffffffffffffffffffff16815260200190815260200160002054905092915050565b600033905090565b61064b838383600161085b565b505050565b600061065c84846105af565b90507fffffffffffffffffffffffffffffffffffffffffffffffffffffffffffffffff8110156106df57818110156106cf578281836040517ffb8f41b20000000000000000000000000000000000000000000000000000000081526004016106c69392919061102f565b60405180910390fd5b6106de8484848403600061085b565b5b50505050565b600073ffffffffffffffffffffffffffffffffffffffff168373ffffffffffffffffffffffffffffffffffffffff16036107575760006040517f96c6fd1e00000000000000000000000000000000000000000000000000000000815260040161074e9190610edb565b60405180910390fd5b600073ffffffffffffffffffffffffffffffffffffffff168273ffffffffffffffffffffffffffffffffffffffff16036107c95760006040517fec442f050000000000000000000000000000000000000000000000000000000081526004016107c09190610edb565b60405180910390fd5b6107d4838383610a32565b505050565b600073ffffffffffffffffffffffffffffffffffffffff168273ffffffffffffffffffffffffffffffffffffffff160361084b5760006040517fec442f050000000000000000000000000000000000000000000000000000000081526004016108429190610edb565b60405180910390fd5b61085760008383610a32565b5050565b600073ffffffffffffffffffffffffffffffffffffffff168473ffffffffffffffffffffffffffffffffffffffff16036108cd5760006040517fe602df050000000000000000000000000000000000000000000000000000000081526004016108c49190610edb565b60405180910390fd5b600073ffffffffffffffffffffffffffffffffffffffff168373ffffffffffffffffffffffffffffffffffffffff160361093f5760006040517f94280d620000000000000000000000000000000000000000000000000000000081526004016109369190610edb565b60405180910390fd5b81600160008673ffffffffffffffffffffffffffffffffffffffff1673ffffffffffffffffffffffffffffffffffffffff16815260200190815260200160002060008573ffffffffffffffffffffffffffffffffffffffff1673ffffffffffffffffffffffffffffffffffffffff168152602001908152602001600020819055508015610a2c578273ffffffffffffffffffffffffffffffffffffffff168473ffffffffffffffffffffffffffffffffffffffff167f8c5be1e5ebec7d5bd14f71427d1e84f3dd0314c0f7b2291e5b200ac8c7c3b92584604051610a239190610e27565b60405180910390a35b50505050565b600073ffffffffffffffffffffffffffffffffffffffff168373ffffffffffffffffffffffffffffffffffffffff1603610a84578060026000828254610a789190611095565b92505081905550610b57565b60008060008573ffffffffffffffffffffffffffffffffffffffff1673ffffffffffffffffffffffffffffffffffffffff16815260200190815260200160002054905081811015610b10578381836040517fe450d38c000000000000000000000000000000000000000000000000000000008152600401610b079392919061102f565b60405180910390fd5b8181036000808673ffffffffffffffffffffffffffffffffffffffff1673ffffffffffffffffffffffffffffffffffffffff16815260200190815260200160002081905550505b600073ffffffffffffffffffffffffffffffffffffffff168273ffffffffffffffffffffffffffffffffffffffff1603610ba05780600260008282540392505081905550610bed565b806000808473ffffffffffffffffffffffffffffffffffffffff1673ffffffffffffffffffffffffffffffffffffffff168152602001908152602001600020600082825401925050819055505b8173ffffffffffffffffffffffffffffffffffffffff168373ffffffffffffffffffffffffffffffffffffffff167fddf252ad1be2c89b69c2b068fc378daa952ba7f163c4a11628f55a4df523b3ef83604051610c4a9190610e27565b60405180910390a3505050565b600081519050919050565b600082825260208201905092915050565b60005b83811015610c91578082015181840152602081019050610c76565b60008484015250505050565b6000601f19601f8301169050919050565b6000610cb982610c57565b610cc38185610c62565b9350610cd3818560208601610c73565b610cdc81610c9d565b840191505092915050565b60006020820190508181036000830152610d018184610cae565b905092915050565b600080fd5b600073ffffffffffffffffffffffffffffffffffffffff82169050919050565b6000610d3982610d0e565b9050919050565b610d4981610d2e565b8114610d5457600080fd5b50565b600081359050610d6681610d40565b92915050565b6000819050919050565b610d7f81610d6c565b8114610d8a57600080fd5b50565b600081359050610d9c81610d76565b92915050565b60008060408385031215610db957610db8610d09565b5b6000610dc785828601610d57565b9250506020610dd885828601610d8d565b9150509250929050565b60008115159050919050565b610df781610de2565b82525050565b6000602082019050610e126000830184610dee565b92915050565b610e2181610d6c565b82525050565b6000602082019050610e3c6000830184610e18565b92915050565b600080600060608486031215610e5b57610e5a610d09565b5b6000610e6986828701610d57565b9350506020610e7a86828701610d57565b9250506040610e8b86828701610d8d565b9150509250925092565b600060ff82169050919050565b610eab81610e95565b82525050565b6000602082019050610ec66000830184610ea2565b92915050565b610ed581610d2e565b82525050565b6000602082019050610ef06000830184610ecc565b92915050565b600060208284031215610f0c57610f0b610d09565b5b6000610f1a84828501610d57565b91505092915050565b60008060408385031215610f3a57610f39610d09565b5b6000610f4885828601610d57565b9250506020610f5985828601610d57565b9150509250929050565b7f4e487b7100000000000000000000000000000000000000000000000000000000600052602260045260246000fd5b60006002820490506001821680610faa57607f821691505b602082108103610fbd57610fbc610f63565b5b50919050565b7f4f6e6c792044414f206f72206f776e65722063616e206d696e74000000000000600082015250565b6000610ff9601a83610c62565b915061100482610fc3565b602082019050919050565b6000602082019050818103600083015261102881610fec565b9050919050565b60006060820190506110446000830186610ecc565b6110516020830185610e18565b61105e6040830184610e18565b949350505050565b7f4e487b7100000000000000000000000000000000000000000000000000000000600052601160045260246000fd5b60006110a082610d6c565b91506110ab83610d6c565b92508282019050808211156110c3576110c2611066565b5b9291505056fea2646970667358221220fa1c7c00b3dd22025ce92f202847901cf6aef11a9f179b41461962be4e616b6664736f6c63430008140033",
  "linkReferences": {},
  "deployedLinkReferences": {}
}