{
  "_format": "hh-sol-artifact-1",
  "contractName": "DaoGovernance",
  "sourceName": "contracts/DaoGovernance.sol",
  "abi": [
    {
      "inputs": [
        {
          "internalType": "string",
          "name": "tokenName",
          "type": "string"
        },
        {
          "internalType": "string",
          "name": "tokenSymbol",
          "type": "string"
        },
        {
          "internalType": "uint256",
          "name": "_tokenPriceWei",
          "type": "uint256"
        },
        {
          "internalType": "uint256",
          "name": "_lockPeriod",
          "type": "uint256"
        },
        {
          "internalType": "uint256",
          "name": "_proposalDuration",
          "type": "uint256"
        },
        {
          "internalType": "uint256",
          "name": "_voteUnit",
          "type": "uint256"
        },
        {
          "internalType": "address",
          "name": "initialStrategy",
          "type": "address"
        }
      ],
      "stateMutability": "nonpayable",
      "type": "constructor"
    },
    {
      "anonymous": false,
      "inputs": [
        {
          "indexed": true,
          "internalType": "uint256",
          "name": "id",
          "type": "uint256"
        },
        {
          "indexed": false,
          "internalType": "bool",
          "name": "accepted",
          "type": "bool"
        }
      ],
      "name": "Finalized",
      "type": "event"
    },
    {
      "anonymous": false,
      "inputs": [
        {
          "indexed": true,
          "internalType": "uint256",
          "name": "id",
          "type": "uint256"
        },
        {
          "indexed": true,
          "internalType": "address",
          "name": "proposer",
          "type": "address"
        }
      ],
      "name": "ProposalCreated",
      "type": "event"
    },
    {
      "anonymous": false,
      "inputs": [
        {
          "indexed": true,
          "internalType": "address",
          "name": "newStrategy",
          "type": "address"
        }
      ],
      "name": "StrategyChanged",
      "type": "event"
    },
    {
      "anonymous": false,
      "inputs": [
        {
          "indexed": true,
          "internalType": "uint256",
          "name": "id",
          "type": "uint256"
        },
        {
          "indexed": true,
          "internalType": "address",
          "name": "voter",
          "type": "address"
        },
        {
          "indexed": false,
          "internalType": "bool",
          "name": "support",
          "type": "bool"
        },
        {
          "indexed": false,
          "internalType": "uint256",
          "name": "weight",
          "type": "uint256"
        }
      ],
      "name": "Voted",
      "type": "event"
    },
    {
      "inputs": [],
      "name": "buyTokens",
      "outputs": [],
      "stateMutability": "payable",
      "type": "function"
    },
    {
      "inputs": [
        {
          "internalType": "string",
          "name": "title",
          "type": "string"
        },
        {
          "internalType": "string",
          "name": "description",
          "type": "string"
        }
      ],
      "name": "createProposal",
      "outputs": [],
      "stateMutability": "nonpayable",
      "type": "function"
    },
    {
      "inputs": [
        {
          "internalType": "uint256",
          "name": "proposalId",
          "type": "uint256"
        }
      ],
      "name": "finalizeProposal",
      "outputs": [],
      "stateMutability": "nonpayable",
      "type": "function"
    },
    {
      "inputs": [],
      "name": "lockPeriod",
      "outputs": [
        {
          "internalType": "uint256",
          "name": "",
          "type": "uint256"
        }
      ],
      "stateMutability": "view",
      "type": "function"
    },
    {
      "inputs": [],
      "name": "proposalCount",
      "outputs": [
        {
          "internalType": "uint256",
          "name": "",
          "type": "uint256"
        }
      ],
      "stateMutability": "view",
      "type": "function"
    },
    {
      "inputs": [],
      "name": "proposalDuration",
      "outputs": [
        {
          "internalType": "uint256",
          "name": "",
          "type": "uint256"
        }
      ],
      "stateMutability": "view",
      "type": "function"
    },
    {
      "inputs": [
        {
          "internalType": "uint256",
          "name": "",
          "type": "uint256"
        }
      ],
      "name": "proposals",
      "outputs": [
        {
          "internalType": "uint256",
          "name": "id",
          "type": "uint256"
        },
        {
          "internalType": "address",
          "name": "proposer",
          "type": "address"
        },
        {
          "internalType": "string",
          "name": "title",
          "type": "string"
        },
        {
          "internalType": "string",
          "name": "description",
          "type": "string"
        },
        {
          "internalType": "uint256",
          "name": "start",
          "type": "uint256"
        },
        {
          "internalType": "uint256",
          "name": "end",
          "type": "uint256"
        },
        {
          "internalType": "uint256",
          "name": "forVotes",
          "type": "uint256"
        },
        {
          "internalType": "uint256",
          "name": "againstVotes",
          "type": "uint256"
        },
        {
          "internalType": "bool",
          "name": "executed",
          "type": "bool"
        }
      ],
      "stateMutability": "view",
      "type": "function"
    },
    {
      "inputs": [
        {
          "internalType": "address",
          "name": "",
          "type": "address"
        }
      ],
      "name": "proposeStakeUnlock",
      "outputs": [
        {
          "internalType": "uint256",
          "name": "",
          "type": "uint256"
        }
      ],
      "stateMutability": "view",
      "type": "function"
    },
    {
      "inputs": [
        {
          "internalType": "address",
          "name": "strategy",
          "type": "address"
        }
      ],
      "name": "setVotingStrategy",
      "outputs": [],
      "stateMutability": "nonpayable",
      "type": "function"
    },
    {
      "inputs": [
        {
          "internalType": "uint256",
          "name": "amount",
          "type": "uint256"
        }
      ],
      "name": "stakeForProposal",
      "outputs": [],
      "stateMutability": "nonpayable",
      "type": "function"
    },
    {
      "inputs": [
        {
          "internalType": "uint256",
          "name": "amount",
          "type": "uint256"
        }
      ],
      "name": "stakeForVote",
      "outputs": [],
      "stateMutability": "nonpayable",
      "type": "function"
    },
    {
      "inputs": [
        {
          "internalType": "address",
          "name": "",
          "type": "address"
        }
      ],
      "name": "stakePropose",
      "outputs": [
        {
          "internalType": "uint256",
          "name": "",
          "type": "uint256"
        }
      ],
      "stateMutability": "view",
      "type": "function"
    },
    {
      "inputs": [
        {
          "internalType": "address",
          "name": "",
          "type": "address"
        }
      ],
      "name": "stakeVotes",
      "outputs": [
        {
          "internalType": "uint256",
          "name": "",
          "type": "uint256"
        }
      ],
      "stateMutability": "view",
      "type": "function"
    },
    {
      "inputs": [],
      "name": "token",
      "outputs": [
        {
          "internalType": "contract VotingToken",
          "name": "",
          "type": "address"
        }
      ],
      "stateMutability": "view",
      "type": "function"
    },
    {
      "inputs": [],
      "name": "tokenPriceWei",
      "outputs": [
        {
          "internalType": "uint256",
          "name": "",
          "type": "uint256"
        }
      ],
      "stateMutability": "view",
      "type": "function"
    },
    {
      "inputs": [],
      "name": "unstakeProposals",
      "outputs": [],
      "stateMutability": "nonpayable",
      "type": "function"
    },
    {
      "inputs": [],
      "name": "unstakeVotes",
      "outputs": [],
      "stateMutability": "nonpayable",
      "type": "function"
    },
    {
      "inputs": [
        {
          "internalType": "uint256",
          "name": "proposalId",
          "type": "uint256"
        },
        {
          "internalType": "bool",
          "name": "support",
          "type": "bool"
        }
      ],
      "name": "vote",
      "outputs": [],
      "stateMutability": "nonpayable",
      "type": "function"
    },
    {
      "inputs": [
        {
          "internalType": "address",
          "name": "",
          "type": "address"
        }
      ],
      "name": "voteStakeUnlock",
      "outputs": [
        {
          "internalType": "uint256",
          "name": "",
          "type": "uint256"
        }
      ],
      "stateMutability": "view",
      "type": "function"
    },
    {
      "inputs": [],
      "name": "voteUnit",
      "outputs": [
        {
          "internalType": "uint256",
          "name": "",
          "type": "uint256"
        }
      ],
      "stateMutability": "view",
      "type": "function"
    },
    {
      "inputs": [],
      "name": "votingStrategy",
      "outputs": [
        {
          "internalType": "contract IVotingStrategy",
          "name": "",
          "type": "address"
        }
      ],
      "stateMutability": "view",
      "type": "function"
    }
  ],
  "bytecode": "0x60806040523480156200001157600080fd5b5060405162003faf38038062003faf83398181016040528101906200003791906200035e565b86863060405162000048906200011d565b6200005693929190620004bd565b604051809103906000f08015801562000073573d6000803e3d6000fd5b506000806101000a81548173ffffffffffffffffffffffffffffffffffffffff021916908373ffffffffffffffffffffffffffffffffffffffff1602179055508460028190555083600381905550826004819055508160058190555080600160006101000a81548173ffffffffffffffffffffffffffffffffffffffff021916908373ffffffffffffffffffffffffffffffffffffffff1602179055505050505050505062000508565b6116d580620028da83390190565b6000604051905090565b600080fd5b600080fd5b600080fd5b600080fd5b6000601f19601f8301169050919050565b7f4e487b7100000000000000000000000000000000000000000000000000000000600052604160045260246000fd5b620001948262000149565b810181811067ffffffffffffffff82111715620001b657620001b56200015a565b5b80604052505050565b6000620001cb6200012b565b9050620001d9828262000189565b919050565b600067ffffffffffffffff821115620001fc57620001fb6200015a565b5b620002078262000149565b9050602081019050919050565b60005b838110156200023457808201518184015260208101905062000217565b60008484015250505050565b6000620002576200025184620001de565b620001bf565b90508281526020810184848401111562000276576200027562000144565b5b6200028384828562000214565b509392505050565b600082601f830112620002a357620002a26200013f565b5b8151620002b584826020860162000240565b91505092915050565b6000819050919050565b620002d381620002be565b8114620002df57600080fd5b50565b600081519050620002f381620002c8565b92915050565b600073ffffffffffffffffffffffffffffffffffffffff82169050919050565b60006200032682620002f9565b9050919050565b620003388162000319565b81146200034457600080fd5b50565b60008151905062000358816200032d565b92915050565b600080600080600080600060e0888a03121562000380576200037f62000135565b5b600088015167ffffffffffffffff811115620003a157620003a06200013a565b5b620003af8a828b016200028b565b975050602088015167ffffffffffffffff811115620003d357620003d26200013a565b5b620003e18a828b016200028b565b9650506040620003f48a828b01620002e2565b9550506060620004078a828b01620002e2565b94505060806200041a8a828b01620002e2565b93505060a06200042d8a828b01620002e2565b92505060c0620004408a828b0162000347565b91505092959891949750929550565b600081519050919050565b600082825260208201905092915050565b600062000478826200044f565b6200048481856200045a565b93506200049681856020860162000214565b620004a18162000149565b840191505092915050565b620004b78162000319565b82525050565b60006060820190508181036000830152620004d981866200046b565b90508181036020830152620004ef81856200046b565b9050620005006040830184620004ac565b949350505050565b6123c280620005186000396000f3fe60806040526004361061012a5760003560e01c80638c91b638116100ab578063d289dcbf1161006f578063d289dcbf146103c5578063d32f1c40146103ee578063da35c6641461042b578063fb5c8bfd14610456578063fc0c546a14610481578063fdc7cce3146104ac5761012a565b80638c91b638146102ef57806398fe56911461032c578063c9d27afe14610355578063cec724791461037e578063d0febe4c146103bb5761012a565b8063479f738a116100f2578063479f738a146102325780635652077c1461024957806365e481e2146102725780637297bbe71461029b5780637bd58bee146102c65761012a565b8063013cf08b1461012f57806305d0f15b14610174578063301099621461019f57806334f89012146101ca5780633fd8b02f14610207575b600080fd5b34801561013b57600080fd5b50610156600480360381019061015191906115a6565b6104c3565b60405161016b999897969594939291906116ce565b60405180910390f35b34801561018057600080fd5b5061018961064e565b6040516101969190611769565b60405180910390f35b3480156101ab57600080fd5b506101b4610654565b6040516101c19190611769565b60405180910390f35b3480156101d657600080fd5b506101f160048036038101906101ec91906117b0565b61065a565b6040516101fe9190611769565b60405180910390f35b34801561021357600080fd5b5061021c610672565b6040516102299190611769565b60405180910390f35b34801561023e57600080fd5b50610247610678565b005b34801561025557600080fd5b50610270600480360381019061026b91906115a6565b610863565b005b34801561027e57600080fd5b5061029960048036038101906102949190611912565b610aba565b005b3480156102a757600080fd5b506102b0610bc9565b6040516102bd9190611769565b60405180910390f35b3480156102d257600080fd5b506102ed60048036038101906102e891906115a6565b610bcf565b005b3480156102fb57600080fd5b50610316600480360381019061031191906117b0565b610d58565b6040516103239190611769565b60405180910390f35b34801561033857600080fd5b50610353600480360381019061034e91906115a6565b610d70565b005b34801561036157600080fd5b5061037c600480360381019061037791906119b6565b610ef9565b005b34801561038a57600080fd5b506103a560048036038101906103a091906117b0565b61116c565b6040516103b29190611769565b60405180910390f35b6103c3611184565b005b3480156103d157600080fd5b506103ec60048036038101906103e791906117b0565b61127e565b005b3480156103fa57600080fd5b50610415600480360381019061041091906117b0565b611305565b6040516104229190611769565b60405180910390f35b34801561043757600080fd5b5061044061131d565b60405161044d9190611769565b60405180910390f35b34801561046257600080fd5b5061046b611327565b6040516104789190611a55565b60405180910390f35b34801561048d57600080fd5b5061049661134d565b6040516104a39190611a91565b60405180910390f35b3480156104b857600080fd5b506104c1611371565b005b60076020528060005260406000206000915090508060000154908060010160009054906101000a900473ffffffffffffffffffffffffffffffffffffffff169080600201805461051290611adb565b80601f016020809104026020016040519081016040528092919081815260200182805461053e90611adb565b801561058b5780601f106105605761010080835404028352916020019161058b565b820191906000526020600020905b81548152906001019060200180831161056e57829003601f168201915b5050505050908060030180546105a090611adb565b80601f01602080910402602001604051908101604052809291908181526020018280546105cc90611adb565b80156106195780601f106105ee57610100808354040283529160200191610619565b820191906000526020600020905b8154815290600101906020018083116105fc57829003601f168201915b5050505050908060040154908060050154908060060154908060070154908060080160009054906101000a900460ff16905089565b60025481565b60045481565b600b6020528060005260406000206000915090505481565b60035481565b600960003373ffffffffffffffffffffffffffffffffffffffff1673ffffffffffffffffffffffffffffffffffffffff168152602001908152602001600020544210156106fa576040517f08c379a00000000000000000000000000000000000000000000000000000000081526004016106f190611b58565b60405180910390fd5b6000600860003373ffffffffffffffffffffffffffffffffffffffff1673ffffffffffffffffffffffffffffffffffffffff1681526020019081526020016000205490506000600860003373ffffffffffffffffffffffffffffffffffffffff1673ffffffffffffffffffffffffffffffffffffffff1681526020019081526020016000208190555060008054906101000a900473ffffffffffffffffffffffffffffffffffffffff1673ffffffffffffffffffffffffffffffffffffffff1663a9059cbb33836040518363ffffffff1660e01b81526004016107de929190611b78565b6020604051808303816000875af11580156107fd573d6000803e3d6000fd5b505050506040513d601f19601f820116820180604052508101906108219190611bb6565b610860576040517f08c379a000000000000000000000000000000000000000000000000000000000815260040161085790611c2f565b60405180910390fd5b50565b600060076000838152602001908152602001600020905080600501544210156108c1576040517f08c379a00000000000000000000000000000000000000000000000000000000081526004016108b890611c9b565b60405180910390fd5b8060080160009054906101000a900460ff1615610913576040517f08c379a000000000000000000000000000000000000000000000000000000000815260040161090a90611d07565b60405180910390fd5b600060055460008054906101000a900473ffffffffffffffffffffffffffffffffffffffff1673ffffffffffffffffffffffffffffffffffffffff166318160ddd6040518163ffffffff1660e01b8152600401602060405180830381865afa158015610983573d6000803e3d6000fd5b505050506040513d601f19601f820116820180604052508101906109a79190611d3c565b6109b19190611dc7565b90506000600160009054906101000a900473ffffffffffffffffffffffffffffffffffffffff1673ffffffffffffffffffffffffffffffffffffffff1663d95baddf84600601548560070154856040518463ffffffff1660e01b8152600401610a1c93929190611df8565b602060405180830381865afa158015610a39573d6000803e3d6000fd5b505050506040513d601f19601f82011682018060405250810190610a5d9190611bb6565b905060018360080160006101000a81548160ff021916908315150217905550837f82693b732f9696c8a914b820dd6c52544bd61b844bbd4c8707253df9340cf6b782604051610aac9190611e2f565b60405180910390a250505050565b60066000815480929190610acd90611e4a565b9190505550600060076000600654815260200190815260200160002090506006548160000181905550338160010160006101000a81548173ffffffffffffffffffffffffffffffffffffffff021916908373ffffffffffffffffffffffffffffffffffffffff16021790555082816002019081610b4a9190612034565b5081816003019081610b5c9190612034565b5042816004018190555060045442610b749190612106565b81600501819055503373ffffffffffffffffffffffffffffffffffffffff1681600001547fcd423cc1203c0af96b9b3d68d73b3064a69de2d14450bb7181c5e5df2132b35860405160405180910390a3505050565b60055481565b60008054906101000a900473ffffffffffffffffffffffffffffffffffffffff1673ffffffffffffffffffffffffffffffffffffffff166323b872dd3330846040518463ffffffff1660e01b8152600401610c2c9392919061213a565b6020604051808303816000875af1158015610c4b573d6000803e3d6000fd5b505050506040513d601f19601f82011682018060405250810190610c6f9190611bb6565b610cae576040517f08c379a0000000000000000000000000000000000000000000000000000000008152600401610ca590611c2f565b60405180910390fd5b80600a60003373ffffffffffffffffffffffffffffffffffffffff1673ffffffffffffffffffffffffffffffffffffffff1681526020019081526020016000206000828254610cfd9190612106565b9250508190555060035442610d129190612106565b600b60003373ffffffffffffffffffffffffffffffffffffffff1673ffffffffffffffffffffffffffffffffffffffff1681526020019081526020016000208190555050565b60086020528060005260406000206000915090505481565b60008054906101000a900473ffffffffffffffffffffffffffffffffffffffff1673ffffffffffffffffffffffffffffffffffffffff166323b872dd3330846040518463ffffffff1660e01b8152600401610dcd9392919061213a565b6020604051808303816000875af1158015610dec573d6000803e3d6000fd5b505050506040513d601f19601f82011682018060405250810190610e109190611bb6565b610e4f576040517f08c379a0000000000000000000000000000000000000000000000000000000008152600401610e4690611c2f565b60405180910390fd5b80600860003373ffffffffffffffffffffffffffffffffffffffff1673ffffffffffffffffffffffffffffffffffffffff1681526020019081526020016000206000828254610e9e9190612106565b9250508190555060035442610eb39190612106565b600960003373ffffffffffffffffffffffffffffffffffffffff1673ffffffffffffffffffffffffffffffffffffffff1681526020019081526020016000208190555050565b600060076000848152602001908152602001600020905080600501544210610f56576040517f08c379a0000000000000000000000000000000000000000000000000000000008152600401610f4d906121bd565b60405180910390fd5b8060090160003373ffffffffffffffffffffffffffffffffffffffff1673ffffffffffffffffffffffffffffffffffffffff16815260200190815260200160002060009054906101000a900460ff1615610fe5576040517f08c379a0000000000000000000000000000000000000000000000000000000008152600401610fdc90612229565b60405180910390fd5b6000600554600860003373ffffffffffffffffffffffffffffffffffffffff1673ffffffffffffffffffffffffffffffffffffffff168152602001908152602001600020546110349190611dc7565b905060008111611079576040517f08c379a000000000000000000000000000000000000000000000000000000000815260040161107090612295565b60405180910390fd5b821561109f57808260060160008282546110939190612106565b925050819055506110bb565b808260070160008282546110b39190612106565b925050819055505b60018260090160003373ffffffffffffffffffffffffffffffffffffffff1673ffffffffffffffffffffffffffffffffffffffff16815260200190815260200160002060006101000a81548160ff0219169083151502179055503373ffffffffffffffffffffffffffffffffffffffff16847f7c2de587c00d75474a0c6c6fa96fd3b45dc974cd4e8a75f712bb84c950dce1b5858460405161115e9291906122b5565b60405180910390a350505050565b60096020528060005260406000206000915090505481565b6002543410156111c9576040517f08c379a00000000000000000000000000000000000000000000000000000000081526004016111c09061232a565b60405180910390fd5b6000600254670de0b6b3a7640000346111e2919061234a565b6111ec9190611dc7565b905060008054906101000a900473ffffffffffffffffffffffffffffffffffffffff1673ffffffffffffffffffffffffffffffffffffffff166340c10f1933836040518363ffffffff1660e01b8152600401611249929190611b78565b600060405180830381600087803b15801561126357600080fd5b505af1158015611277573d6000803e3d6000fd5b5050505050565b80600160006101000a81548173ffffffffffffffffffffffffffffffffffffffff021916908373ffffffffffffffffffffffffffffffffffffffff1602179055508073ffffffffffffffffffffffffffffffffffffffff167fafd1cdc355e15bfc9038294be1c6203ce953704fda8c991bebe78ddd4d5420d160405160405180910390a250565b600a6020528060005260406000206000915090505481565b6000600654905090565b600160009054906101000a900473ffffffffffffffffffffffffffffffffffffffff1681565b60008054906101000a900473ffffffffffffffffffffffffffffffffffffffff1681565b600b60003373ffffffffffffffffffffffffffffffffffffffff1673ffffffffffffffffffffffffffffffffffffffff168152602001908152602001600020544210156113f3576040517f08c379a00000000000000000000000000000000000000000000000000000000081526004016113ea90611b58565b60405180910390fd5b6000600a60003373ffffffffffffffffffffffffffffffffffffffff1673ffffffffffffffffffffffffffffffffffffffff1681526020019081526020016000205490506000600a60003373ffffffffffffffffffffffffffffffffffffffff1673ffffffffffffffffffffffffffffffffffffffff1681526020019081526020016000208190555060008054906101000a900473ffffffffffffffffffffffffffffffffffffffff1673ffffffffffffffffffffffffffffffffffffffff1663a9059cbb33836040518363ffffffff1660e01b81526004016114d7929190611b78565b6020604051808303816000875af11580156114f6573d6000803e3d6000fd5b505050506040513d601f19601f8201168201806040525081019061151a9190611bb6565b611559576040517f08c379a000000000000000000000000000000000000000000000000000000000815260040161155090611c2f565b60405180910390fd5b50565b6000604051905090565b600080fd5b600080fd5b6000819050919050565b61158381611570565b811461158e57600080fd5b50565b6000813590506115a08161157a565b92915050565b6000602082840312156115bc576115bb611566565b5b60006115ca84828501611591565b91505092915050565b6115dc81611570565b82525050565b600073ffffffffffffffffffffffffffffffffffffffff82169050919050565b600061160d826115e2565b9050919050565b61161d81611602565b82525050565b600081519050919050565b600082825260208201905092915050565b60005b8381101561165d578082015181840152602081019050611642565b60008484015250505050565b6000601f19601f8301169050919050565b600061168582611623565b61168f818561162e565b935061169f81856020860161163f565b6116a881611669565b840191505092915050565b60008115159050919050565b6116c8816116b3565b82525050565b6000610120820190506116e4600083018c6115d3565b6116f1602083018b611614565b8181036040830152611703818a61167a565b90508181036060830152611717818961167a565b905061172660808301886115d3565b61173360a08301876115d3565b61174060c08301866115d3565b61174d60e08301856115d3565b61175b6101008301846116bf565b9a9950505050505050505050565b600060208201905061177e60008301846115d3565b92915050565b61178d81611602565b811461179857600080fd5b50565b6000813590506117aa81611784565b92915050565b6000602082840312156117c6576117c5611566565b5b60006117d48482850161179b565b91505092915050565b600080fd5b600080fd5b7f4e487b7100000000000000000000000000000000000000000000000000000000600052604160045260246000fd5b61181f82611669565b810181811067ffffffffffffffff8211171561183e5761183d6117e7565b5b80604052505050565b600061185161155c565b905061185d8282611816565b919050565b600067ffffffffffffffff82111561187d5761187c6117e7565b5b61188682611669565b9050602081019050919050565b82818337600083830152505050565b60006118b56118b084611862565b611847565b9050828152602081018484840111156118d1576118d06117e2565b5b6118dc848285611893565b509392505050565b600082601f8301126118f9576118f86117dd565b5b81356119098482602086016118a2565b91505092915050565b6000806040838503121561192957611928611566565b5b600083013567ffffffffffffffff8111156119475761194661156b565b5b611953858286016118e4565b925050602083013567ffffffffffffffff8111156119745761197361156b565b5b611980858286016118e4565b9150509250929050565b611993816116b3565b811461199e57600080fd5b50565b6000813590506119b08161198a565b92915050565b600080604083850312156119cd576119cc611566565b5b60006119db85828601611591565b92505060206119ec858286016119a1565b9150509250929050565b6000819050919050565b6000611a1b611a16611a11846115e2565b6119f6565b6115e2565b9050919050565b6000611a2d82611a00565b9050919050565b6000611a3f82611a22565b9050919050565b611a4f81611a34565b82525050565b6000602082019050611a6a6000830184611a46565b92915050565b6000611a7b82611a22565b9050919050565b611a8b81611a70565b82525050565b6000602082019050611aa66000830184611a82565b92915050565b7f4e487b7100000000000000000000000000000000000000000000000000000000600052602260045260246000fd5b60006002820490506001821680611af357607f821691505b602082108103611b0657611b05611aac565b5b50919050565b7f4c6f636b20706572696f64206e6f742070617373656400000000000000000000600082015250565b6000611b4260168361162e565b9150611b4d82611b0c565b602082019050919050565b60006020820190508181036000830152611b7181611b35565b9050919050565b6000604082019050611b8d6000830185611614565b611b9a60208301846115d3565b9392505050565b600081519050611bb08161198a565b92915050565b600060208284031215611bcc57611bcb611566565b5b6000611bda84828501611ba1565b91505092915050565b7f5472616e73666572206661696c65640000000000000000000000000000000000600082015250565b6000611c19600f8361162e565b9150611c2482611be3565b602082019050919050565b60006020820190508181036000830152611c4881611c0c565b9050919050565b7f566f74696e67207374696c6c2061637469766500000000000000000000000000600082015250565b6000611c8560138361162e565b9150611c9082611c4f565b602082019050919050565b60006020820190508181036000830152611cb481611c78565b9050919050565b7f416c72656164792066696e616c697a6564000000000000000000000000000000600082015250565b6000611cf160118361162e565b9150611cfc82611cbb565b602082019050919050565b60006020820190508181036000830152611d2081611ce4565b9050919050565b600081519050611d368161157a565b92915050565b600060208284031215611d5257611d51611566565b5b6000611d6084828501611d27565b91505092915050565b7f4e487b7100000000000000000000000000000000000000000000000000000000600052601260045260246000fd5b7f4e487b7100000000000000000000000000000000000000000000000000000000600052601160045260246000fd5b6000611dd282611570565b9150611ddd83611570565b925082611ded57611dec611d69565b5b828204905092915050565b6000606082019050611e0d60008301866115d3565b611e1a60208301856115d3565b611e2760408301846115d3565b949350505050565b6000602082019050611e4460008301846116bf565b92915050565b6000611e5582611570565b91507fffffffffffffffffffffffffffffffffffffffffffffffffffffffffffffffff8203611e8757611e86611d98565b5b600182019050919050565b60008190508160005260206000209050919050565b60006020601f8301049050919050565b600082821b905092915050565b600060088302611ef47fffffffffffffffffffffffffffffffffffffffffffffffffffffffffffffffff82611eb7565b611efe8683611eb7565b95508019841693508086168417925050509392505050565b6000611f31611f2c611f2784611570565b6119f6565b611570565b9050919050565b6000819050919050565b611f4b83611f16565b611f5f611f5782611f38565b848454611ec4565b825550505050565b600090565b611f74611f67565b611f7f818484611f42565b505050565b5b81811015611fa357611f98600082611f6c565b600181019050611f85565b5050565b601f821115611fe857611fb981611e92565b611fc284611ea7565b81016020851015611fd1578190505b611fe5611fdd85611ea7565b830182611f84565b50505b505050565b600082821c905092915050565b600061200b60001984600802611fed565b1980831691505092915050565b60006120248383611ffa565b9150826002028217905092915050565b61203d82611623565b67ffffffffffffffff811115612056576120556117e7565b5b6120608254611adb565b61206b828285611fa7565b600060209050601f83116001811461209e576000841561208c578287015190505b6120968582612018565b8655506120fe565b601f1984166120ac86611e92565b60005b828110156120d4578489015182556001820191506020850194506020810190506120af565b868310156120f157848901516120ed601f891682611ffa565b8355505b6001600288020188555050505b505050505050565b600061211182611570565b915061211c83611570565b925082820190508082111561213457612133611d98565b5b92915050565b600060608201905061214f6000830186611614565b61215c6020830185611614565b61216960408301846115d3565b949350505050565b7f566f74696e6720706572696f6420656e64656400000000000000000000000000600082015250565b60006121a760138361162e565b91506121b282612171565b602082019050919050565b600060208201905081810360008301526121d68161219a565b9050919050565b7f416c726561647920766f74656400000000000000000000000000000000000000600082015250565b6000612213600d8361162e565b915061221e826121dd565b602082019050919050565b6000602082019050818103600083015261224281612206565b9050919050565b7f4e6f207374616b656420746f6b656e7320746f20766f74650000000000000000600082015250565b600061227f60188361162e565b915061228a82612249565b602082019050919050565b600060208201905081810360008301526122ae81612272565b9050919050565b60006040820190506122ca60008301856116bf565b6122d760208301846115d3565b9392505050565b7f496e73756666696369656e742045544800000000000000000000000000000000600082015250565b600061231460108361162e565b915061231f826122de565b602082019050919050565b6000602082019050818103600083015261234381612307565b9050919050565b600061235582611570565b915061236083611570565b925082820261236e81611570565b9150828204841483151761238557612384611d98565b5b509291505056fea264697066735822122004d76da99b9a391a7777845974daf2a2b43f70087c0245b0f82e5c7a3ed79b6164736f6c6343000814003360806040523480156200001157600080fd5b50604051620016d5380380620016d58339818101604052810190620000379190620002a1565b828281600390816200004a919062000586565b5080600490816200005c919062000586565b50505080600560006101000a81548173ffffffffffffffffffffffffffffffffffffffff021916908373ffffffffffffffffffffffffffffffffffffffff1602179055505050506200066d565b6000604051905090565b600080fd5b600080fd5b600080fd5b600080fd5b6000601f19601f8301169050919050565b7f4e487b7100000000000000000000000000000000000000000000000000000000600052604160045260246000fd5b6200011282620000c7565b810181811067ffffffffffffffff82111715620001345762000133620000d8565b5b80604052505050565b600062000149620000a9565b905062000157828262000107565b919050565b600067ffffffffffffffff8211156200017a5762000179620000d8565b5b6200018582620000c7565b9050602081019050919050565b60005b83811015620001b257808201518184015260208101905062000195565b60008484015250505050565b6000620001d5620001cf846200015c565b6200013d565b905082815260208101848484011115620001f457620001f3620000c2565b5b6200020184828562000192565b509392505050565b600082601f830112620002215762000220620000bd565b5b815162000233848260208601620001be565b91505092915050565b600073ffffffffffffffffffffffffffffffffffffffff82169050919050565b600062000269826200023c565b9050919050565b6200027b816200025c565b81146200028757600080fd5b50565b6000815190506200029b8162000270565b92915050565b600080600060608486031215620002bd57620002bc620000b3565b5b600084015167ffffffffffffffff811115620002de57620002dd620000b8565b5b620002ec8682870162000209565b935050602084015167ffffffffffffffff81111562000310576200030f620000b8565b5b6200031e8682870162000209565b925050604062000331868287016200028a565b9150509250925092565b600081519050919050565b7f4e487b7100000000000000000000000000000000000000000000000000000000600052602260045260246000fd5b600060028204905060018216806200038e57607f821691505b602082108103620003a457620003a362000346565b5b50919050565b60008190508160005260206000209050919050565b60006020601f8301049050919050565b600082821b905092915050565b6000600883026200040e7fffffffffffffffffffffffffffffffffffffffffffffffffffffffffffffffff82620003cf565b6200041a8683620003cf565b95508019841693508086168417925050509392505050565b6000819050919050565b6000819050919050565b600062000467620004616200045b8462000432565b6200043c565b62000432565b9050919050565b6000819050919050565b620004838362000446565b6200049b62000492826200046e565b848454620003dc565b825550505050565b600090565b620004b2620004a3565b620004bf81848462000478565b505050565b5b81811015620004e757620004db600082620004a8565b600181019050620004c5565b5050565b601f82111562000536576200050081620003aa565b6200050b84620003bf565b810160208510156200051b578190505b620005336200052a85620003bf565b830182620004c4565b50505b505050565b600082821c905092915050565b60006200055b600019846008026200053b565b1980831691505092915050565b600062000576838362000548565b9150826002028217905092915050565b62000591826200033b565b67ffffffffffffffff811115620005ad57620005ac620000d8565b5b620005b9825462000375565b620005c6828285620004eb565b600060209050601f831160018114620005fe5760008415620005e9578287015190505b620005f5858262000568565b86555062000665565b601f1984166200060e86620003aa565b60005b82811015620006385784890151825560018201915060208501945060208101905062000611565b8683101562000658578489015162000654601f89168262000548565b8355505b6001600288020188555050505b505050505050565b611058806200067d6000396000f3fe608060405234801561001057600080fd5b50600436106100a95760003560e01c806340c10f191161007157806340c10f19146101685780634162169f1461018457806370a08231146101a257806395d89b41146101d2578063a9059cbb146101f0578063dd62ed3e14610220576100a9565b806306fdde03146100ae578063095ea7b3146100cc57806318160ddd146100fc57806323b872dd1461011a578063313ce5671461014a575b600080fd5b6100b6610250565b6040516100c39190610c40565b60405180910390f35b6100e660048036038101906100e19190610cfb565b6102e2565b6040516100f39190610d56565b60405180910390f35b610104610305565b6040516101119190610d80565b60405180910390f35b610134600480360381019061012f9190610d9b565b61030f565b6040516101419190610d56565b60405180910390f35b61015261033e565b60405161015f9190610e0a565b60405180910390f35b610182600480360381019061017d9190610cfb565b610347565b005b61018c6103e5565b6040516101999190610e34565b60405180910390f35b6101bc60048036038101906101b79190610e4f565b61040b565b6040516101c99190610d80565b60405180910390f35b6101da610453565b6040516101e79190610c40565b60405180910390f35b61020a60048036038101906102059190610cfb565b6104e5565b6040516102179190610d56565b60405180910390f35b61023a60048036038101906102359190610e7c565b610508565b6040516102479190610d80565b60405180910390f35b60606003805461025f90610eeb565b80601f016020809104026020016040519081016040528092919081815260200182805461028b90610eeb565b80156102d85780601f106102ad576101008083540402835291602001916102d8565b820191906000526020600020905b8154815290600101906020018083116102bb57829003601f168201915b5050505050905090565b6000806102ed61058f565b90506102fa818585610597565b600191505092915050565b6000600254905090565b60008061031a61058f565b90506103278582856105a9565b61033285858561063e565b60019150509392505050565b60006012905090565b600560009054906101000a900473ffffffffffffffffffffffffffffffffffffffff1673ffffffffffffffffffffffffffffffffffffffff163373ffffffffffffffffffffffffffffffffffffffff16146103d7576040517f08c379a00000000000000000000000000000000000000000000000000000000081526004016103ce90610f68565b60405180910390fd5b6103e18282610732565b5050565b600560009054906101000a900473ffffffffffffffffffffffffffffffffffffffff1681565b60008060008373ffffffffffffffffffffffffffffffffffffffff1673ffffffffffffffffffffffffffffffffffffffff168152602001908152602001600020549050919050565b60606004805461046290610eeb565b80601f016020809104026020016040519081016040528092919081815260200182805461048e90610eeb565b80156104db5780601f106104b0576101008083540402835291602001916104db565b820191906000526020600020905b8154815290600101906020018083116104be57829003601f168201915b5050505050905090565b6000806104f061058f565b90506104fd81858561063e565b600191505092915050565b6000600160008473ffffffffffffffffffffffffffffffffffffffff1673ffffffffffffffffffffffffffffffffffffffff16815260200190815260200160002060008373ffffffffffffffffffffffffffffffffffffffff1673ffffffffffffffffffffffffffffffffffffffff16815260200190815260200160002054905092915050565b600033905090565b6105a483838360016107b4565b505050565b60006105b58484610508565b90507fffffffffffffffffffffffffffffffffffffffffffffffffffffffffffffffff8110156106385781811015610628578281836040517ffb8f41b200000000000000000000000000000000000000000000000000000000815260040161061f93929190610f88565b60405180910390fd5b610637848484840360006107b4565b5b50505050565b600073ffffffffffffffffffffffffffffffffffffffff168373ffffffffffffffffffffffffffffffffffffffff16036106b05760006040517f96c6fd1e0000000000000000000000000000000000000000000000000000000081526004016106a79190610e34565b60405180910390fd5b600073ffffffffffffffffffffffffffffffffffffffff168273ffffffffffffffffffffffffffffffffffffffff16036107225760006040517fec442f050000000000000000000000000000000000000000000000000000000081526004016107199190610e34565b60405180910390fd5b61072d83838361098b565b505050565b600073ffffffffffffffffffffffffffffffffffffffff168273ffffffffffffffffffffffffffffffffffffffff16036107a45760006040517fec442f0500000000000000000000000000000000000000000000000000000000815260040161079b9190610e34565b60405180910390fd5b6107b06000838361098b565b5050565b600073ffffffffffffffffffffffffffffffffffffffff168473ffffffffffffffffffffffffffffffffffffffff16036108265760006040517fe602df0500000000000000000000000000000000000000000000000000000000815260040161081d9190610e34565b60405180910390fd5b600073ffffffffffffffffffffffffffffffffffffffff168373ffffffffffffffffffffffffffffffffffffffff16036108985760006040517f94280d6200000000000000000000000000000000000000000000000000000000815260040161088f9190610e34565b60405180910390fd5b81600160008673ffffffffffffffffffffffffffffffffffffffff1673ffffffffffffffffffffffffffffffffffffffff16815260200190815260200160002060008573ffffffffffffffffffffffffffffffffffffffff1673ffffffffffffffffffffffffffffffffffffffff168152602001908152602001600020819055508015610985578273ffffffffffffffffffffffffffffffffffffffff168473ffffffffffffffffffffffffffffffffffffffff167f8c5be1e5ebec7d5bd14f71427d1e84f3dd0314c0f7b2291e5b200ac8c7c3b9258460405161097c9190610d80565b60405180910390a35b50505050565b600073ffffffffffffffffffffffffffffffffffffffff168373ffffffffffffffffffffffffffffffffffffffff16036109dd5780600260008282546109d19190610fee565b92505081905550610ab0565b60008060008573ffffffffffffffffffffffffffffffffffffffff1673ffffffffffffffffffffffffffffffffffffffff16815260200190815260200160002054905081811015610a69578381836040517fe450d38c000000000000000000000000000000000000000000000000000000008152600401610a6093929190610f88565b60405180910390fd5b8181036000808673ffffffffffffffffffffffffffffffffffffffff1673ffffffffffffffffffffffffffffffffffffffff16815260200190815260200160002081905550505b600073ffffffffffffffffffffffffffffffffffffffff168273ffffffffffffffffffffffffffffffffffffffff1603610af95780600260008282540392505081905550610b46565b806000808473ffffffffffffffffffffffffffffffffffffffff1673ffffffffffffffffffffffffffffffffffffffff168152602001908152602001600020600082825401925050819055505b8173ffffffffffffffffffffffffffffffffffffffff168373ffffffffffffffffffffffffffffffffffffffff167fddf252ad1be2c89b69c2b068fc378daa952ba7f163c4a11628f55a4df523b3ef83604051610ba39190610d80565b60405180910390a3505050565b600081519050919050565b600082825260208201905092915050565b60005b83811015610bea578082015181840152602081019050610bcf565b60008484015250505050565b6000601f19601f8301169050919050565b6000610c1282610bb0565b610c1c8185610bbb565b9350610c2c818560208601610bcc565b610c3581610bf6565b840191505092915050565b60006020820190508181036000830152610c5a8184610c07565b905092915050565b600080fd5b600073ffffffffffffffffffffffffffffffffffffffff82169050919050565b6000610c9282610c67565b9050919050565b610ca281610c87565b8114610cad57600080fd5b50565b600081359050610cbf81610c99565b92915050565b6000819050919050565b610cd881610cc5565b8114610ce357600080fd5b50565b600081359050610cf581610ccf565b92915050565b60008060408385031215610d1257610d11610c62565b5b6000610d2085828601610cb0565b9250506020610d3185828601610ce6565b9150509250929050565b60008115159050919050565b610d5081610d3b565b82525050565b6000602082019050610d6b6000830184610d47565b92915050565b610d7a81610cc5565b82525050565b6000602082019050610d956000830184610d71565b92915050565b600080600060608486031215610db457610db3610c62565b5b6000610dc286828701610cb0565b9350506020610dd386828701610cb0565b9250506040610de486828701610ce6565b9150509250925092565b600060ff82169050919050565b610e0481610dee565b82525050565b6000602082019050610e1f6000830184610dfb565b92915050565b610e2e81610c87565b82525050565b6000602082019050610e496000830184610e25565b92915050565b600060208284031215610e6557610e64610c62565b5b6000610e7384828501610cb0565b91505092915050565b60008060408385031215610e9357610e92610c62565b5b6000610ea185828601610cb0565b9250506020610eb285828601610cb0565b9150509250929050565b7f4e487b7100000000000000000000000000000000000000000000000000000000600052602260045260246000fd5b60006002820490506001821680610f0357607f821691505b602082108103610f1657610f15610ebc565b5b50919050565b7f4f6e6c792044414f2063616e206d696e74000000000000000000000000000000600082015250565b6000610f52601183610bbb565b9150610f5d82610f1c565b602082019050919050565b60006020820190508181036000830152610f8181610f45565b9050919050565b6000606082019050610f9d6000830186610e25565b610faa6020830185610d71565b610fb76040830184610d71565b949350505050565b7f4e487b7100000000000000000000000000000000000000000000000000000000600052601160045260246000fd5b6000610ff982610cc5565b915061100483610cc5565b925082820190508082111561101c5761101b610fbf565b5b9291505056fea2646970667358221220e58b9780a2b0c1c0c24e20966cec2a23a1855266719defa334a7ee766ff7bded64736f6c63430008140033",
  "linkReferences": {},
  "deployedLinkReferences": {}
}