{
  "_format": "hh-sol-artifact-1",
  "contractName": "DaoGovernance",
  "sourceName": "contracts/DaoGovernance.sol",
  "abi": [
    {
      "inputs": [
        {
          "internalType": "string",
          "name": "tokenName",
          "type": "string"
        },
        {
          "internalType": "string",
          "name": "tokenSymbol",
          "type": "string"
        },
        {
          "internalType": "uint256",
          "name": "_tokenPriceWei",
          "type": "uint256"
        },
        {
          "internalType": "uint256",
          "name": "_lockPeriod",
          "type": "uint256"
        },
        {
          "internalType": "uint256",
          "name": "_proposalDuration",
          "type": "uint256"
        },
        {
          "internalType": "uint256",
          "name": "_voteUnit",
          "type": "uint256"
        },
        {
          "internalType": "address",
          "name": "initialStrategy",
          "type": "address"
        },
        {
          "internalType": "address",
          "name": "_owner",
          "type": "address"
        }
      ],
      "stateMutability": "nonpayable",
      "type": "constructor"
    },
    {
      "anonymous": false,
      "inputs": [
        {
          "indexed": false,
          "internalType": "address",
          "name": "sender",
          "type": "address"
        },
        {
          "indexed": false,
          "internalType": "address",
          "name": "owner",
          "type": "address"
        },
        {
          "indexed": false,
          "internalType": "address",
          "name": "panicWallet",
          "type": "address"
        },
        {
          "indexed": false,
          "internalType": "string",
          "name": "action",
          "type": "string"
        }
      ],
      "name": "DebugSender",
      "type": "event"
    },
    {
      "anonymous": false,
      "inputs": [
        {
          "indexed": true,
          "internalType": "uint256",
          "name": "id",
          "type": "uint256"
        },
        {
          "indexed": false,
          "internalType": "bool",
          "name": "accepted",
          "type": "bool"
        }
      ],
      "name": "Finalized",
      "type": "event"
    },
    {
      "anonymous": false,
      "inputs": [
        {
          "indexed": true,
          "internalType": "uint256",
          "name": "id",
          "type": "uint256"
        },
        {
          "indexed": true,
          "internalType": "address",
          "name": "proposer",
          "type": "address"
        }
      ],
      "name": "ProposalCreated",
      "type": "event"
    },
    {
      "anonymous": false,
      "inputs": [
        {
          "indexed": true,
          "internalType": "address",
          "name": "newStrategy",
          "type": "address"
        }
      ],
      "name": "StrategyChanged",
      "type": "event"
    },
    {
      "anonymous": false,
      "inputs": [
        {
          "indexed": true,
          "internalType": "uint256",
          "name": "id",
          "type": "uint256"
        },
        {
          "indexed": true,
          "internalType": "address",
          "name": "voter",
          "type": "address"
        },
        {
          "indexed": false,
          "internalType": "bool",
          "name": "support",
          "type": "bool"
        },
        {
          "indexed": false,
          "internalType": "uint256",
          "name": "weight",
          "type": "uint256"
        }
      ],
      "name": "Voted",
      "type": "event"
    },
    {
      "inputs": [],
      "name": "buyTokens",
      "outputs": [],
      "stateMutability": "payable",
      "type": "function"
    },
    {
      "inputs": [
        {
          "internalType": "string",
          "name": "title",
          "type": "string"
        },
        {
          "internalType": "string",
          "name": "description",
          "type": "string"
        }
      ],
      "name": "createProposal",
      "outputs": [],
      "stateMutability": "nonpayable",
      "type": "function"
    },
    {
      "inputs": [
        {
          "internalType": "uint256",
          "name": "proposalId",
          "type": "uint256"
        }
      ],
      "name": "finalizeProposal",
      "outputs": [],
      "stateMutability": "nonpayable",
      "type": "function"
    },
    {
      "inputs": [],
      "name": "isPanicked",
      "outputs": [
        {
          "internalType": "bool",
          "name": "",
          "type": "bool"
        }
      ],
      "stateMutability": "view",
      "type": "function"
    },
    {
      "inputs": [],
      "name": "lockPeriod",
      "outputs": [
        {
          "internalType": "uint256",
          "name": "",
          "type": "uint256"
        }
      ],
      "stateMutability": "view",
      "type": "function"
    },
    {
      "inputs": [],
      "name": "minStakePropose",
      "outputs": [
        {
          "internalType": "uint256",
          "name": "",
          "type": "uint256"
        }
      ],
      "stateMutability": "view",
      "type": "function"
    },
    {
      "inputs": [],
      "name": "minStakeVote",
      "outputs": [
        {
          "internalType": "uint256",
          "name": "",
          "type": "uint256"
        }
      ],
      "stateMutability": "view",
      "type": "function"
    },
    {
      "inputs": [
        {
          "internalType": "uint256",
          "name": "amount",
          "type": "uint256"
        }
      ],
      "name": "mintTokens",
      "outputs": [],
      "stateMutability": "nonpayable",
      "type": "function"
    },
    {
      "inputs": [],
      "name": "owner",
      "outputs": [
        {
          "internalType": "address",
          "name": "",
          "type": "address"
        }
      ],
      "stateMutability": "view",
      "type": "function"
    },
    {
      "inputs": [],
      "name": "panicWallet",
      "outputs": [
        {
          "internalType": "address",
          "name": "",
          "type": "address"
        }
      ],
      "stateMutability": "view",
      "type": "function"
    },
    {
      "inputs": [],
      "name": "panico",
      "outputs": [],
      "stateMutability": "nonpayable",
      "type": "function"
    },
    {
      "inputs": [],
      "name": "proposalCount",
      "outputs": [
        {
          "internalType": "uint256",
          "name": "",
          "type": "uint256"
        }
      ],
      "stateMutability": "view",
      "type": "function"
    },
    {
      "inputs": [],
      "name": "proposalDuration",
      "outputs": [
        {
          "internalType": "uint256",
          "name": "",
          "type": "uint256"
        }
      ],
      "stateMutability": "view",
      "type": "function"
    },
    {
      "inputs": [
        {
          "internalType": "uint256",
          "name": "",
          "type": "uint256"
        }
      ],
      "name": "proposals",
      "outputs": [
        {
          "internalType": "uint256",
          "name": "id",
          "type": "uint256"
        },
        {
          "internalType": "address",
          "name": "proposer",
          "type": "address"
        },
        {
          "internalType": "string",
          "name": "title",
          "type": "string"
        },
        {
          "internalType": "string",
          "name": "description",
          "type": "string"
        },
        {
          "internalType": "uint256",
          "name": "start",
          "type": "uint256"
        },
        {
          "internalType": "uint256",
          "name": "end",
          "type": "uint256"
        },
        {
          "internalType": "uint256",
          "name": "forVotes",
          "type": "uint256"
        },
        {
          "internalType": "uint256",
          "name": "againstVotes",
          "type": "uint256"
        },
        {
          "internalType": "bool",
          "name": "executed",
          "type": "bool"
        }
      ],
      "stateMutability": "view",
      "type": "function"
    },
    {
      "inputs": [
        {
          "internalType": "address",
          "name": "",
          "type": "address"
        }
      ],
      "name": "proposeStakeUnlock",
      "outputs": [
        {
          "internalType": "uint256",
          "name": "",
          "type": "uint256"
        }
      ],
      "stateMutability": "view",
      "type": "function"
    },
    {
      "inputs": [
        {
          "internalType": "uint256",
          "name": "_lockPeriod",
          "type": "uint256"
        }
      ],
      "name": "setLockPeriod",
      "outputs": [],
      "stateMutability": "nonpayable",
      "type": "function"
    },
    {
      "inputs": [
        {
          "internalType": "uint256",
          "name": "_minStakePropose",
          "type": "uint256"
        }
      ],
      "name": "setMinStakePropose",
      "outputs": [],
      "stateMutability": "nonpayable",
      "type": "function"
    },
    {
      "inputs": [
        {
          "internalType": "uint256",
          "name": "_minStakeVote",
          "type": "uint256"
        }
      ],
      "name": "setMinStakeVote",
      "outputs": [],
      "stateMutability": "nonpayable",
      "type": "function"
    },
    {
      "inputs": [
        {
          "internalType": "address",
          "name": "_panicWallet",
          "type": "address"
        }
      ],
      "name": "setPanicWallet",
      "outputs": [],
      "stateMutability": "nonpayable",
      "type": "function"
    },
    {
      "inputs": [
        {
          "internalType": "uint256",
          "name": "_proposalDuration",
          "type": "uint256"
        }
      ],
      "name": "setProposalDuration",
      "outputs": [],
      "stateMutability": "nonpayable",
      "type": "function"
    },
    {
      "inputs": [
        {
          "internalType": "uint256",
          "name": "_tokenPriceWei",
          "type": "uint256"
        }
      ],
      "name": "setTokenPriceWei",
      "outputs": [],
      "stateMutability": "nonpayable",
      "type": "function"
    },
    {
      "inputs": [
        {
          "internalType": "uint256",
          "name": "_voteUnit",
          "type": "uint256"
        }
      ],
      "name": "setVoteUnit",
      "outputs": [],
      "stateMutability": "nonpayable",
      "type": "function"
    },
    {
      "inputs": [
        {
          "internalType": "address",
          "name": "strategy",
          "type": "address"
        }
      ],
      "name": "setVotingStrategy",
      "outputs": [],
      "stateMutability": "nonpayable",
      "type": "function"
    },
    {
      "inputs": [
        {
          "internalType": "uint256",
          "name": "amount",
          "type": "uint256"
        }
      ],
      "name": "stakeForProposal",
      "outputs": [],
      "stateMutability": "nonpayable",
      "type": "function"
    },
    {
      "inputs": [
        {
          "internalType": "uint256",
          "name": "amount",
          "type": "uint256"
        }
      ],
      "name": "stakeForVote",
      "outputs": [],
      "stateMutability": "nonpayable",
      "type": "function"
    },
    {
      "inputs": [
        {
          "internalType": "address",
          "name": "",
          "type": "address"
        }
      ],
      "name": "stakePropose",
      "outputs": [
        {
          "internalType": "uint256",
          "name": "",
          "type": "uint256"
        }
      ],
      "stateMutability": "view",
      "type": "function"
    },
    {
      "inputs": [
        {
          "internalType": "address",
          "name": "",
          "type": "address"
        }
      ],
      "name": "stakeVotes",
      "outputs": [
        {
          "internalType": "uint256",
          "name": "",
          "type": "uint256"
        }
      ],
      "stateMutability": "view",
      "type": "function"
    },
    {
      "inputs": [],
      "name": "token",
      "outputs": [
        {
          "internalType": "contract VotingToken",
          "name": "",
          "type": "address"
        }
      ],
      "stateMutability": "view",
      "type": "function"
    },
    {
      "inputs": [],
      "name": "tokenPriceWei",
      "outputs": [
        {
          "internalType": "uint256",
          "name": "",
          "type": "uint256"
        }
      ],
      "stateMutability": "view",
      "type": "function"
    },
    {
      "inputs": [],
      "name": "tranquilidad",
      "outputs": [],
      "stateMutability": "nonpayable",
      "type": "function"
    },
    {
      "inputs": [
        {
          "internalType": "address",
          "name": "newOwner",
          "type": "address"
        }
      ],
      "name": "transferOwnership",
      "outputs": [],
      "stateMutability": "nonpayable",
      "type": "function"
    },
    {
      "inputs": [],
      "name": "unstakeProposals",
      "outputs": [],
      "stateMutability": "nonpayable",
      "type": "function"
    },
    {
      "inputs": [],
      "name": "unstakeVotes",
      "outputs": [],
      "stateMutability": "nonpayable",
      "type": "function"
    },
    {
      "inputs": [
        {
          "internalType": "uint256",
          "name": "proposalId",
          "type": "uint256"
        },
        {
          "internalType": "bool",
          "name": "support",
          "type": "bool"
        }
      ],
      "name": "vote",
      "outputs": [],
      "stateMutability": "nonpayable",
      "type": "function"
    },
    {
      "inputs": [
        {
          "internalType": "address",
          "name": "",
          "type": "address"
        }
      ],
      "name": "voteStakeUnlock",
      "outputs": [
        {
          "internalType": "uint256",
          "name": "",
          "type": "uint256"
        }
      ],
      "stateMutability": "view",
      "type": "function"
    },
    {
      "inputs": [],
      "name": "voteUnit",
      "outputs": [
        {
          "internalType": "uint256",
          "name": "",
          "type": "uint256"
        }
      ],
      "stateMutability": "view",
      "type": "function"
    },
    {
      "inputs": [],
      "name": "votingStrategy",
      "outputs": [
        {
          "internalType": "contract IVotingStrategy",
          "name": "",
          "type": "address"
        }
      ],
      "stateMutability": "view",
      "type": "function"
    }
  ],
  "bytecode": "0x60806040523480156200001157600080fd5b50604051620065a3380380620065a38339818101604052810190620000379190620003c0565b8787308360405162000049906200017f565b62000058949392919062000535565b604051809103906000f08015801562000075573d6000803e3d6000fd5b506000806101000a81548173ffffffffffffffffffffffffffffffffffffffff021916908373ffffffffffffffffffffffffffffffffffffffff1602179055508560028190555084600381905550836004819055508260058190555081600160006101000a81548173ffffffffffffffffffffffffffffffffffffffff021916908373ffffffffffffffffffffffffffffffffffffffff16021790555080600e60006101000a81548173ffffffffffffffffffffffffffffffffffffffff021916908373ffffffffffffffffffffffffffffffffffffffff160217905550670de0b6b3a7640000600681905550678ac7230489e80000600781905550505050505050505062000590565b6117d48062004dcf83390190565b6000604051905090565b600080fd5b600080fd5b600080fd5b600080fd5b6000601f19601f8301169050919050565b7f4e487b7100000000000000000000000000000000000000000000000000000000600052604160045260246000fd5b620001f682620001ab565b810181811067ffffffffffffffff82111715620002185762000217620001bc565b5b80604052505050565b60006200022d6200018d565b90506200023b8282620001eb565b919050565b600067ffffffffffffffff8211156200025e576200025d620001bc565b5b6200026982620001ab565b9050602081019050919050565b60005b838110156200029657808201518184015260208101905062000279565b60008484015250505050565b6000620002b9620002b38462000240565b62000221565b905082815260208101848484011115620002d857620002d7620001a6565b5b620002e584828562000276565b509392505050565b600082601f830112620003055762000304620001a1565b5b815162000317848260208601620002a2565b91505092915050565b6000819050919050565b620003358162000320565b81146200034157600080fd5b50565b60008151905062000355816200032a565b92915050565b600073ffffffffffffffffffffffffffffffffffffffff82169050919050565b600062000388826200035b565b9050919050565b6200039a816200037b565b8114620003a657600080fd5b50565b600081519050620003ba816200038f565b92915050565b600080600080600080600080610100898b031215620003e457620003e362000197565b5b600089015167ffffffffffffffff8111156200040557620004046200019c565b5b620004138b828c01620002ed565b985050602089015167ffffffffffffffff8111156200043757620004366200019c565b5b620004458b828c01620002ed565b9750506040620004588b828c0162000344565b96505060606200046b8b828c0162000344565b95505060806200047e8b828c0162000344565b94505060a0620004918b828c0162000344565b93505060c0620004a48b828c01620003a9565b92505060e0620004b78b828c01620003a9565b9150509295985092959890939650565b600081519050919050565b600082825260208201905092915050565b6000620004f082620004c7565b620004fc8185620004d2565b93506200050e81856020860162000276565b6200051981620001ab565b840191505092915050565b6200052f816200037b565b82525050565b60006080820190508181036000830152620005518187620004e3565b90508181036020830152620005678186620004e3565b905062000578604083018562000524565b62000587606083018462000524565b95945050505050565b61482f80620005a06000396000f3fe60806040526004361061021a5760003560e01c806397304ced11610123578063d289dcbf116100ab578063f11f46ef1161006f578063f11f46ef14610768578063f2fde38b14610793578063fb5c8bfd146107bc578063fc0c546a146107e7578063fdc7cce3146108125761021a565b8063d289dcbf14610681578063d32f1c40146106aa578063da35c664146106e7578063dfcbd8f414610712578063e9fab0551461073d5761021a565b8063b8f96b6f116100f2578063b8f96b6f146105bf578063bb6c74b7146105e8578063c9d27afe14610611578063cec724791461063a578063d0febe4c146106775761021a565b806397304ced1461052b578063977613821461055457806398fe56911461056b578063ad3bcade146105945761021a565b806365e481e2116101a65780637d007ac1116101755780637d007ac11461045a578063818894991461048357806381e6830f146104ac5780638c91b638146104c35780638da5cb5b146105005761021a565b806365e481e2146103b45780637297bbe7146103dd578063779972da146104085780637bd58bee146104315761021a565b80633fd8b02f116101ed5780633fd8b02f146102f75780634091e8f014610322578063479f738a1461034b5780635652077c1461036257806360855bf71461038b5761021a565b8063013cf08b1461021f57806305d0f15b14610264578063301099621461028f57806334f89012146102ba575b600080fd5b34801561022b57600080fd5b506102466004803603810190610241919061341e565b610829565b60405161025b99989796959493929190613546565b60405180910390f35b34801561027057600080fd5b506102796109b4565b60405161028691906135e1565b60405180910390f35b34801561029b57600080fd5b506102a46109ba565b6040516102b191906135e1565b60405180910390f35b3480156102c657600080fd5b506102e160048036038101906102dc9190613628565b6109c0565b6040516102ee91906135e1565b60405180910390f35b34801561030357600080fd5b5061030c6109d8565b60405161031991906135e1565b60405180910390f35b34801561032e57600080fd5b5061034960048036038101906103449190613628565b6109de565b005b34801561035757600080fd5b50610360610b7e565b005b34801561036e57600080fd5b506103896004803603810190610384919061341e565b610e4a565b005b34801561039757600080fd5b506103b260048036038101906103ad919061341e565b611182565b005b3480156103c057600080fd5b506103db60048036038101906103d6919061378a565b6112fd565b005b3480156103e957600080fd5b506103f2611571565b6040516103ff91906135e1565b60405180910390f35b34801561041457600080fd5b5061042f600480360381019061042a919061341e565b611577565b005b34801561043d57600080fd5b506104586004803603810190610453919061341e565b6116f2565b005b34801561046657600080fd5b50610481600480360381019061047c919061341e565b6119a1565b005b34801561048f57600080fd5b506104aa60048036038101906104a5919061341e565b611b1c565b005b3480156104b857600080fd5b506104c1611c97565b005b3480156104cf57600080fd5b506104ea60048036038101906104e59190613628565b611e54565b6040516104f791906135e1565b60405180910390f35b34801561050c57600080fd5b50610515611e6c565b6040516105229190613802565b60405180910390f35b34801561053757600080fd5b50610552600480360381019061054d919061341e565b611e92565b005b34801561056057600080fd5b50610569612093565b005b34801561057757600080fd5b50610592600480360381019061058d919061341e565b6121bf565b005b3480156105a057600080fd5b506105a961246e565b6040516105b69190613802565b60405180910390f35b3480156105cb57600080fd5b506105e660048036038101906105e1919061341e565b612494565b005b3480156105f457600080fd5b5061060f600480360381019061060a919061341e565b61260f565b005b34801561061d57600080fd5b5061063860048036038101906106339190613849565b61278a565b005b34801561064657600080fd5b50610661600480360381019061065c9190613628565b612ade565b60405161066e91906135e1565b60405180910390f35b61067f612af6565b005b34801561068d57600080fd5b506106a860048036038101906106a39190613628565b612dd2565b005b3480156106b657600080fd5b506106d160048036038101906106cc9190613628565b612e59565b6040516106de91906135e1565b60405180910390f35b3480156106f357600080fd5b506106fc612e71565b60405161070991906135e1565b60405180910390f35b34801561071e57600080fd5b50610727612e7b565b60405161073491906135e1565b60405180910390f35b34801561074957600080fd5b50610752612e81565b60405161075f91906135e1565b60405180910390f35b34801561077457600080fd5b5061077d612e87565b60405161078a9190613889565b60405180910390f35b34801561079f57600080fd5b506107ba60048036038101906107b59190613628565b612e9a565b005b3480156107c857600080fd5b506107d16130be565b6040516107de9190613903565b60405180910390f35b3480156107f357600080fd5b506107fc6130e4565b604051610809919061393f565b60405180910390f35b34801561081e57600080fd5b50610827613108565b005b60096020528060005260406000206000915090508060000154908060010160009054906101000a900473ffffffffffffffffffffffffffffffffffffffff169080600201805461087890613989565b80601f01602080910402602001604051908101604052809291908181526020018280546108a490613989565b80156108f15780601f106108c6576101008083540402835291602001916108f1565b820191906000526020600020905b8154815290600101906020018083116108d457829003601f168201915b50505050509080600301805461090690613989565b80601f016020809104026020016040519081016040528092919081815260200182805461093290613989565b801561097f5780601f106109545761010080835404028352916020019161097f565b820191906000526020600020905b81548152906001019060200180831161096257829003601f168201915b5050505050908060040154908060050154908060060154908060070154908060080160009054906101000a900460ff16905089565b60025481565b60045481565b600d6020528060005260406000206000915090505481565b60035481565b600e60009054906101000a900473ffffffffffffffffffffffffffffffffffffffff1673ffffffffffffffffffffffffffffffffffffffff163373ffffffffffffffffffffffffffffffffffffffff1614610a6e576040517f08c379a0000000000000000000000000000000000000000000000000000000008152600401610a6590613a06565b60405180910390fd5b7fdc51d0d56e27cc4e7bf8557bded1a7c133bb01b7338bfe52293f0454cf23268f33600e60009054906101000a900473ffffffffffffffffffffffffffffffffffffffff1683604051610ac393929190613a72565b60405180910390a1600073ffffffffffffffffffffffffffffffffffffffff168173ffffffffffffffffffffffffffffffffffffffff1603610b3a576040517f08c379a0000000000000000000000000000000000000000000000000000000008152600401610b3190613b08565b60405180910390fd5b80600f60006101000a81548173ffffffffffffffffffffffffffffffffffffffff021916908373ffffffffffffffffffffffffffffffffffffffff16021790555050565b600f60149054906101000a900460ff1615610bce576040517f08c379a0000000000000000000000000000000000000000000000000000000008152600401610bc590613b74565b60405180910390fd5b600073ffffffffffffffffffffffffffffffffffffffff16600f60009054906101000a900473ffffffffffffffffffffffffffffffffffffffff1673ffffffffffffffffffffffffffffffffffffffff1603610c5f576040517f08c379a0000000000000000000000000000000000000000000000000000000008152600401610c5690613be0565b60405180910390fd5b600b60003373ffffffffffffffffffffffffffffffffffffffff1673ffffffffffffffffffffffffffffffffffffffff16815260200190815260200160002054421015610ce1576040517f08c379a0000000000000000000000000000000000000000000000000000000008152600401610cd890613c4c565b60405180910390fd5b6000600a60003373ffffffffffffffffffffffffffffffffffffffff1673ffffffffffffffffffffffffffffffffffffffff1681526020019081526020016000205490506000600a60003373ffffffffffffffffffffffffffffffffffffffff1673ffffffffffffffffffffffffffffffffffffffff1681526020019081526020016000208190555060008054906101000a900473ffffffffffffffffffffffffffffffffffffffff1673ffffffffffffffffffffffffffffffffffffffff1663a9059cbb33836040518363ffffffff1660e01b8152600401610dc5929190613c6c565b6020604051808303816000875af1158015610de4573d6000803e3d6000fd5b505050506040513d601f19601f82011682018060405250810190610e089190613caa565b610e47576040517f08c379a0000000000000000000000000000000000000000000000000000000008152600401610e3e90613d23565b60405180910390fd5b50565b600f60149054906101000a900460ff1615610e9a576040517f08c379a0000000000000000000000000000000000000000000000000000000008152600401610e9190613b74565b60405180910390fd5b600073ffffffffffffffffffffffffffffffffffffffff16600f60009054906101000a900473ffffffffffffffffffffffffffffffffffffffff1673ffffffffffffffffffffffffffffffffffffffff1603610f2b576040517f08c379a0000000000000000000000000000000000000000000000000000000008152600401610f2290613be0565b60405180910390fd5b60006009600083815260200190815260200160002090508060050154421015610f89576040517f08c379a0000000000000000000000000000000000000000000000000000000008152600401610f8090613d8f565b60405180910390fd5b8060080160009054906101000a900460ff1615610fdb576040517f08c379a0000000000000000000000000000000000000000000000000000000008152600401610fd290613dfb565b60405180910390fd5b600060055460008054906101000a900473ffffffffffffffffffffffffffffffffffffffff1673ffffffffffffffffffffffffffffffffffffffff166318160ddd6040518163ffffffff1660e01b8152600401602060405180830381865afa15801561104b573d6000803e3d6000fd5b505050506040513d601f19601f8201168201806040525081019061106f9190613e30565b6110799190613ebb565b90506000600160009054906101000a900473ffffffffffffffffffffffffffffffffffffffff1673ffffffffffffffffffffffffffffffffffffffff1663d95baddf84600601548560070154856040518463ffffffff1660e01b81526004016110e493929190613eec565b602060405180830381865afa158015611101573d6000803e3d6000fd5b505050506040513d601f19601f820116820180604052508101906111259190613caa565b905060018360080160006101000a81548160ff021916908315150217905550837f82693b732f9696c8a914b820dd6c52544bd61b844bbd4c8707253df9340cf6b7826040516111749190613889565b60405180910390a250505050565b600e60009054906101000a900473ffffffffffffffffffffffffffffffffffffffff1673ffffffffffffffffffffffffffffffffffffffff163373ffffffffffffffffffffffffffffffffffffffff1614611212576040517f08c379a000000000000000000000000000000000000000000000000000000000815260040161120990613a06565b60405180910390fd5b600f60149054906101000a900460ff1615611262576040517f08c379a000000000000000000000000000000000000000000000000000000000815260040161125990613b74565b60405180910390fd5b600073ffffffffffffffffffffffffffffffffffffffff16600f60009054906101000a900473ffffffffffffffffffffffffffffffffffffffff1673ffffffffffffffffffffffffffffffffffffffff16036112f3576040517f08c379a00000000000000000000000000000000000000000000000000000000081526004016112ea90613be0565b60405180910390fd5b8060078190555050565b600f60149054906101000a900460ff161561134d576040517f08c379a000000000000000000000000000000000000000000000000000000000815260040161134490613b74565b60405180910390fd5b600073ffffffffffffffffffffffffffffffffffffffff16600f60009054906101000a900473ffffffffffffffffffffffffffffffffffffffff1673ffffffffffffffffffffffffffffffffffffffff16036113de576040517f08c379a00000000000000000000000000000000000000000000000000000000081526004016113d590613be0565b60405180910390fd5b600754600c60003373ffffffffffffffffffffffffffffffffffffffff1673ffffffffffffffffffffffffffffffffffffffff168152602001908152602001600020541015611462576040517f08c379a000000000000000000000000000000000000000000000000000000000815260040161145990613f6f565b60405180910390fd5b6008600081548092919061147590613f8f565b9190505550600060096000600854815260200190815260200160002090506008548160000181905550338160010160006101000a81548173ffffffffffffffffffffffffffffffffffffffff021916908373ffffffffffffffffffffffffffffffffffffffff160217905550828160020190816114f29190614179565b50818160030190816115049190614179565b504281600401819055506004544261151c919061424b565b81600501819055503373ffffffffffffffffffffffffffffffffffffffff1681600001547fcd423cc1203c0af96b9b3d68d73b3064a69de2d14450bb7181c5e5df2132b35860405160405180910390a3505050565b60055481565b600e60009054906101000a900473ffffffffffffffffffffffffffffffffffffffff1673ffffffffffffffffffffffffffffffffffffffff163373ffffffffffffffffffffffffffffffffffffffff1614611607576040517f08c379a00000000000000000000000000000000000000000000000000000000081526004016115fe90613a06565b60405180910390fd5b600f60149054906101000a900460ff1615611657576040517f08c379a000000000000000000000000000000000000000000000000000000000815260040161164e90613b74565b60405180910390fd5b600073ffffffffffffffffffffffffffffffffffffffff16600f60009054906101000a900473ffffffffffffffffffffffffffffffffffffffff1673ffffffffffffffffffffffffffffffffffffffff16036116e8576040517f08c379a00000000000000000000000000000000000000000000000000000000081526004016116df90613be0565b60405180910390fd5b8060038190555050565b600f60149054906101000a900460ff1615611742576040517f08c379a000000000000000000000000000000000000000000000000000000000815260040161173990613b74565b60405180910390fd5b600073ffffffffffffffffffffffffffffffffffffffff16600f60009054906101000a900473ffffffffffffffffffffffffffffffffffffffff1673ffffffffffffffffffffffffffffffffffffffff16036117d3576040517f08c379a00000000000000000000000000000000000000000000000000000000081526004016117ca90613be0565b60405180910390fd5b600754811015611818576040517f08c379a000000000000000000000000000000000000000000000000000000000815260040161180f90613f6f565b60405180910390fd5b60008054906101000a900473ffffffffffffffffffffffffffffffffffffffff1673ffffffffffffffffffffffffffffffffffffffff166323b872dd3330846040518463ffffffff1660e01b81526004016118759392919061427f565b6020604051808303816000875af1158015611894573d6000803e3d6000fd5b505050506040513d601f19601f820116820180604052508101906118b89190613caa565b6118f7576040517f08c379a00000000000000000000000000000000000000000000000000000000081526004016118ee90613d23565b60405180910390fd5b80600c60003373ffffffffffffffffffffffffffffffffffffffff1673ffffffffffffffffffffffffffffffffffffffff1681526020019081526020016000206000828254611946919061424b565b925050819055506003544261195b919061424b565b600d60003373ffffffffffffffffffffffffffffffffffffffff1673ffffffffffffffffffffffffffffffffffffffff1681526020019081526020016000208190555050565b600e60009054906101000a900473ffffffffffffffffffffffffffffffffffffffff1673ffffffffffffffffffffffffffffffffffffffff163373ffffffffffffffffffffffffffffffffffffffff1614611a31576040517f08c379a0000000000000000000000000000000000000000000000000000000008152600401611a2890613a06565b60405180910390fd5b600f60149054906101000a900460ff1615611a81576040517f08c379a0000000000000000000000000000000000000000000000000000000008152600401611a7890613b74565b60405180910390fd5b600073ffffffffffffffffffffffffffffffffffffffff16600f60009054906101000a900473ffffffffffffffffffffffffffffffffffffffff1673ffffffffffffffffffffffffffffffffffffffff1603611b12576040517f08c379a0000000000000000000000000000000000000000000000000000000008152600401611b0990613be0565b60405180910390fd5b8060048190555050565b600e60009054906101000a900473ffffffffffffffffffffffffffffffffffffffff1673ffffffffffffffffffffffffffffffffffffffff163373ffffffffffffffffffffffffffffffffffffffff1614611bac576040517f08c379a0000000000000000000000000000000000000000000000000000000008152600401611ba390613a06565b60405180910390fd5b600f60149054906101000a900460ff1615611bfc576040517f08c379a0000000000000000000000000000000000000000000000000000000008152600401611bf390613b74565b60405180910390fd5b600073ffffffffffffffffffffffffffffffffffffffff16600f60009054906101000a900473ffffffffffffffffffffffffffffffffffffffff1673ffffffffffffffffffffffffffffffffffffffff1603611c8d576040517f08c379a0000000000000000000000000000000000000000000000000000000008152600401611c8490613be0565b60405180910390fd5b8060068190555050565b600e60009054906101000a900473ffffffffffffffffffffffffffffffffffffffff1673ffffffffffffffffffffffffffffffffffffffff163373ffffffffffffffffffffffffffffffffffffffff1614611d27576040517f08c379a0000000000000000000000000000000000000000000000000000000008152600401611d1e90613a06565b60405180910390fd5b7fdc51d0d56e27cc4e7bf8557bded1a7c133bb01b7338bfe52293f0454cf23268f33600e60009054906101000a900473ffffffffffffffffffffffffffffffffffffffff16600f60009054906101000a900473ffffffffffffffffffffffffffffffffffffffff16604051611d9e93929190614302565b60405180910390a1600073ffffffffffffffffffffffffffffffffffffffff16600f60009054906101000a900473ffffffffffffffffffffffffffffffffffffffff1673ffffffffffffffffffffffffffffffffffffffff1603611e37576040517f08c379a0000000000000000000000000000000000000000000000000000000008152600401611e2e90613be0565b60405180910390fd5b6001600f60146101000a81548160ff021916908315150217905550565b600a6020528060005260406000206000915090505481565b600e60009054906101000a900473ffffffffffffffffffffffffffffffffffffffff1681565b600e60009054906101000a900473ffffffffffffffffffffffffffffffffffffffff1673ffffffffffffffffffffffffffffffffffffffff163373ffffffffffffffffffffffffffffffffffffffff1614611f22576040517f08c379a0000000000000000000000000000000000000000000000000000000008152600401611f1990613a06565b60405180910390fd5b600f60149054906101000a900460ff1615611f72576040517f08c379a0000000000000000000000000000000000000000000000000000000008152600401611f6990613b74565b60405180910390fd5b600073ffffffffffffffffffffffffffffffffffffffff16600f60009054906101000a900473ffffffffffffffffffffffffffffffffffffffff1673ffffffffffffffffffffffffffffffffffffffff1603612003576040517f08c379a0000000000000000000000000000000000000000000000000000000008152600401611ffa90613be0565b60405180910390fd5b60008054906101000a900473ffffffffffffffffffffffffffffffffffffffff1673ffffffffffffffffffffffffffffffffffffffff166340c10f1930836040518363ffffffff1660e01b815260040161205e929190613c6c565b600060405180830381600087803b15801561207857600080fd5b505af115801561208c573d6000803e3d6000fd5b5050505050565b7fdc51d0d56e27cc4e7bf8557bded1a7c133bb01b7338bfe52293f0454cf23268f33600e60009054906101000a900473ffffffffffffffffffffffffffffffffffffffff16600f60009054906101000a900473ffffffffffffffffffffffffffffffffffffffff1660405161210a93929190614398565b60405180910390a1600f60009054906101000a900473ffffffffffffffffffffffffffffffffffffffff1673ffffffffffffffffffffffffffffffffffffffff163373ffffffffffffffffffffffffffffffffffffffff16146121a2576040517f08c379a000000000000000000000000000000000000000000000000000000000815260040161219990614454565b60405180910390fd5b6000600f60146101000a81548160ff021916908315150217905550565b600f60149054906101000a900460ff161561220f576040517f08c379a000000000000000000000000000000000000000000000000000000000815260040161220690613b74565b60405180910390fd5b600073ffffffffffffffffffffffffffffffffffffffff16600f60009054906101000a900473ffffffffffffffffffffffffffffffffffffffff1673ffffffffffffffffffffffffffffffffffffffff16036122a0576040517f08c379a000000000000000000000000000000000000000000000000000000000815260040161229790613be0565b60405180910390fd5b6006548110156122e5576040517f08c379a00000000000000000000000000000000000000000000000000000000081526004016122dc906144c0565b60405180910390fd5b60008054906101000a900473ffffffffffffffffffffffffffffffffffffffff1673ffffffffffffffffffffffffffffffffffffffff166323b872dd3330846040518463ffffffff1660e01b81526004016123429392919061427f565b6020604051808303816000875af1158015612361573d6000803e3d6000fd5b505050506040513d601f19601f820116820180604052508101906123859190613caa565b6123c4576040517f08c379a00000000000000000000000000000000000000000000000000000000081526004016123bb90613d23565b60405180910390fd5b80600a60003373ffffffffffffffffffffffffffffffffffffffff1673ffffffffffffffffffffffffffffffffffffffff1681526020019081526020016000206000828254612413919061424b565b9250508190555060035442612428919061424b565b600b60003373ffffffffffffffffffffffffffffffffffffffff1673ffffffffffffffffffffffffffffffffffffffff1681526020019081526020016000208190555050565b600f60009054906101000a900473ffffffffffffffffffffffffffffffffffffffff1681565b600e60009054906101000a900473ffffffffffffffffffffffffffffffffffffffff1673ffffffffffffffffffffffffffffffffffffffff163373ffffffffffffffffffffffffffffffffffffffff1614612524576040517f08c379a000000000000000000000000000000000000000000000000000000000815260040161251b90613a06565b60405180910390fd5b600f60149054906101000a900460ff1615612574576040517f08c379a000000000000000000000000000000000000000000000000000000000815260040161256b90613b74565b60405180910390fd5b600073ffffffffffffffffffffffffffffffffffffffff16600f60009054906101000a900473ffffffffffffffffffffffffffffffffffffffff1673ffffffffffffffffffffffffffffffffffffffff1603612605576040517f08c379a00000000000000000000000000000000000000000000000000000000081526004016125fc90613be0565b60405180910390fd5b8060058190555050565b600e60009054906101000a900473ffffffffffffffffffffffffffffffffffffffff1673ffffffffffffffffffffffffffffffffffffffff163373ffffffffffffffffffffffffffffffffffffffff161461269f576040517f08c379a000000000000000000000000000000000000000000000000000000000815260040161269690613a06565b60405180910390fd5b600f60149054906101000a900460ff16156126ef576040517f08c379a00000000000000000000000000000000000000000000000000000000081526004016126e690613b74565b60405180910390fd5b600073ffffffffffffffffffffffffffffffffffffffff16600f60009054906101000a900473ffffffffffffffffffffffffffffffffffffffff1673ffffffffffffffffffffffffffffffffffffffff1603612780576040517f08c379a000000000000000000000000000000000000000000000000000000000815260040161277790613be0565b60405180910390fd5b8060028190555050565b600f60149054906101000a900460ff16156127da576040517f08c379a00000000000000000000000000000000000000000000000000000000081526004016127d190613b74565b60405180910390fd5b600073ffffffffffffffffffffffffffffffffffffffff16600f60009054906101000a900473ffffffffffffffffffffffffffffffffffffffff1673ffffffffffffffffffffffffffffffffffffffff160361286b576040517f08c379a000000000000000000000000000000000000000000000000000000000815260040161286290613be0565b60405180910390fd5b6000600960008481526020019081526020016000209050806005015442106128c8576040517f08c379a00000000000000000000000000000000000000000000000000000000081526004016128bf9061452c565b60405180910390fd5b8060090160003373ffffffffffffffffffffffffffffffffffffffff1673ffffffffffffffffffffffffffffffffffffffff16815260200190815260200160002060009054906101000a900460ff1615612957576040517f08c379a000000000000000000000000000000000000000000000000000000000815260040161294e90614598565b60405180910390fd5b6000600554600a60003373ffffffffffffffffffffffffffffffffffffffff1673ffffffffffffffffffffffffffffffffffffffff168152602001908152602001600020546129a69190613ebb565b9050600081116129eb576040517f08c379a00000000000000000000000000000000000000000000000000000000081526004016129e290614604565b60405180910390fd5b8215612a115780826006016000828254612a05919061424b565b92505081905550612a2d565b80826007016000828254612a25919061424b565b925050819055505b60018260090160003373ffffffffffffffffffffffffffffffffffffffff1673ffffffffffffffffffffffffffffffffffffffff16815260200190815260200160002060006101000a81548160ff0219169083151502179055503373ffffffffffffffffffffffffffffffffffffffff16847f7c2de587c00d75474a0c6c6fa96fd3b45dc974cd4e8a75f712bb84c950dce1b58584604051612ad0929190614624565b60405180910390a350505050565b600b6020528060005260406000206000915090505481565b600f60149054906101000a900460ff1615612b46576040517f08c379a0000000000000000000000000000000000000000000000000000000008152600401612b3d90613b74565b60405180910390fd5b600073ffffffffffffffffffffffffffffffffffffffff16600f60009054906101000a900473ffffffffffffffffffffffffffffffffffffffff1673ffffffffffffffffffffffffffffffffffffffff1603612bd7576040517f08c379a0000000000000000000000000000000000000000000000000000000008152600401612bce90613be0565b60405180910390fd5b600254341015612c1c576040517f08c379a0000000000000000000000000000000000000000000000000000000008152600401612c1390614699565b60405180910390fd5b6000600254670de0b6b3a764000034612c3591906146b9565b612c3f9190613ebb565b905060008060009054906101000a900473ffffffffffffffffffffffffffffffffffffffff1673ffffffffffffffffffffffffffffffffffffffff166370a08231306040518263ffffffff1660e01b8152600401612c9d9190613802565b602060405180830381865afa158015612cba573d6000803e3d6000fd5b505050506040513d601f19601f82011682018060405250810190612cde9190613e30565b905080821115612cec578091505b60008211612d2f576040517f08c379a0000000000000000000000000000000000000000000000000000000008152600401612d269061476d565b60405180910390fd5b60008054906101000a900473ffffffffffffffffffffffffffffffffffffffff1673ffffffffffffffffffffffffffffffffffffffff1663a9059cbb33846040518363ffffffff1660e01b8152600401612d8a929190613c6c565b6020604051808303816000875af1158015612da9573d6000803e3d6000fd5b505050506040513d601f19601f82011682018060405250810190612dcd9190613caa565b505050565b80600160006101000a81548173ffffffffffffffffffffffffffffffffffffffff021916908373ffffffffffffffffffffffffffffffffffffffff1602179055508073ffffffffffffffffffffffffffffffffffffffff167fafd1cdc355e15bfc9038294be1c6203ce953704fda8c991bebe78ddd4d5420d160405160405180910390a250565b600c6020528060005260406000206000915090505481565b6000600854905090565b60065481565b60075481565b600f60149054906101000a900460ff1681565b600e60009054906101000a900473ffffffffffffffffffffffffffffffffffffffff1673ffffffffffffffffffffffffffffffffffffffff163373ffffffffffffffffffffffffffffffffffffffff1614612f2a576040517f08c379a0000000000000000000000000000000000000000000000000000000008152600401612f2190613a06565b60405180910390fd5b600f60149054906101000a900460ff1615612f7a576040517f08c379a0000000000000000000000000000000000000000000000000000000008152600401612f7190613b74565b60405180910390fd5b600073ffffffffffffffffffffffffffffffffffffffff16600f60009054906101000a900473ffffffffffffffffffffffffffffffffffffffff1673ffffffffffffffffffffffffffffffffffffffff160361300b576040517f08c379a000000000000000000000000000000000000000000000000000000000815260040161300290613be0565b60405180910390fd5b600073ffffffffffffffffffffffffffffffffffffffff168173ffffffffffffffffffffffffffffffffffffffff160361307a576040517f08c379a0000000000000000000000000000000000000000000000000000000008152600401613071906147d9565b60405180910390fd5b80600e60006101000a81548173ffffffffffffffffffffffffffffffffffffffff021916908373ffffffffffffffffffffffffffffffffffffffff16021790555050565b600160009054906101000a900473ffffffffffffffffffffffffffffffffffffffff1681565b60008054906101000a900473ffffffffffffffffffffffffffffffffffffffff1681565b600f60149054906101000a900460ff1615613158576040517f08c379a000000000000000000000000000000000000000000000000000000000815260040161314f90613b74565b60405180910390fd5b600073ffffffffffffffffffffffffffffffffffffffff16600f60009054906101000a900473ffffffffffffffffffffffffffffffffffffffff1673ffffffffffffffffffffffffffffffffffffffff16036131e9576040517f08c379a00000000000000000000000000000000000000000000000000000000081526004016131e090613be0565b60405180910390fd5b600d60003373ffffffffffffffffffffffffffffffffffffffff1673ffffffffffffffffffffffffffffffffffffffff1681526020019081526020016000205442101561326b576040517f08c379a000000000000000000000000000000000000000000000000000000000815260040161326290613c4c565b60405180910390fd5b6000600c60003373ffffffffffffffffffffffffffffffffffffffff1673ffffffffffffffffffffffffffffffffffffffff1681526020019081526020016000205490506000600c60003373ffffffffffffffffffffffffffffffffffffffff1673ffffffffffffffffffffffffffffffffffffffff1681526020019081526020016000208190555060008054906101000a900473ffffffffffffffffffffffffffffffffffffffff1673ffffffffffffffffffffffffffffffffffffffff1663a9059cbb33836040518363ffffffff1660e01b815260040161334f929190613c6c565b6020604051808303816000875af115801561336e573d6000803e3d6000fd5b505050506040513d601f19601f820116820180604052508101906133929190613caa565b6133d1576040517f08c379a00000000000000000000000000000000000000000000000000000000081526004016133c890613d23565b60405180910390fd5b50565b6000604051905090565b600080fd5b600080fd5b6000819050919050565b6133fb816133e8565b811461340657600080fd5b50565b600081359050613418816133f2565b92915050565b600060208284031215613434576134336133de565b5b600061344284828501613409565b91505092915050565b613454816133e8565b82525050565b600073ffffffffffffffffffffffffffffffffffffffff82169050919050565b60006134858261345a565b9050919050565b6134958161347a565b82525050565b600081519050919050565b600082825260208201905092915050565b60005b838110156134d55780820151818401526020810190506134ba565b60008484015250505050565b6000601f19601f8301169050919050565b60006134fd8261349b565b61350781856134a6565b93506135178185602086016134b7565b613520816134e1565b840191505092915050565b60008115159050919050565b6135408161352b565b82525050565b60006101208201905061355c600083018c61344b565b613569602083018b61348c565b818103604083015261357b818a6134f2565b9050818103606083015261358f81896134f2565b905061359e608083018861344b565b6135ab60a083018761344b565b6135b860c083018661344b565b6135c560e083018561344b565b6135d3610100830184613537565b9a9950505050505050505050565b60006020820190506135f6600083018461344b565b92915050565b6136058161347a565b811461361057600080fd5b50565b600081359050613622816135fc565b92915050565b60006020828403121561363e5761363d6133de565b5b600061364c84828501613613565b91505092915050565b600080fd5b600080fd5b7f4e487b7100000000000000000000000000000000000000000000000000000000600052604160045260246000fd5b613697826134e1565b810181811067ffffffffffffffff821117156136b6576136b561365f565b5b80604052505050565b60006136c96133d4565b90506136d5828261368e565b919050565b600067ffffffffffffffff8211156136f5576136f461365f565b5b6136fe826134e1565b9050602081019050919050565b82818337600083830152505050565b600061372d613728846136da565b6136bf565b9050828152602081018484840111156137495761374861365a565b5b61375484828561370b565b509392505050565b600082601f83011261377157613770613655565b5b813561378184826020860161371a565b91505092915050565b600080604083850312156137a1576137a06133de565b5b600083013567ffffffffffffffff8111156137bf576137be6133e3565b5b6137cb8582860161375c565b925050602083013567ffffffffffffffff8111156137ec576137eb6133e3565b5b6137f88582860161375c565b9150509250929050565b6000602082019050613817600083018461348c565b92915050565b6138268161352b565b811461383157600080fd5b50565b6000813590506138438161381d565b92915050565b600080604083850312156138605761385f6133de565b5b600061386e85828601613409565b925050602061387f85828601613834565b9150509250929050565b600060208201905061389e6000830184613537565b92915050565b6000819050919050565b60006138c96138c46138bf8461345a565b6138a4565b61345a565b9050919050565b60006138db826138ae565b9050919050565b60006138ed826138d0565b9050919050565b6138fd816138e2565b82525050565b600060208201905061391860008301846138f4565b92915050565b6000613929826138d0565b9050919050565b6139398161391e565b82525050565b60006020820190506139546000830184613930565b92915050565b7f4e487b7100000000000000000000000000000000000000000000000000000000600052602260045260246000fd5b600060028204905060018216806139a157607f821691505b6020821081036139b4576139b361395a565b5b50919050565b7f4f6e6c79206f776e657200000000000000000000000000000000000000000000600082015250565b60006139f0600a836134a6565b91506139fb826139ba565b602082019050919050565b60006020820190508181036000830152613a1f816139e3565b9050919050565b7f73657450616e696357616c6c6574000000000000000000000000000000000000600082015250565b6000613a5c600e836134a6565b9150613a6782613a26565b602082019050919050565b6000608082019050613a87600083018661348c565b613a94602083018561348c565b613aa1604083018461348c565b8181036060830152613ab281613a4f565b9050949350505050565b7f50616e69632077616c6c657420696e76616c6964610000000000000000000000600082015250565b6000613af26015836134a6565b9150613afd82613abc565b602082019050919050565b60006020820190508181036000830152613b2181613ae5565b9050919050565b7f44414f20656e2070616e69636f00000000000000000000000000000000000000600082015250565b6000613b5e600d836134a6565b9150613b6982613b28565b602082019050919050565b60006020820190508181036000830152613b8d81613b51565b9050919050565b7f50616e69632077616c6c6574206e6f20636f6e66696775726164610000000000600082015250565b6000613bca601b836134a6565b9150613bd582613b94565b602082019050919050565b60006020820190508181036000830152613bf981613bbd565b9050919050565b7f4c6f636b20706572696f64206e6f742070617373656400000000000000000000600082015250565b6000613c366016836134a6565b9150613c4182613c00565b602082019050919050565b60006020820190508181036000830152613c6581613c29565b9050919050565b6000604082019050613c81600083018561348c565b613c8e602083018461344b565b9392505050565b600081519050613ca48161381d565b92915050565b600060208284031215613cc057613cbf6133de565b5b6000613cce84828501613c95565b91505092915050565b7f5472616e73666572206661696c65640000000000000000000000000000000000600082015250565b6000613d0d600f836134a6565b9150613d1882613cd7565b602082019050919050565b60006020820190508181036000830152613d3c81613d00565b9050919050565b7f566f74696e67207374696c6c2061637469766500000000000000000000000000600082015250565b6000613d796013836134a6565b9150613d8482613d43565b602082019050919050565b60006020820190508181036000830152613da881613d6c565b9050919050565b7f416c72656164792066696e616c697a6564000000000000000000000000000000600082015250565b6000613de56011836134a6565b9150613df082613daf565b602082019050919050565b60006020820190508181036000830152613e1481613dd8565b9050919050565b600081519050613e2a816133f2565b92915050565b600060208284031215613e4657613e456133de565b5b6000613e5484828501613e1b565b91505092915050565b7f4e487b7100000000000000000000000000000000000000000000000000000000600052601260045260246000fd5b7f4e487b7100000000000000000000000000000000000000000000000000000000600052601160045260246000fd5b6000613ec6826133e8565b9150613ed1836133e8565b925082613ee157613ee0613e5d565b5b828204905092915050565b6000606082019050613f01600083018661344b565b613f0e602083018561344b565b613f1b604083018461344b565b949350505050565b7f4d696e696d6f20706172612070726f706f6e6572000000000000000000000000600082015250565b6000613f596014836134a6565b9150613f6482613f23565b602082019050919050565b60006020820190508181036000830152613f8881613f4c565b9050919050565b6000613f9a826133e8565b91507fffffffffffffffffffffffffffffffffffffffffffffffffffffffffffffffff8203613fcc57613fcb613e8c565b5b600182019050919050565b60008190508160005260206000209050919050565b60006020601f8301049050919050565b600082821b905092915050565b6000600883026140397fffffffffffffffffffffffffffffffffffffffffffffffffffffffffffffffff82613ffc565b6140438683613ffc565b95508019841693508086168417925050509392505050565b600061407661407161406c846133e8565b6138a4565b6133e8565b9050919050565b6000819050919050565b6140908361405b565b6140a461409c8261407d565b848454614009565b825550505050565b600090565b6140b96140ac565b6140c4818484614087565b505050565b5b818110156140e8576140dd6000826140b1565b6001810190506140ca565b5050565b601f82111561412d576140fe81613fd7565b61410784613fec565b81016020851015614116578190505b61412a61412285613fec565b8301826140c9565b50505b505050565b600082821c905092915050565b600061415060001984600802614132565b1980831691505092915050565b6000614169838361413f565b9150826002028217905092915050565b6141828261349b565b67ffffffffffffffff81111561419b5761419a61365f565b5b6141a58254613989565b6141b08282856140ec565b600060209050601f8311600181146141e357600084156141d1578287015190505b6141db858261415d565b865550614243565b601f1984166141f186613fd7565b60005b82811015614219578489015182556001820191506020850194506020810190506141f4565b868310156142365784890151614232601f89168261413f565b8355505b6001600288020188555050505b505050505050565b6000614256826133e8565b9150614261836133e8565b925082820190508082111561427957614278613e8c565b5b92915050565b6000606082019050614294600083018661348c565b6142a1602083018561348c565b6142ae604083018461344b565b949350505050565b7f70616e69636f0000000000000000000000000000000000000000000000000000600082015250565b60006142ec6006836134a6565b91506142f7826142b6565b602082019050919050565b6000608082019050614317600083018661348c565b614324602083018561348c565b614331604083018461348c565b8181036060830152614342816142df565b9050949350505050565b7f7472616e7175696c696461640000000000000000000000000000000000000000600082015250565b6000614382600c836134a6565b915061438d8261434c565b602082019050919050565b60006080820190506143ad600083018661348c565b6143ba602083018561348c565b6143c7604083018461348c565b81810360608301526143d881614375565b9050949350505050565b7f536f6c6f206c612070616e69632077616c6c6574207075656465207472616e7160008201527f75696c697a617200000000000000000000000000000000000000000000000000602082015250565b600061443e6027836134a6565b9150614449826143e2565b604082019050919050565b6000602082019050818103600083015261446d81614431565b9050919050565b7f4d696e696d6f207061726120766f746172000000000000000000000000000000600082015250565b60006144aa6011836134a6565b91506144b582614474565b602082019050919050565b600060208201905081810360008301526144d98161449d565b9050919050565b7f566f74696e6720706572696f6420656e64656400000000000000000000000000600082015250565b60006145166013836134a6565b9150614521826144e0565b602082019050919050565b6000602082019050818103600083015261454581614509565b9050919050565b7f416c726561647920766f74656400000000000000000000000000000000000000600082015250565b6000614582600d836134a6565b915061458d8261454c565b602082019050919050565b600060208201905081810360008301526145b181614575565b9050919050565b7f4e6f207374616b656420746f6b656e7320746f20766f74650000000000000000600082015250565b60006145ee6018836134a6565b91506145f9826145b8565b602082019050919050565b6000602082019050818103600083015261461d816145e1565b9050919050565b60006040820190506146396000830185613537565b614646602083018461344b565b9392505050565b7f496e73756666696369656e742045544800000000000000000000000000000000600082015250565b60006146836010836134a6565b915061468e8261464d565b602082019050919050565b600060208201905081810360008301526146b281614676565b9050919050565b60006146c4826133e8565b91506146cf836133e8565b92508282026146dd816133e8565b915082820484148315176146f4576146f3613e8c565b5b5092915050565b7f4e6f2068617920746f6b656e7320646973706f6e69626c65732070617261206360008201527f6f6d707261720000000000000000000000000000000000000000000000000000602082015250565b60006147576026836134a6565b9150614762826146fb565b604082019050919050565b600060208201905081810360008301526147868161474a565b9050919050565b7f4e7565766f206f776e657220696e76616c69646f000000000000000000000000600082015250565b60006147c36014836134a6565b91506147ce8261478d565b602082019050919050565b600060208201905081810360008301526147f2816147b6565b905091905056fea2646970667358221220e01e3c1ecd39689c28f665e5ef48ebadc97cfb5cddece40c99a2e9355be4200864736f6c6343000814003360806040523480156200001157600080fd5b50604051620017d4380380620017d48339818101604052810190620000379190620002e3565b838381600390816200004a9190620005de565b5080600490816200005c9190620005de565b50505081600560006101000a81548173ffffffffffffffffffffffffffffffffffffffff021916908373ffffffffffffffffffffffffffffffffffffffff16021790555080600660006101000a81548173ffffffffffffffffffffffffffffffffffffffff021916908373ffffffffffffffffffffffffffffffffffffffff16021790555050505050620006c5565b6000604051905090565b600080fd5b600080fd5b600080fd5b600080fd5b6000601f19601f8301169050919050565b7f4e487b7100000000000000000000000000000000000000000000000000000000600052604160045260246000fd5b620001548262000109565b810181811067ffffffffffffffff821117156200017657620001756200011a565b5b80604052505050565b60006200018b620000eb565b905062000199828262000149565b919050565b600067ffffffffffffffff821115620001bc57620001bb6200011a565b5b620001c78262000109565b9050602081019050919050565b60005b83811015620001f4578082015181840152602081019050620001d7565b60008484015250505050565b60006200021762000211846200019e565b6200017f565b90508281526020810184848401111562000236576200023562000104565b5b62000243848285620001d4565b509392505050565b600082601f830112620002635762000262620000ff565b5b81516200027584826020860162000200565b91505092915050565b600073ffffffffffffffffffffffffffffffffffffffff82169050919050565b6000620002ab826200027e565b9050919050565b620002bd816200029e565b8114620002c957600080fd5b50565b600081519050620002dd81620002b2565b92915050565b600080600080608085870312156200030057620002ff620000f5565b5b600085015167ffffffffffffffff811115620003215762000320620000fa565b5b6200032f878288016200024b565b945050602085015167ffffffffffffffff811115620003535762000352620000fa565b5b62000361878288016200024b565b93505060406200037487828801620002cc565b92505060606200038787828801620002cc565b91505092959194509250565b600081519050919050565b7f4e487b7100000000000000000000000000000000000000000000000000000000600052602260045260246000fd5b60006002820490506001821680620003e657607f821691505b602082108103620003fc57620003fb6200039e565b5b50919050565b60008190508160005260206000209050919050565b60006020601f8301049050919050565b600082821b905092915050565b600060088302620004667fffffffffffffffffffffffffffffffffffffffffffffffffffffffffffffffff8262000427565b62000472868362000427565b95508019841693508086168417925050509392505050565b6000819050919050565b6000819050919050565b6000620004bf620004b9620004b3846200048a565b62000494565b6200048a565b9050919050565b6000819050919050565b620004db836200049e565b620004f3620004ea82620004c6565b84845462000434565b825550505050565b600090565b6200050a620004fb565b62000517818484620004d0565b505050565b5b818110156200053f576200053360008262000500565b6001810190506200051d565b5050565b601f8211156200058e57620005588162000402565b620005638462000417565b8101602085101562000573578190505b6200058b620005828562000417565b8301826200051c565b50505b505050565b600082821c905092915050565b6000620005b36000198460080262000593565b1980831691505092915050565b6000620005ce8383620005a0565b9150826002028217905092915050565b620005e98262000393565b67ffffffffffffffff8111156200060557620006046200011a565b5b620006118254620003cd565b6200061e82828562000543565b600060209050601f83116001811462000656576000841562000641578287015190505b6200064d8582620005c0565b865550620006bd565b601f198416620006668662000402565b60005b82811015620006905784890151825560018201915060208501945060208101905062000669565b86831015620006b05784890151620006ac601f891682620005a0565b8355505b6001600288020188555050505b505050505050565b6110ff80620006d56000396000f3fe608060405234801561001057600080fd5b50600436106100b45760003560e01c80634162169f116100715780634162169f1461018f57806370a08231146101ad5780638da5cb5b146101dd57806395d89b41146101fb578063a9059cbb14610219578063dd62ed3e14610249576100b4565b806306fdde03146100b9578063095ea7b3146100d757806318160ddd1461010757806323b872dd14610125578063313ce5671461015557806340c10f1914610173575b600080fd5b6100c1610279565b6040516100ce9190610ce7565b60405180910390f35b6100f160048036038101906100ec9190610da2565b61030b565b6040516100fe9190610dfd565b60405180910390f35b61010f61032e565b60405161011c9190610e27565b60405180910390f35b61013f600480360381019061013a9190610e42565b610338565b60405161014c9190610dfd565b60405180910390f35b61015d610367565b60405161016a9190610eb1565b60405180910390f35b61018d60048036038101906101889190610da2565b610370565b005b610197610466565b6040516101a49190610edb565b60405180910390f35b6101c760048036038101906101c29190610ef6565b61048c565b6040516101d49190610e27565b60405180910390f35b6101e56104d4565b6040516101f29190610edb565b60405180910390f35b6102036104fa565b6040516102109190610ce7565b60405180910390f35b610233600480360381019061022e9190610da2565b61058c565b6040516102409190610dfd565b60405180910390f35b610263600480360381019061025e9190610f23565b6105af565b6040516102709190610e27565b60405180910390f35b60606003805461028890610f92565b80601f01602080910402602001604051908101604052809291908181526020018280546102b490610f92565b80156103015780601f106102d657610100808354040283529160200191610301565b820191906000526020600020905b8154815290600101906020018083116102e457829003601f168201915b5050505050905090565b600080610316610636565b905061032381858561063e565b600191505092915050565b6000600254905090565b600080610343610636565b9050610350858285610650565b61035b8585856106e5565b60019150509392505050565b60006012905090565b600560009054906101000a900473ffffffffffffffffffffffffffffffffffffffff1673ffffffffffffffffffffffffffffffffffffffff163373ffffffffffffffffffffffffffffffffffffffff1614806104195750600660009054906101000a900473ffffffffffffffffffffffffffffffffffffffff1673ffffffffffffffffffffffffffffffffffffffff163373ffffffffffffffffffffffffffffffffffffffff16145b610458576040517f08c379a000000000000000000000000000000000000000000000000000000000815260040161044f9061100f565b60405180910390fd5b61046282826107d9565b5050565b600560009054906101000a900473ffffffffffffffffffffffffffffffffffffffff1681565b60008060008373ffffffffffffffffffffffffffffffffffffffff1673ffffffffffffffffffffffffffffffffffffffff168152602001908152602001600020549050919050565b600660009054906101000a900473ffffffffffffffffffffffffffffffffffffffff1681565b60606004805461050990610f92565b80601f016020809104026020016040519081016040528092919081815260200182805461053590610f92565b80156105825780601f1061055757610100808354040283529160200191610582565b820191906000526020600020905b81548152906001019060200180831161056557829003601f168201915b5050505050905090565b600080610597610636565b90506105a48185856106e5565b600191505092915050565b6000600160008473ffffffffffffffffffffffffffffffffffffffff1673ffffffffffffffffffffffffffffffffffffffff16815260200190815260200160002060008373ffffffffffffffffffffffffffffffffffffffff1673ffffffffffffffffffffffffffffffffffffffff16815260200190815260200160002054905092915050565b600033905090565b61064b838383600161085b565b505050565b600061065c84846105af565b90507fffffffffffffffffffffffffffffffffffffffffffffffffffffffffffffffff8110156106df57818110156106cf578281836040517ffb8f41b20000000000000000000000000000000000000000000000000000000081526004016106c69392919061102f565b60405180910390fd5b6106de8484848403600061085b565b5b50505050565b600073ffffffffffffffffffffffffffffffffffffffff168373ffffffffffffffffffffffffffffffffffffffff16036107575760006040517f96c6fd1e00000000000000000000000000000000000000000000000000000000815260040161074e9190610edb565b60405180910390fd5b600073ffffffffffffffffffffffffffffffffffffffff168273ffffffffffffffffffffffffffffffffffffffff16036107c95760006040517fec442f050000000000000000000000000000000000000000000000000000000081526004016107c09190610edb565b60405180910390fd5b6107d4838383610a32565b505050565b600073ffffffffffffffffffffffffffffffffffffffff168273ffffffffffffffffffffffffffffffffffffffff160361084b5760006040517fec442f050000000000000000000000000000000000000000000000000000000081526004016108429190610edb565b60405180910390fd5b61085760008383610a32565b5050565b600073ffffffffffffffffffffffffffffffffffffffff168473ffffffffffffffffffffffffffffffffffffffff16036108cd5760006040517fe602df050000000000000000000000000000000000000000000000000000000081526004016108c49190610edb565b60405180910390fd5b600073ffffffffffffffffffffffffffffffffffffffff168373ffffffffffffffffffffffffffffffffffffffff160361093f5760006040517f94280d620000000000000000000000000000000000000000000000000000000081526004016109369190610edb565b60405180910390fd5b81600160008673ffffffffffffffffffffffffffffffffffffffff1673ffffffffffffffffffffffffffffffffffffffff16815260200190815260200160002060008573ffffffffffffffffffffffffffffffffffffffff1673ffffffffffffffffffffffffffffffffffffffff168152602001908152602001600020819055508015610a2c578273ffffffffffffffffffffffffffffffffffffffff168473ffffffffffffffffffffffffffffffffffffffff167f8c5be1e5ebec7d5bd14f71427d1e84f3dd0314c0f7b2291e5b200ac8c7c3b92584604051610a239190610e27565b60405180910390a35b50505050565b600073ffffffffffffffffffffffffffffffffffffffff168373ffffffffffffffffffffffffffffffffffffffff1603610a84578060026000828254610a789190611095565b92505081905550610b57565b60008060008573ffffffffffffffffffffffffffffffffffffffff1673ffffffffffffffffffffffffffffffffffffffff16815260200190815260200160002054905081811015610b10578381836040517fe450d38c000000000000000000000000000000000000000000000000000000008152600401610b079392919061102f565b60405180910390fd5b8181036000808673ffffffffffffffffffffffffffffffffffffffff1673ffffffffffffffffffffffffffffffffffffffff16815260200190815260200160002081905550505b600073ffffffffffffffffffffffffffffffffffffffff168273ffffffffffffffffffffffffffffffffffffffff1603610ba05780600260008282540392505081905550610bed565b806000808473ffffffffffffffffffffffffffffffffffffffff1673ffffffffffffffffffffffffffffffffffffffff168152602001908152602001600020600082825401925050819055505b8173ffffffffffffffffffffffffffffffffffffffff168373ffffffffffffffffffffffffffffffffffffffff167fddf252ad1be2c89b69c2b068fc378daa952ba7f163c4a11628f55a4df523b3ef83604051610c4a9190610e27565b60405180910390a3505050565b600081519050919050565b600082825260208201905092915050565b60005b83811015610c91578082015181840152602081019050610c76565b60008484015250505050565b6000601f19601f8301169050919050565b6000610cb982610c57565b610cc38185610c62565b9350610cd3818560208601610c73565b610cdc81610c9d565b840191505092915050565b60006020820190508181036000830152610d018184610cae565b905092915050565b600080fd5b600073ffffffffffffffffffffffffffffffffffffffff82169050919050565b6000610d3982610d0e565b9050919050565b610d4981610d2e565b8114610d5457600080fd5b50565b600081359050610d6681610d40565b92915050565b6000819050919050565b610d7f81610d6c565b8114610d8a57600080fd5b50565b600081359050610d9c81610d76565b92915050565b60008060408385031215610db957610db8610d09565b5b6000610dc785828601610d57565b9250506020610dd885828601610d8d565b9150509250929050565b60008115159050919050565b610df781610de2565b82525050565b6000602082019050610e126000830184610dee565b92915050565b610e2181610d6c565b82525050565b6000602082019050610e3c6000830184610e18565b92915050565b600080600060608486031215610e5b57610e5a610d09565b5b6000610e6986828701610d57565b9350506020610e7a86828701610d57565b9250506040610e8b86828701610d8d565b9150509250925092565b600060ff82169050919050565b610eab81610e95565b82525050565b6000602082019050610ec66000830184610ea2565b92915050565b610ed581610d2e565b82525050565b6000602082019050610ef06000830184610ecc565b92915050565b600060208284031215610f0c57610f0b610d09565b5b6000610f1a84828501610d57565b91505092915050565b60008060408385031215610f3a57610f39610d09565b5b6000610f4885828601610d57565b9250506020610f5985828601610d57565b9150509250929050565b7f4e487b7100000000000000000000000000000000000000000000000000000000600052602260045260246000fd5b60006002820490506001821680610faa57607f821691505b602082108103610fbd57610fbc610f63565b5b50919050565b7f4f6e6c792044414f206f72206f776e65722063616e206d696e74000000000000600082015250565b6000610ff9601a83610c62565b915061100482610fc3565b602082019050919050565b6000602082019050818103600083015261102881610fec565b9050919050565b60006060820190506110446000830186610ecc565b6110516020830185610e18565b61105e6040830184610e18565b949350505050565b7f4e487b7100000000000000000000000000000000000000000000000000000000600052601160045260246000fd5b60006110a082610d6c565b91506110ab83610d6c565b92508282019050808211156110c3576110c2611066565b5b9291505056fea2646970667358221220fa1c7c00b3dd22025ce92f202847901cf6aef11a9f179b41461962be4e616b6664736f6c63430008140033",
  "linkReferences": {},
  "deployedLinkReferences": {}
}