{
  "_format": "hh-sol-artifact-1",
  "contractName": "DaoGovernance",
  "sourceName": "contracts/DaoGovernance.sol",
  "abi": [
    {
      "inputs": [
        {
          "internalType": "string",
          "name": "tokenName",
          "type": "string"
        },
        {
          "internalType": "string",
          "name": "tokenSymbol",
          "type": "string"
        },
        {
          "internalType": "uint256",
          "name": "_tokenPriceWei",
          "type": "uint256"
        },
        {
          "internalType": "uint256",
          "name": "_lockPeriod",
          "type": "uint256"
        },
        {
          "internalType": "uint256",
          "name": "_proposalDuration",
          "type": "uint256"
        },
        {
          "internalType": "uint256",
          "name": "_voteUnit",
          "type": "uint256"
        },
        {
          "internalType": "address",
          "name": "initialStrategy",
          "type": "address"
        }
      ],
      "stateMutability": "nonpayable",
      "type": "constructor"
    },
    {
      "anonymous": false,
      "inputs": [
        {
          "indexed": true,
          "internalType": "uint256",
          "name": "id",
          "type": "uint256"
        },
        {
          "indexed": false,
          "internalType": "bool",
          "name": "accepted",
          "type": "bool"
        }
      ],
      "name": "Finalized",
      "type": "event"
    },
    {
      "anonymous": false,
      "inputs": [
        {
          "indexed": true,
          "internalType": "uint256",
          "name": "id",
          "type": "uint256"
        },
        {
          "indexed": true,
          "internalType": "address",
          "name": "proposer",
          "type": "address"
        }
      ],
      "name": "ProposalCreated",
      "type": "event"
    },
    {
      "anonymous": false,
      "inputs": [
        {
          "indexed": true,
          "internalType": "address",
          "name": "newStrategy",
          "type": "address"
        }
      ],
      "name": "StrategyChanged",
      "type": "event"
    },
    {
      "anonymous": false,
      "inputs": [
        {
          "indexed": true,
          "internalType": "uint256",
          "name": "id",
          "type": "uint256"
        },
        {
          "indexed": true,
          "internalType": "address",
          "name": "voter",
          "type": "address"
        },
        {
          "indexed": false,
          "internalType": "bool",
          "name": "support",
          "type": "bool"
        },
        {
          "indexed": false,
          "internalType": "uint256",
          "name": "weight",
          "type": "uint256"
        }
      ],
      "name": "Voted",
      "type": "event"
    },
    {
      "inputs": [],
      "name": "buyTokens",
      "outputs": [],
      "stateMutability": "payable",
      "type": "function"
    },
    {
      "inputs": [
        {
          "internalType": "string",
          "name": "title",
          "type": "string"
        },
        {
          "internalType": "string",
          "name": "description",
          "type": "string"
        }
      ],
      "name": "createProposal",
      "outputs": [],
      "stateMutability": "nonpayable",
      "type": "function"
    },
    {
      "inputs": [
        {
          "internalType": "uint256",
          "name": "proposalId",
          "type": "uint256"
        }
      ],
      "name": "finalizeProposal",
      "outputs": [],
      "stateMutability": "nonpayable",
      "type": "function"
    },
    {
      "inputs": [],
      "name": "lockPeriod",
      "outputs": [
        {
          "internalType": "uint256",
          "name": "",
          "type": "uint256"
        }
      ],
      "stateMutability": "view",
      "type": "function"
    },
    {
      "inputs": [],
      "name": "proposalCount",
      "outputs": [
        {
          "internalType": "uint256",
          "name": "",
          "type": "uint256"
        }
      ],
      "stateMutability": "view",
      "type": "function"
    },
    {
      "inputs": [],
      "name": "proposalDuration",
      "outputs": [
        {
          "internalType": "uint256",
          "name": "",
          "type": "uint256"
        }
      ],
      "stateMutability": "view",
      "type": "function"
    },
    {
      "inputs": [
        {
          "internalType": "uint256",
          "name": "",
          "type": "uint256"
        }
      ],
      "name": "proposals",
      "outputs": [
        {
          "internalType": "uint256",
          "name": "id",
          "type": "uint256"
        },
        {
          "internalType": "address",
          "name": "proposer",
          "type": "address"
        },
        {
          "internalType": "string",
          "name": "title",
          "type": "string"
        },
        {
          "internalType": "string",
          "name": "description",
          "type": "string"
        },
        {
          "internalType": "uint256",
          "name": "start",
          "type": "uint256"
        },
        {
          "internalType": "uint256",
          "name": "end",
          "type": "uint256"
        },
        {
          "internalType": "uint256",
          "name": "forVotes",
          "type": "uint256"
        },
        {
          "internalType": "uint256",
          "name": "againstVotes",
          "type": "uint256"
        },
        {
          "internalType": "bool",
          "name": "executed",
          "type": "bool"
        }
      ],
      "stateMutability": "view",
      "type": "function"
    },
    {
      "inputs": [
        {
          "internalType": "address",
          "name": "",
          "type": "address"
        }
      ],
      "name": "proposeStakeUnlock",
      "outputs": [
        {
          "internalType": "uint256",
          "name": "",
          "type": "uint256"
        }
      ],
      "stateMutability": "view",
      "type": "function"
    },
    {
      "inputs": [
        {
          "internalType": "address",
          "name": "strategy",
          "type": "address"
        }
      ],
      "name": "setVotingStrategy",
      "outputs": [],
      "stateMutability": "nonpayable",
      "type": "function"
    },
    {
      "inputs": [
        {
          "internalType": "uint256",
          "name": "amount",
          "type": "uint256"
        }
      ],
      "name": "stakeForProposal",
      "outputs": [],
      "stateMutability": "nonpayable",
      "type": "function"
    },
    {
      "inputs": [
        {
          "internalType": "uint256",
          "name": "amount",
          "type": "uint256"
        }
      ],
      "name": "stakeForVote",
      "outputs": [],
      "stateMutability": "nonpayable",
      "type": "function"
    },
    {
      "inputs": [
        {
          "internalType": "address",
          "name": "",
          "type": "address"
        }
      ],
      "name": "stakePropose",
      "outputs": [
        {
          "internalType": "uint256",
          "name": "",
          "type": "uint256"
        }
      ],
      "stateMutability": "view",
      "type": "function"
    },
    {
      "inputs": [
        {
          "internalType": "address",
          "name": "",
          "type": "address"
        }
      ],
      "name": "stakeVotes",
      "outputs": [
        {
          "internalType": "uint256",
          "name": "",
          "type": "uint256"
        }
      ],
      "stateMutability": "view",
      "type": "function"
    },
    {
      "inputs": [],
      "name": "token",
      "outputs": [
        {
          "internalType": "contract VotingToken",
          "name": "",
          "type": "address"
        }
      ],
      "stateMutability": "view",
      "type": "function"
    },
    {
      "inputs": [],
      "name": "tokenPriceWei",
      "outputs": [
        {
          "internalType": "uint256",
          "name": "",
          "type": "uint256"
        }
      ],
      "stateMutability": "view",
      "type": "function"
    },
    {
      "inputs": [],
      "name": "unstakeProposals",
      "outputs": [],
      "stateMutability": "nonpayable",
      "type": "function"
    },
    {
      "inputs": [],
      "name": "unstakeVotes",
      "outputs": [],
      "stateMutability": "nonpayable",
      "type": "function"
    },
    {
      "inputs": [
        {
          "internalType": "uint256",
          "name": "proposalId",
          "type": "uint256"
        },
        {
          "internalType": "bool",
          "name": "support",
          "type": "bool"
        }
      ],
      "name": "vote",
      "outputs": [],
      "stateMutability": "nonpayable",
      "type": "function"
    },
    {
      "inputs": [
        {
          "internalType": "address",
          "name": "",
          "type": "address"
        }
      ],
      "name": "voteStakeUnlock",
      "outputs": [
        {
          "internalType": "uint256",
          "name": "",
          "type": "uint256"
        }
      ],
      "stateMutability": "view",
      "type": "function"
    },
    {
      "inputs": [],
      "name": "voteUnit",
      "outputs": [
        {
          "internalType": "uint256",
          "name": "",
          "type": "uint256"
        }
      ],
      "stateMutability": "view",
      "type": "function"
    },
    {
      "inputs": [],
      "name": "votingStrategy",
      "outputs": [
        {
          "internalType": "contract IVotingStrategy",
          "name": "",
          "type": "address"
        }
      ],
      "stateMutability": "view",
      "type": "function"
    }
  ],
  "bytecode": "0x60806040523480156200001157600080fd5b50604051620040a5380380620040a583398181016040528101906200003791906200035e565b86863060405162000048906200011d565b6200005693929190620004bd565b604051809103906000f08015801562000073573d6000803e3d6000fd5b506000806101000a81548173ffffffffffffffffffffffffffffffffffffffff021916908373ffffffffffffffffffffffffffffffffffffffff1602179055508460028190555083600381905550826004819055508160058190555080600160006101000a81548173ffffffffffffffffffffffffffffffffffffffff021916908373ffffffffffffffffffffffffffffffffffffffff1602179055505050505050505062000508565b6116d580620029d083390190565b6000604051905090565b600080fd5b600080fd5b600080fd5b600080fd5b6000601f19601f8301169050919050565b7f4e487b7100000000000000000000000000000000000000000000000000000000600052604160045260246000fd5b620001948262000149565b810181811067ffffffffffffffff82111715620001b657620001b56200015a565b5b80604052505050565b6000620001cb6200012b565b9050620001d9828262000189565b919050565b600067ffffffffffffffff821115620001fc57620001fb6200015a565b5b620002078262000149565b9050602081019050919050565b60005b838110156200023457808201518184015260208101905062000217565b60008484015250505050565b6000620002576200025184620001de565b620001bf565b90508281526020810184848401111562000276576200027562000144565b5b6200028384828562000214565b509392505050565b600082601f830112620002a357620002a26200013f565b5b8151620002b584826020860162000240565b91505092915050565b6000819050919050565b620002d381620002be565b8114620002df57600080fd5b50565b600081519050620002f381620002c8565b92915050565b600073ffffffffffffffffffffffffffffffffffffffff82169050919050565b60006200032682620002f9565b9050919050565b620003388162000319565b81146200034457600080fd5b50565b60008151905062000358816200032d565b92915050565b600080600080600080600060e0888a03121562000380576200037f62000135565b5b600088015167ffffffffffffffff811115620003a157620003a06200013a565b5b620003af8a828b016200028b565b975050602088015167ffffffffffffffff811115620003d357620003d26200013a565b5b620003e18a828b016200028b565b9650506040620003f48a828b01620002e2565b9550506060620004078a828b01620002e2565b94505060806200041a8a828b01620002e2565b93505060a06200042d8a828b01620002e2565b92505060c0620004408a828b0162000347565b91505092959891949750929550565b600081519050919050565b600082825260208201905092915050565b600062000478826200044f565b6200048481856200045a565b93506200049681856020860162000214565b620004a18162000149565b840191505092915050565b620004b78162000319565b82525050565b60006060820190508181036000830152620004d981866200046b565b90508181036020830152620004ef81856200046b565b9050620005006040830184620004ac565b949350505050565b6124b880620005186000396000f3fe60806040526004361061012a5760003560e01c80638c91b638116100ab578063d289dcbf1161006f578063d289dcbf146103c5578063d32f1c40146103ee578063da35c6641461042b578063fb5c8bfd14610456578063fc0c546a14610481578063fdc7cce3146104ac5761012a565b80638c91b638146102ef57806398fe56911461032c578063c9d27afe14610355578063cec724791461037e578063d0febe4c146103bb5761012a565b8063479f738a116100f2578063479f738a146102325780635652077c1461024957806365e481e2146102725780637297bbe71461029b5780637bd58bee146102c65761012a565b8063013cf08b1461012f57806305d0f15b14610174578063301099621461019f57806334f89012146101ca5780633fd8b02f14610207575b600080fd5b34801561013b57600080fd5b5061015660048036038101906101519190611630565b6104c3565b60405161016b99989796959493929190611758565b60405180910390f35b34801561018057600080fd5b5061018961064e565b60405161019691906117f3565b60405180910390f35b3480156101ab57600080fd5b506101b4610654565b6040516101c191906117f3565b60405180910390f35b3480156101d657600080fd5b506101f160048036038101906101ec919061183a565b61065a565b6040516101fe91906117f3565b60405180910390f35b34801561021357600080fd5b5061021c610672565b60405161022991906117f3565b60405180910390f35b34801561023e57600080fd5b50610247610678565b005b34801561025557600080fd5b50610270600480360381019061026b9190611630565b610863565b005b34801561027e57600080fd5b506102996004803603810190610294919061199c565b610aba565b005b3480156102a757600080fd5b506102b0610c53565b6040516102bd91906117f3565b60405180910390f35b3480156102d257600080fd5b506102ed60048036038101906102e89190611630565b610c59565b005b3480156102fb57600080fd5b506103166004803603810190610311919061183a565b610de2565b60405161032391906117f3565b60405180910390f35b34801561033857600080fd5b50610353600480360381019061034e9190611630565b610dfa565b005b34801561036157600080fd5b5061037c60048036038101906103779190611a40565b610f83565b005b34801561038a57600080fd5b506103a560048036038101906103a0919061183a565b6111f6565b6040516103b291906117f3565b60405180910390f35b6103c361120e565b005b3480156103d157600080fd5b506103ec60048036038101906103e7919061183a565b611308565b005b3480156103fa57600080fd5b506104156004803603810190610410919061183a565b61138f565b60405161042291906117f3565b60405180910390f35b34801561043757600080fd5b506104406113a7565b60405161044d91906117f3565b60405180910390f35b34801561046257600080fd5b5061046b6113b1565b6040516104789190611adf565b60405180910390f35b34801561048d57600080fd5b506104966113d7565b6040516104a39190611b1b565b60405180910390f35b3480156104b857600080fd5b506104c16113fb565b005b60076020528060005260406000206000915090508060000154908060010160009054906101000a900473ffffffffffffffffffffffffffffffffffffffff169080600201805461051290611b65565b80601f016020809104026020016040519081016040528092919081815260200182805461053e90611b65565b801561058b5780601f106105605761010080835404028352916020019161058b565b820191906000526020600020905b81548152906001019060200180831161056e57829003601f168201915b5050505050908060030180546105a090611b65565b80601f01602080910402602001604051908101604052809291908181526020018280546105cc90611b65565b80156106195780601f106105ee57610100808354040283529160200191610619565b820191906000526020600020905b8154815290600101906020018083116105fc57829003601f168201915b5050505050908060040154908060050154908060060154908060070154908060080160009054906101000a900460ff16905089565b60025481565b60045481565b600b6020528060005260406000206000915090505481565b60035481565b600960003373ffffffffffffffffffffffffffffffffffffffff1673ffffffffffffffffffffffffffffffffffffffff168152602001908152602001600020544210156106fa576040517f08c379a00000000000000000000000000000000000000000000000000000000081526004016106f190611be2565b60405180910390fd5b6000600860003373ffffffffffffffffffffffffffffffffffffffff1673ffffffffffffffffffffffffffffffffffffffff1681526020019081526020016000205490506000600860003373ffffffffffffffffffffffffffffffffffffffff1673ffffffffffffffffffffffffffffffffffffffff1681526020019081526020016000208190555060008054906101000a900473ffffffffffffffffffffffffffffffffffffffff1673ffffffffffffffffffffffffffffffffffffffff1663a9059cbb33836040518363ffffffff1660e01b81526004016107de929190611c02565b6020604051808303816000875af11580156107fd573d6000803e3d6000fd5b505050506040513d601f19601f820116820180604052508101906108219190611c40565b610860576040517f08c379a000000000000000000000000000000000000000000000000000000000815260040161085790611cb9565b60405180910390fd5b50565b600060076000838152602001908152602001600020905080600501544210156108c1576040517f08c379a00000000000000000000000000000000000000000000000000000000081526004016108b890611d25565b60405180910390fd5b8060080160009054906101000a900460ff1615610913576040517f08c379a000000000000000000000000000000000000000000000000000000000815260040161090a90611d91565b60405180910390fd5b600060055460008054906101000a900473ffffffffffffffffffffffffffffffffffffffff1673ffffffffffffffffffffffffffffffffffffffff166318160ddd6040518163ffffffff1660e01b8152600401602060405180830381865afa158015610983573d6000803e3d6000fd5b505050506040513d601f19601f820116820180604052508101906109a79190611dc6565b6109b19190611e51565b90506000600160009054906101000a900473ffffffffffffffffffffffffffffffffffffffff1673ffffffffffffffffffffffffffffffffffffffff1663d95baddf84600601548560070154856040518463ffffffff1660e01b8152600401610a1c93929190611e82565b602060405180830381865afa158015610a39573d6000803e3d6000fd5b505050506040513d601f19601f82011682018060405250810190610a5d9190611c40565b905060018360080160006101000a81548160ff021916908315150217905550837f82693b732f9696c8a914b820dd6c52544bd61b844bbd4c8707253df9340cf6b782604051610aac9190611eb9565b60405180910390a250505050565b678ac7230489e80000600a60003373ffffffffffffffffffffffffffffffffffffffff1673ffffffffffffffffffffffffffffffffffffffff168152602001908152602001600020541015610b44576040517f08c379a0000000000000000000000000000000000000000000000000000000008152600401610b3b90611f20565b60405180910390fd5b60066000815480929190610b5790611f40565b9190505550600060076000600654815260200190815260200160002090506006548160000181905550338160010160006101000a81548173ffffffffffffffffffffffffffffffffffffffff021916908373ffffffffffffffffffffffffffffffffffffffff16021790555082816002019081610bd4919061212a565b5081816003019081610be6919061212a565b5042816004018190555060045442610bfe91906121fc565b81600501819055503373ffffffffffffffffffffffffffffffffffffffff1681600001547fcd423cc1203c0af96b9b3d68d73b3064a69de2d14450bb7181c5e5df2132b35860405160405180910390a3505050565b60055481565b60008054906101000a900473ffffffffffffffffffffffffffffffffffffffff1673ffffffffffffffffffffffffffffffffffffffff166323b872dd3330846040518463ffffffff1660e01b8152600401610cb693929190612230565b6020604051808303816000875af1158015610cd5573d6000803e3d6000fd5b505050506040513d601f19601f82011682018060405250810190610cf99190611c40565b610d38576040517f08c379a0000000000000000000000000000000000000000000000000000000008152600401610d2f90611cb9565b60405180910390fd5b80600a60003373ffffffffffffffffffffffffffffffffffffffff1673ffffffffffffffffffffffffffffffffffffffff1681526020019081526020016000206000828254610d8791906121fc565b9250508190555060035442610d9c91906121fc565b600b60003373ffffffffffffffffffffffffffffffffffffffff1673ffffffffffffffffffffffffffffffffffffffff1681526020019081526020016000208190555050565b60086020528060005260406000206000915090505481565b60008054906101000a900473ffffffffffffffffffffffffffffffffffffffff1673ffffffffffffffffffffffffffffffffffffffff166323b872dd3330846040518463ffffffff1660e01b8152600401610e5793929190612230565b6020604051808303816000875af1158015610e76573d6000803e3d6000fd5b505050506040513d601f19601f82011682018060405250810190610e9a9190611c40565b610ed9576040517f08c379a0000000000000000000000000000000000000000000000000000000008152600401610ed090611cb9565b60405180910390fd5b80600860003373ffffffffffffffffffffffffffffffffffffffff1673ffffffffffffffffffffffffffffffffffffffff1681526020019081526020016000206000828254610f2891906121fc565b9250508190555060035442610f3d91906121fc565b600960003373ffffffffffffffffffffffffffffffffffffffff1673ffffffffffffffffffffffffffffffffffffffff1681526020019081526020016000208190555050565b600060076000848152602001908152602001600020905080600501544210610fe0576040517f08c379a0000000000000000000000000000000000000000000000000000000008152600401610fd7906122b3565b60405180910390fd5b8060090160003373ffffffffffffffffffffffffffffffffffffffff1673ffffffffffffffffffffffffffffffffffffffff16815260200190815260200160002060009054906101000a900460ff161561106f576040517f08c379a00000000000000000000000000000000000000000000000000000000081526004016110669061231f565b60405180910390fd5b6000600554600860003373ffffffffffffffffffffffffffffffffffffffff1673ffffffffffffffffffffffffffffffffffffffff168152602001908152602001600020546110be9190611e51565b905060008111611103576040517f08c379a00000000000000000000000000000000000000000000000000000000081526004016110fa9061238b565b60405180910390fd5b8215611129578082600601600082825461111d91906121fc565b92505081905550611145565b8082600701600082825461113d91906121fc565b925050819055505b60018260090160003373ffffffffffffffffffffffffffffffffffffffff1673ffffffffffffffffffffffffffffffffffffffff16815260200190815260200160002060006101000a81548160ff0219169083151502179055503373ffffffffffffffffffffffffffffffffffffffff16847f7c2de587c00d75474a0c6c6fa96fd3b45dc974cd4e8a75f712bb84c950dce1b585846040516111e89291906123ab565b60405180910390a350505050565b60096020528060005260406000206000915090505481565b600254341015611253576040517f08c379a000000000000000000000000000000000000000000000000000000000815260040161124a90612420565b60405180910390fd5b6000600254670de0b6b3a76400003461126c9190612440565b6112769190611e51565b905060008054906101000a900473ffffffffffffffffffffffffffffffffffffffff1673ffffffffffffffffffffffffffffffffffffffff166340c10f1933836040518363ffffffff1660e01b81526004016112d3929190611c02565b600060405180830381600087803b1580156112ed57600080fd5b505af1158015611301573d6000803e3d6000fd5b5050505050565b80600160006101000a81548173ffffffffffffffffffffffffffffffffffffffff021916908373ffffffffffffffffffffffffffffffffffffffff1602179055508073ffffffffffffffffffffffffffffffffffffffff167fafd1cdc355e15bfc9038294be1c6203ce953704fda8c991bebe78ddd4d5420d160405160405180910390a250565b600a6020528060005260406000206000915090505481565b6000600654905090565b600160009054906101000a900473ffffffffffffffffffffffffffffffffffffffff1681565b60008054906101000a900473ffffffffffffffffffffffffffffffffffffffff1681565b600b60003373ffffffffffffffffffffffffffffffffffffffff1673ffffffffffffffffffffffffffffffffffffffff1681526020019081526020016000205442101561147d576040517f08c379a000000000000000000000000000000000000000000000000000000000815260040161147490611be2565b60405180910390fd5b6000600a60003373ffffffffffffffffffffffffffffffffffffffff1673ffffffffffffffffffffffffffffffffffffffff1681526020019081526020016000205490506000600a60003373ffffffffffffffffffffffffffffffffffffffff1673ffffffffffffffffffffffffffffffffffffffff1681526020019081526020016000208190555060008054906101000a900473ffffffffffffffffffffffffffffffffffffffff1673ffffffffffffffffffffffffffffffffffffffff1663a9059cbb33836040518363ffffffff1660e01b8152600401611561929190611c02565b6020604051808303816000875af1158015611580573d6000803e3d6000fd5b505050506040513d601f19601f820116820180604052508101906115a49190611c40565b6115e3576040517f08c379a00000000000000000000000000000000000000000000000000000000081526004016115da90611cb9565b60405180910390fd5b50565b6000604051905090565b600080fd5b600080fd5b6000819050919050565b61160d816115fa565b811461161857600080fd5b50565b60008135905061162a81611604565b92915050565b600060208284031215611646576116456115f0565b5b60006116548482850161161b565b91505092915050565b611666816115fa565b82525050565b600073ffffffffffffffffffffffffffffffffffffffff82169050919050565b60006116978261166c565b9050919050565b6116a78161168c565b82525050565b600081519050919050565b600082825260208201905092915050565b60005b838110156116e75780820151818401526020810190506116cc565b60008484015250505050565b6000601f19601f8301169050919050565b600061170f826116ad565b61171981856116b8565b93506117298185602086016116c9565b611732816116f3565b840191505092915050565b60008115159050919050565b6117528161173d565b82525050565b60006101208201905061176e600083018c61165d565b61177b602083018b61169e565b818103604083015261178d818a611704565b905081810360608301526117a18189611704565b90506117b0608083018861165d565b6117bd60a083018761165d565b6117ca60c083018661165d565b6117d760e083018561165d565b6117e5610100830184611749565b9a9950505050505050505050565b6000602082019050611808600083018461165d565b92915050565b6118178161168c565b811461182257600080fd5b50565b6000813590506118348161180e565b92915050565b6000602082840312156118505761184f6115f0565b5b600061185e84828501611825565b91505092915050565b600080fd5b600080fd5b7f4e487b7100000000000000000000000000000000000000000000000000000000600052604160045260246000fd5b6118a9826116f3565b810181811067ffffffffffffffff821117156118c8576118c7611871565b5b80604052505050565b60006118db6115e6565b90506118e782826118a0565b919050565b600067ffffffffffffffff82111561190757611906611871565b5b611910826116f3565b9050602081019050919050565b82818337600083830152505050565b600061193f61193a846118ec565b6118d1565b90508281526020810184848401111561195b5761195a61186c565b5b61196684828561191d565b509392505050565b600082601f83011261198357611982611867565b5b813561199384826020860161192c565b91505092915050565b600080604083850312156119b3576119b26115f0565b5b600083013567ffffffffffffffff8111156119d1576119d06115f5565b5b6119dd8582860161196e565b925050602083013567ffffffffffffffff8111156119fe576119fd6115f5565b5b611a0a8582860161196e565b9150509250929050565b611a1d8161173d565b8114611a2857600080fd5b50565b600081359050611a3a81611a14565b92915050565b60008060408385031215611a5757611a566115f0565b5b6000611a658582860161161b565b9250506020611a7685828601611a2b565b9150509250929050565b6000819050919050565b6000611aa5611aa0611a9b8461166c565b611a80565b61166c565b9050919050565b6000611ab782611a8a565b9050919050565b6000611ac982611aac565b9050919050565b611ad981611abe565b82525050565b6000602082019050611af46000830184611ad0565b92915050565b6000611b0582611aac565b9050919050565b611b1581611afa565b82525050565b6000602082019050611b306000830184611b0c565b92915050565b7f4e487b7100000000000000000000000000000000000000000000000000000000600052602260045260246000fd5b60006002820490506001821680611b7d57607f821691505b602082108103611b9057611b8f611b36565b5b50919050565b7f4c6f636b20706572696f64206e6f742070617373656400000000000000000000600082015250565b6000611bcc6016836116b8565b9150611bd782611b96565b602082019050919050565b60006020820190508181036000830152611bfb81611bbf565b9050919050565b6000604082019050611c17600083018561169e565b611c24602083018461165d565b9392505050565b600081519050611c3a81611a14565b92915050565b600060208284031215611c5657611c556115f0565b5b6000611c6484828501611c2b565b91505092915050565b7f5472616e73666572206661696c65640000000000000000000000000000000000600082015250565b6000611ca3600f836116b8565b9150611cae82611c6d565b602082019050919050565b60006020820190508181036000830152611cd281611c96565b9050919050565b7f566f74696e67207374696c6c2061637469766500000000000000000000000000600082015250565b6000611d0f6013836116b8565b9150611d1a82611cd9565b602082019050919050565b60006020820190508181036000830152611d3e81611d02565b9050919050565b7f416c72656164792066696e616c697a6564000000000000000000000000000000600082015250565b6000611d7b6011836116b8565b9150611d8682611d45565b602082019050919050565b60006020820190508181036000830152611daa81611d6e565b9050919050565b600081519050611dc081611604565b92915050565b600060208284031215611ddc57611ddb6115f0565b5b6000611dea84828501611db1565b91505092915050565b7f4e487b7100000000000000000000000000000000000000000000000000000000600052601260045260246000fd5b7f4e487b7100000000000000000000000000000000000000000000000000000000600052601160045260246000fd5b6000611e5c826115fa565b9150611e67836115fa565b925082611e7757611e76611df3565b5b828204905092915050565b6000606082019050611e97600083018661165d565b611ea4602083018561165d565b611eb1604083018461165d565b949350505050565b6000602082019050611ece6000830184611749565b92915050565b7f4d696e696d6f20313020746f6b656e7320706172612070726f706f6e65720000600082015250565b6000611f0a601e836116b8565b9150611f1582611ed4565b602082019050919050565b60006020820190508181036000830152611f3981611efd565b9050919050565b6000611f4b826115fa565b91507fffffffffffffffffffffffffffffffffffffffffffffffffffffffffffffffff8203611f7d57611f7c611e22565b5b600182019050919050565b60008190508160005260206000209050919050565b60006020601f8301049050919050565b600082821b905092915050565b600060088302611fea7fffffffffffffffffffffffffffffffffffffffffffffffffffffffffffffffff82611fad565b611ff48683611fad565b95508019841693508086168417925050509392505050565b600061202761202261201d846115fa565b611a80565b6115fa565b9050919050565b6000819050919050565b6120418361200c565b61205561204d8261202e565b848454611fba565b825550505050565b600090565b61206a61205d565b612075818484612038565b505050565b5b818110156120995761208e600082612062565b60018101905061207b565b5050565b601f8211156120de576120af81611f88565b6120b884611f9d565b810160208510156120c7578190505b6120db6120d385611f9d565b83018261207a565b50505b505050565b600082821c905092915050565b6000612101600019846008026120e3565b1980831691505092915050565b600061211a83836120f0565b9150826002028217905092915050565b612133826116ad565b67ffffffffffffffff81111561214c5761214b611871565b5b6121568254611b65565b61216182828561209d565b600060209050601f8311600181146121945760008415612182578287015190505b61218c858261210e565b8655506121f4565b601f1984166121a286611f88565b60005b828110156121ca578489015182556001820191506020850194506020810190506121a5565b868310156121e757848901516121e3601f8916826120f0565b8355505b6001600288020188555050505b505050505050565b6000612207826115fa565b9150612212836115fa565b925082820190508082111561222a57612229611e22565b5b92915050565b6000606082019050612245600083018661169e565b612252602083018561169e565b61225f604083018461165d565b949350505050565b7f566f74696e6720706572696f6420656e64656400000000000000000000000000600082015250565b600061229d6013836116b8565b91506122a882612267565b602082019050919050565b600060208201905081810360008301526122cc81612290565b9050919050565b7f416c726561647920766f74656400000000000000000000000000000000000000600082015250565b6000612309600d836116b8565b9150612314826122d3565b602082019050919050565b60006020820190508181036000830152612338816122fc565b9050919050565b7f4e6f207374616b656420746f6b656e7320746f20766f74650000000000000000600082015250565b60006123756018836116b8565b91506123808261233f565b602082019050919050565b600060208201905081810360008301526123a481612368565b9050919050565b60006040820190506123c06000830185611749565b6123cd602083018461165d565b9392505050565b7f496e73756666696369656e742045544800000000000000000000000000000000600082015250565b600061240a6010836116b8565b9150612415826123d4565b602082019050919050565b60006020820190508181036000830152612439816123fd565b9050919050565b600061244b826115fa565b9150612456836115fa565b9250828202612464816115fa565b9150828204841483151761247b5761247a611e22565b5b509291505056fea2646970667358221220036624a317540cc5a2618e46aa21f8860fda366bf99968a3e16ce299b226996564736f6c6343000814003360806040523480156200001157600080fd5b50604051620016d5380380620016d58339818101604052810190620000379190620002a1565b828281600390816200004a919062000586565b5080600490816200005c919062000586565b50505080600560006101000a81548173ffffffffffffffffffffffffffffffffffffffff021916908373ffffffffffffffffffffffffffffffffffffffff1602179055505050506200066d565b6000604051905090565b600080fd5b600080fd5b600080fd5b600080fd5b6000601f19601f8301169050919050565b7f4e487b7100000000000000000000000000000000000000000000000000000000600052604160045260246000fd5b6200011282620000c7565b810181811067ffffffffffffffff82111715620001345762000133620000d8565b5b80604052505050565b600062000149620000a9565b905062000157828262000107565b919050565b600067ffffffffffffffff8211156200017a5762000179620000d8565b5b6200018582620000c7565b9050602081019050919050565b60005b83811015620001b257808201518184015260208101905062000195565b60008484015250505050565b6000620001d5620001cf846200015c565b6200013d565b905082815260208101848484011115620001f457620001f3620000c2565b5b6200020184828562000192565b509392505050565b600082601f830112620002215762000220620000bd565b5b815162000233848260208601620001be565b91505092915050565b600073ffffffffffffffffffffffffffffffffffffffff82169050919050565b600062000269826200023c565b9050919050565b6200027b816200025c565b81146200028757600080fd5b50565b6000815190506200029b8162000270565b92915050565b600080600060608486031215620002bd57620002bc620000b3565b5b600084015167ffffffffffffffff811115620002de57620002dd620000b8565b5b620002ec8682870162000209565b935050602084015167ffffffffffffffff81111562000310576200030f620000b8565b5b6200031e8682870162000209565b925050604062000331868287016200028a565b9150509250925092565b600081519050919050565b7f4e487b7100000000000000000000000000000000000000000000000000000000600052602260045260246000fd5b600060028204905060018216806200038e57607f821691505b602082108103620003a457620003a362000346565b5b50919050565b60008190508160005260206000209050919050565b60006020601f8301049050919050565b600082821b905092915050565b6000600883026200040e7fffffffffffffffffffffffffffffffffffffffffffffffffffffffffffffffff82620003cf565b6200041a8683620003cf565b95508019841693508086168417925050509392505050565b6000819050919050565b6000819050919050565b600062000467620004616200045b8462000432565b6200043c565b62000432565b9050919050565b6000819050919050565b620004838362000446565b6200049b62000492826200046e565b848454620003dc565b825550505050565b600090565b620004b2620004a3565b620004bf81848462000478565b505050565b5b81811015620004e757620004db600082620004a8565b600181019050620004c5565b5050565b601f82111562000536576200050081620003aa565b6200050b84620003bf565b810160208510156200051b578190505b620005336200052a85620003bf565b830182620004c4565b50505b505050565b600082821c905092915050565b60006200055b600019846008026200053b565b1980831691505092915050565b600062000576838362000548565b9150826002028217905092915050565b62000591826200033b565b67ffffffffffffffff811115620005ad57620005ac620000d8565b5b620005b9825462000375565b620005c6828285620004eb565b600060209050601f831160018114620005fe5760008415620005e9578287015190505b620005f5858262000568565b86555062000665565b601f1984166200060e86620003aa565b60005b82811015620006385784890151825560018201915060208501945060208101905062000611565b8683101562000658578489015162000654601f89168262000548565b8355505b6001600288020188555050505b505050505050565b611058806200067d6000396000f3fe608060405234801561001057600080fd5b50600436106100a95760003560e01c806340c10f191161007157806340c10f19146101685780634162169f1461018457806370a08231146101a257806395d89b41146101d2578063a9059cbb146101f0578063dd62ed3e14610220576100a9565b806306fdde03146100ae578063095ea7b3146100cc57806318160ddd146100fc57806323b872dd1461011a578063313ce5671461014a575b600080fd5b6100b6610250565b6040516100c39190610c40565b60405180910390f35b6100e660048036038101906100e19190610cfb565b6102e2565b6040516100f39190610d56565b60405180910390f35b610104610305565b6040516101119190610d80565b60405180910390f35b610134600480360381019061012f9190610d9b565b61030f565b6040516101419190610d56565b60405180910390f35b61015261033e565b60405161015f9190610e0a565b60405180910390f35b610182600480360381019061017d9190610cfb565b610347565b005b61018c6103e5565b6040516101999190610e34565b60405180910390f35b6101bc60048036038101906101b79190610e4f565b61040b565b6040516101c99190610d80565b60405180910390f35b6101da610453565b6040516101e79190610c40565b60405180910390f35b61020a60048036038101906102059190610cfb565b6104e5565b6040516102179190610d56565b60405180910390f35b61023a60048036038101906102359190610e7c565b610508565b6040516102479190610d80565b60405180910390f35b60606003805461025f90610eeb565b80601f016020809104026020016040519081016040528092919081815260200182805461028b90610eeb565b80156102d85780601f106102ad576101008083540402835291602001916102d8565b820191906000526020600020905b8154815290600101906020018083116102bb57829003601f168201915b5050505050905090565b6000806102ed61058f565b90506102fa818585610597565b600191505092915050565b6000600254905090565b60008061031a61058f565b90506103278582856105a9565b61033285858561063e565b60019150509392505050565b60006012905090565b600560009054906101000a900473ffffffffffffffffffffffffffffffffffffffff1673ffffffffffffffffffffffffffffffffffffffff163373ffffffffffffffffffffffffffffffffffffffff16146103d7576040517f08c379a00000000000000000000000000000000000000000000000000000000081526004016103ce90610f68565b60405180910390fd5b6103e18282610732565b5050565b600560009054906101000a900473ffffffffffffffffffffffffffffffffffffffff1681565b60008060008373ffffffffffffffffffffffffffffffffffffffff1673ffffffffffffffffffffffffffffffffffffffff168152602001908152602001600020549050919050565b60606004805461046290610eeb565b80601f016020809104026020016040519081016040528092919081815260200182805461048e90610eeb565b80156104db5780601f106104b0576101008083540402835291602001916104db565b820191906000526020600020905b8154815290600101906020018083116104be57829003601f168201915b5050505050905090565b6000806104f061058f565b90506104fd81858561063e565b600191505092915050565b6000600160008473ffffffffffffffffffffffffffffffffffffffff1673ffffffffffffffffffffffffffffffffffffffff16815260200190815260200160002060008373ffffffffffffffffffffffffffffffffffffffff1673ffffffffffffffffffffffffffffffffffffffff16815260200190815260200160002054905092915050565b600033905090565b6105a483838360016107b4565b505050565b60006105b58484610508565b90507fffffffffffffffffffffffffffffffffffffffffffffffffffffffffffffffff8110156106385781811015610628578281836040517ffb8f41b200000000000000000000000000000000000000000000000000000000815260040161061f93929190610f88565b60405180910390fd5b610637848484840360006107b4565b5b50505050565b600073ffffffffffffffffffffffffffffffffffffffff168373ffffffffffffffffffffffffffffffffffffffff16036106b05760006040517f96c6fd1e0000000000000000000000000000000000000000000000000000000081526004016106a79190610e34565b60405180910390fd5b600073ffffffffffffffffffffffffffffffffffffffff168273ffffffffffffffffffffffffffffffffffffffff16036107225760006040517fec442f050000000000000000000000000000000000000000000000000000000081526004016107199190610e34565b60405180910390fd5b61072d83838361098b565b505050565b600073ffffffffffffffffffffffffffffffffffffffff168273ffffffffffffffffffffffffffffffffffffffff16036107a45760006040517fec442f0500000000000000000000000000000000000000000000000000000000815260040161079b9190610e34565b60405180910390fd5b6107b06000838361098b565b5050565b600073ffffffffffffffffffffffffffffffffffffffff168473ffffffffffffffffffffffffffffffffffffffff16036108265760006040517fe602df0500000000000000000000000000000000000000000000000000000000815260040161081d9190610e34565b60405180910390fd5b600073ffffffffffffffffffffffffffffffffffffffff168373ffffffffffffffffffffffffffffffffffffffff16036108985760006040517f94280d6200000000000000000000000000000000000000000000000000000000815260040161088f9190610e34565b60405180910390fd5b81600160008673ffffffffffffffffffffffffffffffffffffffff1673ffffffffffffffffffffffffffffffffffffffff16815260200190815260200160002060008573ffffffffffffffffffffffffffffffffffffffff1673ffffffffffffffffffffffffffffffffffffffff168152602001908152602001600020819055508015610985578273ffffffffffffffffffffffffffffffffffffffff168473ffffffffffffffffffffffffffffffffffffffff167f8c5be1e5ebec7d5bd14f71427d1e84f3dd0314c0f7b2291e5b200ac8c7c3b9258460405161097c9190610d80565b60405180910390a35b50505050565b600073ffffffffffffffffffffffffffffffffffffffff168373ffffffffffffffffffffffffffffffffffffffff16036109dd5780600260008282546109d19190610fee565b92505081905550610ab0565b60008060008573ffffffffffffffffffffffffffffffffffffffff1673ffffffffffffffffffffffffffffffffffffffff16815260200190815260200160002054905081811015610a69578381836040517fe450d38c000000000000000000000000000000000000000000000000000000008152600401610a6093929190610f88565b60405180910390fd5b8181036000808673ffffffffffffffffffffffffffffffffffffffff1673ffffffffffffffffffffffffffffffffffffffff16815260200190815260200160002081905550505b600073ffffffffffffffffffffffffffffffffffffffff168273ffffffffffffffffffffffffffffffffffffffff1603610af95780600260008282540392505081905550610b46565b806000808473ffffffffffffffffffffffffffffffffffffffff1673ffffffffffffffffffffffffffffffffffffffff168152602001908152602001600020600082825401925050819055505b8173ffffffffffffffffffffffffffffffffffffffff168373ffffffffffffffffffffffffffffffffffffffff167fddf252ad1be2c89b69c2b068fc378daa952ba7f163c4a11628f55a4df523b3ef83604051610ba39190610d80565b60405180910390a3505050565b600081519050919050565b600082825260208201905092915050565b60005b83811015610bea578082015181840152602081019050610bcf565b60008484015250505050565b6000601f19601f8301169050919050565b6000610c1282610bb0565b610c1c8185610bbb565b9350610c2c818560208601610bcc565b610c3581610bf6565b840191505092915050565b60006020820190508181036000830152610c5a8184610c07565b905092915050565b600080fd5b600073ffffffffffffffffffffffffffffffffffffffff82169050919050565b6000610c9282610c67565b9050919050565b610ca281610c87565b8114610cad57600080fd5b50565b600081359050610cbf81610c99565b92915050565b6000819050919050565b610cd881610cc5565b8114610ce357600080fd5b50565b600081359050610cf581610ccf565b92915050565b60008060408385031215610d1257610d11610c62565b5b6000610d2085828601610cb0565b9250506020610d3185828601610ce6565b9150509250929050565b60008115159050919050565b610d5081610d3b565b82525050565b6000602082019050610d6b6000830184610d47565b92915050565b610d7a81610cc5565b82525050565b6000602082019050610d956000830184610d71565b92915050565b600080600060608486031215610db457610db3610c62565b5b6000610dc286828701610cb0565b9350506020610dd386828701610cb0565b9250506040610de486828701610ce6565b9150509250925092565b600060ff82169050919050565b610e0481610dee565b82525050565b6000602082019050610e1f6000830184610dfb565b92915050565b610e2e81610c87565b82525050565b6000602082019050610e496000830184610e25565b92915050565b600060208284031215610e6557610e64610c62565b5b6000610e7384828501610cb0565b91505092915050565b60008060408385031215610e9357610e92610c62565b5b6000610ea185828601610cb0565b9250506020610eb285828601610cb0565b9150509250929050565b7f4e487b7100000000000000000000000000000000000000000000000000000000600052602260045260246000fd5b60006002820490506001821680610f0357607f821691505b602082108103610f1657610f15610ebc565b5b50919050565b7f4f6e6c792044414f2063616e206d696e74000000000000000000000000000000600082015250565b6000610f52601183610bbb565b9150610f5d82610f1c565b602082019050919050565b60006020820190508181036000830152610f8181610f45565b9050919050565b6000606082019050610f9d6000830186610e25565b610faa6020830185610d71565b610fb76040830184610d71565b949350505050565b7f4e487b7100000000000000000000000000000000000000000000000000000000600052601160045260246000fd5b6000610ff982610cc5565b915061100483610cc5565b925082820190508082111561101c5761101b610fbf565b5b9291505056fea2646970667358221220e58b9780a2b0c1c0c24e20966cec2a23a1855266719defa334a7ee766ff7bded64736f6c63430008140033",
  "linkReferences": {},
  "deployedLinkReferences": {}
}