{
  "_format": "hh-sol-artifact-1",
  "contractName": "DaoGovernance",
  "sourceName": "contracts/DaoGovernance.sol",
  "abi": [
    {
      "inputs": [
        {
          "internalType": "string",
          "name": "tokenName",
          "type": "string"
        },
        {
          "internalType": "string",
          "name": "tokenSymbol",
          "type": "string"
        },
        {
          "internalType": "address",
          "name": "_panicMultisig",
          "type": "address"
        },
        {
          "internalType": "uint256",
          "name": "_tokenPriceWei",
          "type": "uint256"
        },
        {
          "internalType": "uint256",
          "name": "_stakeToVote",
          "type": "uint256"
        },
        {
          "internalType": "uint256",
          "name": "_stakeToPropose",
          "type": "uint256"
        },
        {
          "internalType": "uint256",
          "name": "_lockPeriod",
          "type": "uint256"
        },
        {
          "internalType": "uint256",
          "name": "_proposalDuration",
          "type": "uint256"
        },
        {
          "internalType": "uint256",
          "name": "_voteUnit",
          "type": "uint256"
        },
        {
          "internalType": "address",
          "name": "initialStrategy",
          "type": "address"
        }
      ],
      "stateMutability": "nonpayable",
      "type": "constructor"
    },
    {
      "inputs": [
        {
          "internalType": "address",
          "name": "owner",
          "type": "address"
        }
      ],
      "name": "OwnableInvalidOwner",
      "type": "error"
    },
    {
      "inputs": [
        {
          "internalType": "address",
          "name": "account",
          "type": "address"
        }
      ],
      "name": "OwnableUnauthorizedAccount",
      "type": "error"
    },
    {
      "anonymous": false,
      "inputs": [
        {
          "indexed": true,
          "internalType": "uint256",
          "name": "id",
          "type": "uint256"
        },
        {
          "indexed": false,
          "internalType": "bool",
          "name": "accepted",
          "type": "bool"
        }
      ],
      "name": "Finalized",
      "type": "event"
    },
    {
      "anonymous": false,
      "inputs": [
        {
          "indexed": true,
          "internalType": "address",
          "name": "previousOwner",
          "type": "address"
        },
        {
          "indexed": true,
          "internalType": "address",
          "name": "newOwner",
          "type": "address"
        }
      ],
      "name": "OwnershipTransferred",
      "type": "event"
    },
    {
      "anonymous": false,
      "inputs": [],
      "name": "PanicActivated",
      "type": "event"
    },
    {
      "anonymous": false,
      "inputs": [
        {
          "indexed": true,
          "internalType": "uint256",
          "name": "id",
          "type": "uint256"
        },
        {
          "indexed": true,
          "internalType": "address",
          "name": "proposer",
          "type": "address"
        }
      ],
      "name": "ProposalCreated",
      "type": "event"
    },
    {
      "anonymous": false,
      "inputs": [
        {
          "indexed": true,
          "internalType": "address",
          "name": "newStrategy",
          "type": "address"
        }
      ],
      "name": "StrategyChanged",
      "type": "event"
    },
    {
      "anonymous": false,
      "inputs": [],
      "name": "TranquilityActivated",
      "type": "event"
    },
    {
      "anonymous": false,
      "inputs": [
        {
          "indexed": true,
          "internalType": "uint256",
          "name": "id",
          "type": "uint256"
        },
        {
          "indexed": true,
          "internalType": "address",
          "name": "voter",
          "type": "address"
        },
        {
          "indexed": false,
          "internalType": "bool",
          "name": "support",
          "type": "bool"
        },
        {
          "indexed": false,
          "internalType": "uint256",
          "name": "weight",
          "type": "uint256"
        }
      ],
      "name": "Voted",
      "type": "event"
    },
    {
      "inputs": [],
      "name": "activatePanic",
      "outputs": [],
      "stateMutability": "nonpayable",
      "type": "function"
    },
    {
      "inputs": [],
      "name": "buyTokens",
      "outputs": [],
      "stateMutability": "payable",
      "type": "function"
    },
    {
      "inputs": [
        {
          "internalType": "string",
          "name": "title",
          "type": "string"
        },
        {
          "internalType": "string",
          "name": "description",
          "type": "string"
        }
      ],
      "name": "createProposal",
      "outputs": [],
      "stateMutability": "nonpayable",
      "type": "function"
    },
    {
      "inputs": [
        {
          "internalType": "uint256",
          "name": "proposalId",
          "type": "uint256"
        }
      ],
      "name": "finalizeProposal",
      "outputs": [],
      "stateMutability": "nonpayable",
      "type": "function"
    },
    {
      "inputs": [],
      "name": "lockPeriod",
      "outputs": [
        {
          "internalType": "uint256",
          "name": "",
          "type": "uint256"
        }
      ],
      "stateMutability": "view",
      "type": "function"
    },
    {
      "inputs": [],
      "name": "owner",
      "outputs": [
        {
          "internalType": "address",
          "name": "",
          "type": "address"
        }
      ],
      "stateMutability": "view",
      "type": "function"
    },
    {
      "inputs": [],
      "name": "panicMultisig",
      "outputs": [
        {
          "internalType": "address",
          "name": "",
          "type": "address"
        }
      ],
      "stateMutability": "view",
      "type": "function"
    },
    {
      "inputs": [],
      "name": "paused",
      "outputs": [
        {
          "internalType": "bool",
          "name": "",
          "type": "bool"
        }
      ],
      "stateMutability": "view",
      "type": "function"
    },
    {
      "inputs": [],
      "name": "proposalCount",
      "outputs": [
        {
          "internalType": "uint256",
          "name": "",
          "type": "uint256"
        }
      ],
      "stateMutability": "view",
      "type": "function"
    },
    {
      "inputs": [],
      "name": "proposalDuration",
      "outputs": [
        {
          "internalType": "uint256",
          "name": "",
          "type": "uint256"
        }
      ],
      "stateMutability": "view",
      "type": "function"
    },
    {
      "inputs": [
        {
          "internalType": "uint256",
          "name": "",
          "type": "uint256"
        }
      ],
      "name": "proposals",
      "outputs": [
        {
          "internalType": "uint256",
          "name": "id",
          "type": "uint256"
        },
        {
          "internalType": "address",
          "name": "proposer",
          "type": "address"
        },
        {
          "internalType": "string",
          "name": "title",
          "type": "string"
        },
        {
          "internalType": "string",
          "name": "description",
          "type": "string"
        },
        {
          "internalType": "uint256",
          "name": "start",
          "type": "uint256"
        },
        {
          "internalType": "uint256",
          "name": "end",
          "type": "uint256"
        },
        {
          "internalType": "uint256",
          "name": "forVotes",
          "type": "uint256"
        },
        {
          "internalType": "uint256",
          "name": "againstVotes",
          "type": "uint256"
        },
        {
          "internalType": "bool",
          "name": "executed",
          "type": "bool"
        }
      ],
      "stateMutability": "view",
      "type": "function"
    },
    {
      "inputs": [
        {
          "internalType": "address",
          "name": "",
          "type": "address"
        }
      ],
      "name": "proposeStakeUnlock",
      "outputs": [
        {
          "internalType": "uint256",
          "name": "",
          "type": "uint256"
        }
      ],
      "stateMutability": "view",
      "type": "function"
    },
    {
      "inputs": [],
      "name": "renounceOwnership",
      "outputs": [],
      "stateMutability": "nonpayable",
      "type": "function"
    },
    {
      "inputs": [
        {
          "internalType": "address",
          "name": "newMultisig",
          "type": "address"
        }
      ],
      "name": "setPanicMultisig",
      "outputs": [],
      "stateMutability": "nonpayable",
      "type": "function"
    },
    {
      "inputs": [
        {
          "internalType": "uint256",
          "name": "_tokenPriceWei",
          "type": "uint256"
        },
        {
          "internalType": "uint256",
          "name": "_stakeToVote",
          "type": "uint256"
        },
        {
          "internalType": "uint256",
          "name": "_stakeToPropose",
          "type": "uint256"
        },
        {
          "internalType": "uint256",
          "name": "_lockPeriod",
          "type": "uint256"
        },
        {
          "internalType": "uint256",
          "name": "_proposalDuration",
          "type": "uint256"
        },
        {
          "internalType": "uint256",
          "name": "_voteUnit",
          "type": "uint256"
        }
      ],
      "name": "setParameters",
      "outputs": [],
      "stateMutability": "nonpayable",
      "type": "function"
    },
    {
      "inputs": [
        {
          "internalType": "address",
          "name": "strategy",
          "type": "address"
        }
      ],
      "name": "setVotingStrategy",
      "outputs": [],
      "stateMutability": "nonpayable",
      "type": "function"
    },
    {
      "inputs": [
        {
          "internalType": "uint256",
          "name": "amount",
          "type": "uint256"
        }
      ],
      "name": "stakeForProposal",
      "outputs": [],
      "stateMutability": "nonpayable",
      "type": "function"
    },
    {
      "inputs": [
        {
          "internalType": "uint256",
          "name": "amount",
          "type": "uint256"
        }
      ],
      "name": "stakeForVote",
      "outputs": [],
      "stateMutability": "nonpayable",
      "type": "function"
    },
    {
      "inputs": [
        {
          "internalType": "address",
          "name": "",
          "type": "address"
        }
      ],
      "name": "stakeProposals",
      "outputs": [
        {
          "internalType": "uint256",
          "name": "",
          "type": "uint256"
        }
      ],
      "stateMutability": "view",
      "type": "function"
    },
    {
      "inputs": [],
      "name": "stakeToPropose",
      "outputs": [
        {
          "internalType": "uint256",
          "name": "",
          "type": "uint256"
        }
      ],
      "stateMutability": "view",
      "type": "function"
    },
    {
      "inputs": [],
      "name": "stakeToVote",
      "outputs": [
        {
          "internalType": "uint256",
          "name": "",
          "type": "uint256"
        }
      ],
      "stateMutability": "view",
      "type": "function"
    },
    {
      "inputs": [
        {
          "internalType": "address",
          "name": "",
          "type": "address"
        }
      ],
      "name": "stakeVotes",
      "outputs": [
        {
          "internalType": "uint256",
          "name": "",
          "type": "uint256"
        }
      ],
      "stateMutability": "view",
      "type": "function"
    },
    {
      "inputs": [],
      "name": "token",
      "outputs": [
        {
          "internalType": "contract VotingToken",
          "name": "",
          "type": "address"
        }
      ],
      "stateMutability": "view",
      "type": "function"
    },
    {
      "inputs": [],
      "name": "tokenPriceWei",
      "outputs": [
        {
          "internalType": "uint256",
          "name": "",
          "type": "uint256"
        }
      ],
      "stateMutability": "view",
      "type": "function"
    },
    {
      "inputs": [],
      "name": "tranquility",
      "outputs": [],
      "stateMutability": "nonpayable",
      "type": "function"
    },
    {
      "inputs": [
        {
          "internalType": "address",
          "name": "newOwner",
          "type": "address"
        }
      ],
      "name": "transferDaoOwnership",
      "outputs": [],
      "stateMutability": "nonpayable",
      "type": "function"
    },
    {
      "inputs": [
        {
          "internalType": "address",
          "name": "newOwner",
          "type": "address"
        }
      ],
      "name": "transferOwnership",
      "outputs": [],
      "stateMutability": "nonpayable",
      "type": "function"
    },
    {
      "inputs": [],
      "name": "unstakeProposals",
      "outputs": [],
      "stateMutability": "nonpayable",
      "type": "function"
    },
    {
      "inputs": [],
      "name": "unstakeVotes",
      "outputs": [],
      "stateMutability": "nonpayable",
      "type": "function"
    },
    {
      "inputs": [
        {
          "internalType": "uint256",
          "name": "proposalId",
          "type": "uint256"
        },
        {
          "internalType": "bool",
          "name": "support",
          "type": "bool"
        }
      ],
      "name": "vote",
      "outputs": [],
      "stateMutability": "nonpayable",
      "type": "function"
    },
    {
      "inputs": [
        {
          "internalType": "address",
          "name": "",
          "type": "address"
        }
      ],
      "name": "voteStakeUnlock",
      "outputs": [
        {
          "internalType": "uint256",
          "name": "",
          "type": "uint256"
        }
      ],
      "stateMutability": "view",
      "type": "function"
    },
    {
      "inputs": [],
      "name": "voteUnit",
      "outputs": [
        {
          "internalType": "uint256",
          "name": "",
          "type": "uint256"
        }
      ],
      "stateMutability": "view",
      "type": "function"
    },
    {
      "inputs": [],
      "name": "votingStrategy",
      "outputs": [
        {
          "internalType": "contract IVotingStrategy",
          "name": "",
          "type": "address"
        }
      ],
      "stateMutability": "view",
      "type": "function"
    }
  ],
  "bytecode": "0x60806040523480156200001157600080fd5b5060405162004fc138038062004fc18339818101604052810190620000379190620004fd565b33600073ffffffffffffffffffffffffffffffffffffffff168173ffffffffffffffffffffffffffffffffffffffff1603620000ad5760006040517f1e4fbdf7000000000000000000000000000000000000000000000000000000008152600401620000a4919062000642565b60405180910390fd5b620000be81620001f860201b60201c565b50898930604051620000d090620002bc565b620000de93929190620006bc565b604051809103906000f080158015620000fb573d6000803e3d6000fd5b50600160006101000a81548173ffffffffffffffffffffffffffffffffffffffff021916908373ffffffffffffffffffffffffffffffffffffffff16021790555087600360006101000a81548173ffffffffffffffffffffffffffffffffffffffff021916908373ffffffffffffffffffffffffffffffffffffffff16021790555086600481905550856005819055508460068190555083600781905550826008819055508160098190555080600260006101000a81548173ffffffffffffffffffffffffffffffffffffffff021916908373ffffffffffffffffffffffffffffffffffffffff1602179055505050505050505050505062000707565b60008060009054906101000a900473ffffffffffffffffffffffffffffffffffffffff169050816000806101000a81548173ffffffffffffffffffffffffffffffffffffffff021916908373ffffffffffffffffffffffffffffffffffffffff1602179055508173ffffffffffffffffffffffffffffffffffffffff168173ffffffffffffffffffffffffffffffffffffffff167f8be0079c531659141344cd1fd0a4f28419497f9722a3daafe3b4186f6b6457e060405160405180910390a35050565b611953806200366e83390190565b6000604051905090565b600080fd5b600080fd5b600080fd5b600080fd5b6000601f19601f8301169050919050565b7f4e487b7100000000000000000000000000000000000000000000000000000000600052604160045260246000fd5b6200033382620002e8565b810181811067ffffffffffffffff82111715620003555762000354620002f9565b5b80604052505050565b60006200036a620002ca565b905062000378828262000328565b919050565b600067ffffffffffffffff8211156200039b576200039a620002f9565b5b620003a682620002e8565b9050602081019050919050565b60005b83811015620003d3578082015181840152602081019050620003b6565b60008484015250505050565b6000620003f6620003f0846200037d565b6200035e565b905082815260208101848484011115620004155762000414620002e3565b5b62000422848285620003b3565b509392505050565b600082601f830112620004425762000441620002de565b5b815162000454848260208601620003df565b91505092915050565b600073ffffffffffffffffffffffffffffffffffffffff82169050919050565b60006200048a826200045d565b9050919050565b6200049c816200047d565b8114620004a857600080fd5b50565b600081519050620004bc8162000491565b92915050565b6000819050919050565b620004d781620004c2565b8114620004e357600080fd5b50565b600081519050620004f781620004cc565b92915050565b6000806000806000806000806000806101408b8d031215620005245762000523620002d4565b5b60008b015167ffffffffffffffff811115620005455762000544620002d9565b5b620005538d828e016200042a565b9a505060208b015167ffffffffffffffff811115620005775762000576620002d9565b5b620005858d828e016200042a565b9950506040620005988d828e01620004ab565b9850506060620005ab8d828e01620004e6565b9750506080620005be8d828e01620004e6565b96505060a0620005d18d828e01620004e6565b95505060c0620005e48d828e01620004e6565b94505060e0620005f78d828e01620004e6565b9350506101006200060b8d828e01620004e6565b9250506101206200061f8d828e01620004ab565b9150509295989b9194979a5092959850565b6200063c816200047d565b82525050565b600060208201905062000659600083018462000631565b92915050565b600081519050919050565b600082825260208201905092915050565b600062000688826200065f565b6200069481856200066a565b9350620006a6818560208601620003b3565b620006b181620002e8565b840191505092915050565b60006060820190508181036000830152620006d881866200067b565b90508181036020830152620006ee81856200067b565b9050620006ff604083018462000631565b949350505050565b612f5780620007176000396000f3fe6080604052600436106101ee5760003560e01c80638da5cb5b1161010d578063d0febe4c116100a0578063f2fde38b1161006f578063f2fde38b14610688578063fb5c8bfd146106b1578063fc0c546a146106dc578063fdc7cce314610707578063fdeeb5c31461071e576101ee565b8063d0febe4c146105ff578063d289dcbf14610609578063da35c66414610632578063ee0f0a021461065d576101ee565b8063a52e6ea9116100dc578063a52e6ea914610545578063bf618ade1461055c578063c9d27afe14610599578063cec72479146105c2576101ee565b80638da5cb5b1461049d5780638e3dd8e2146104c857806398fe5691146104f35780639931a8831461051c576101ee565b80634884851211610185578063715018a611610154578063715018a6146103f55780637297bbe71461040c5780637bd58bee146104375780638c91b63814610460576101ee565b806348848512146103615780635652077c146103785780635c975abb146103a157806365e481e2146103cc576101ee565b806330280d39116101c157806330280d39146102b757806334f89012146102e25780633fd8b02f1461031f578063479f738a1461034a576101ee565b8063013cf08b146101f357806305d0f15b14610238578063282c874914610263578063301099621461028c575b600080fd5b3480156101ff57600080fd5b5061021a60048036038101906102159190611f91565b610747565b60405161022f999897969594939291906120b9565b60405180910390f35b34801561024457600080fd5b5061024d6108d2565b60405161025a9190612154565b60405180910390f35b34801561026f57600080fd5b5061028a6004803603810190610285919061216f565b6108d8565b005b34801561029857600080fd5b506102a1610962565b6040516102ae9190612154565b60405180910390f35b3480156102c357600080fd5b506102cc610968565b6040516102d99190612154565b60405180910390f35b3480156102ee57600080fd5b5061030960048036038101906103049190612228565b61096e565b6040516103169190612154565b60405180910390f35b34801561032b57600080fd5b50610334610986565b6040516103419190612154565b60405180910390f35b34801561035657600080fd5b5061035f61098c565b005b34801561036d57600080fd5b50610376610b79565b005b34801561038457600080fd5b5061039f600480360381019061039a9190611f91565b610bca565b005b3480156103ad57600080fd5b506103b6610e73565b6040516103c39190612255565b60405180910390f35b3480156103d857600080fd5b506103f360048036038101906103ee91906123a5565b610e86565b005b34801561040157600080fd5b5061040a611069565b005b34801561041857600080fd5b5061042161107d565b60405161042e9190612154565b60405180910390f35b34801561044357600080fd5b5061045e60048036038101906104599190611f91565b611083565b005b34801561046c57600080fd5b5061048760048036038101906104829190612228565b61125e565b6040516104949190612154565b60405180910390f35b3480156104a957600080fd5b506104b2611276565b6040516104bf919061241d565b60405180910390f35b3480156104d457600080fd5b506104dd61129f565b6040516104ea919061241d565b60405180910390f35b3480156104ff57600080fd5b5061051a60048036038101906105159190611f91565b6112c5565b005b34801561052857600080fd5b50610543600480360381019061053e9190612228565b6114a0565b005b34801561055157600080fd5b5061055a6114b4565b005b34801561056857600080fd5b50610583600480360381019061057e9190612228565b61158d565b6040516105909190612154565b60405180910390f35b3480156105a557600080fd5b506105c060048036038101906105bb9190612464565b6115a5565b005b3480156105ce57600080fd5b506105e960048036038101906105e49190612228565b6118a9565b6040516105f69190612154565b60405180910390f35b6106076118c1565b005b34801561061557600080fd5b50610630600480360381019061062b9190612228565b6119fa565b005b34801561063e57600080fd5b50610647611ad9565b6040516106549190612154565b60405180910390f35b34801561066957600080fd5b50610672611ae3565b60405161067f9190612154565b60405180910390f35b34801561069457600080fd5b506106af60048036038101906106aa9190612228565b611ae9565b005b3480156106bd57600080fd5b506106c6611b6f565b6040516106d39190612503565b60405180910390f35b3480156106e857600080fd5b506106f1611b95565b6040516106fe919061253f565b60405180910390f35b34801561071357600080fd5b5061071c611bbb565b005b34801561072a57600080fd5b5061074560048036038101906107409190612228565b611da8565b005b600b6020528060005260406000206000915090508060000154908060010160009054906101000a900473ffffffffffffffffffffffffffffffffffffffff169080600201805461079690612589565b80601f01602080910402602001604051908101604052809291908181526020018280546107c290612589565b801561080f5780601f106107e45761010080835404028352916020019161080f565b820191906000526020600020905b8154815290600101906020018083116107f257829003601f168201915b50505050509080600301805461082490612589565b80601f016020809104026020016040519081016040528092919081815260200182805461085090612589565b801561089d5780601f106108725761010080835404028352916020019161089d565b820191906000526020600020905b81548152906001019060200180831161088057829003601f168201915b5050505050908060040154908060050154908060060154908060070154908060080160009054906101000a900460ff16905089565b60045481565b6108e0611df4565b600360149054906101000a900460ff1615610930576040517f08c379a000000000000000000000000000000000000000000000000000000000815260040161092790612606565b60405180910390fd5b856004819055508460058190555083600681905550826007819055508160088190555080600981905550505050505050565b60085481565b60055481565b600f6020528060005260406000206000915090505481565b60075481565b600e60003373ffffffffffffffffffffffffffffffffffffffff1673ffffffffffffffffffffffffffffffffffffffff16815260200190815260200160002054421015610a0e576040517f08c379a0000000000000000000000000000000000000000000000000000000008152600401610a0590612672565b60405180910390fd5b6000600c60003373ffffffffffffffffffffffffffffffffffffffff1673ffffffffffffffffffffffffffffffffffffffff1681526020019081526020016000205490506000600c60003373ffffffffffffffffffffffffffffffffffffffff1673ffffffffffffffffffffffffffffffffffffffff16815260200190815260200160002081905550600160009054906101000a900473ffffffffffffffffffffffffffffffffffffffff1673ffffffffffffffffffffffffffffffffffffffff1663a9059cbb33836040518363ffffffff1660e01b8152600401610af4929190612692565b6020604051808303816000875af1158015610b13573d6000803e3d6000fd5b505050506040513d601f19601f82011682018060405250810190610b3791906126d0565b610b76576040517f08c379a0000000000000000000000000000000000000000000000000000000008152600401610b6d90612749565b60405180910390fd5b50565b610b81611df4565b6001600360146101000a81548160ff0219169083151502179055507f331fcdf6ed27ddf64e5fb344989d01fdafe4db6de6ed44ac2ceed17a5e85dd1060405160405180910390a1565b600360149054906101000a900460ff1615610c1a576040517f08c379a0000000000000000000000000000000000000000000000000000000008152600401610c1190612606565b60405180910390fd5b6000600b600083815260200190815260200160002090508060050154421015610c78576040517f08c379a0000000000000000000000000000000000000000000000000000000008152600401610c6f906127b5565b60405180910390fd5b8060080160009054906101000a900460ff1615610cca576040517f08c379a0000000000000000000000000000000000000000000000000000000008152600401610cc190612821565b60405180910390fd5b6000600954600160009054906101000a900473ffffffffffffffffffffffffffffffffffffffff1673ffffffffffffffffffffffffffffffffffffffff166318160ddd6040518163ffffffff1660e01b8152600401602060405180830381865afa158015610d3c573d6000803e3d6000fd5b505050506040513d601f19601f82011682018060405250810190610d609190612856565b610d6a91906128e1565b90506000600260009054906101000a900473ffffffffffffffffffffffffffffffffffffffff1673ffffffffffffffffffffffffffffffffffffffff1663d95baddf84600601548560070154856040518463ffffffff1660e01b8152600401610dd593929190612912565b602060405180830381865afa158015610df2573d6000803e3d6000fd5b505050506040513d601f19601f82011682018060405250810190610e1691906126d0565b905060018360080160006101000a81548160ff021916908315150217905550837f82693b732f9696c8a914b820dd6c52544bd61b844bbd4c8707253df9340cf6b782604051610e659190612255565b60405180910390a250505050565b600360149054906101000a900460ff1681565b600360149054906101000a900460ff1615610ed6576040517f08c379a0000000000000000000000000000000000000000000000000000000008152600401610ecd90612606565b60405180910390fd5b600654600d60003373ffffffffffffffffffffffffffffffffffffffff1673ffffffffffffffffffffffffffffffffffffffff168152602001908152602001600020541015610f5a576040517f08c379a0000000000000000000000000000000000000000000000000000000008152600401610f5190612995565b60405180910390fd5b600a6000815480929190610f6d906129b5565b91905055506000600b6000600a5481526020019081526020016000209050600a548160000181905550338160010160006101000a81548173ffffffffffffffffffffffffffffffffffffffff021916908373ffffffffffffffffffffffffffffffffffffffff16021790555082816002019081610fea9190612b9f565b5081816003019081610ffc9190612b9f565b50428160040181905550600854426110149190612c71565b81600501819055503373ffffffffffffffffffffffffffffffffffffffff1681600001547fcd423cc1203c0af96b9b3d68d73b3064a69de2d14450bb7181c5e5df2132b35860405160405180910390a3505050565b611071611df4565b61107b6000611e7b565b565b60095481565b600360149054906101000a900460ff16156110d3576040517f08c379a00000000000000000000000000000000000000000000000000000000081526004016110ca90612606565b60405180910390fd5b600160009054906101000a900473ffffffffffffffffffffffffffffffffffffffff1673ffffffffffffffffffffffffffffffffffffffff166323b872dd3330846040518463ffffffff1660e01b815260040161113293929190612ca5565b6020604051808303816000875af1158015611151573d6000803e3d6000fd5b505050506040513d601f19601f8201168201806040525081019061117591906126d0565b6111b4576040517f08c379a00000000000000000000000000000000000000000000000000000000081526004016111ab90612749565b60405180910390fd5b80600d60003373ffffffffffffffffffffffffffffffffffffffff1673ffffffffffffffffffffffffffffffffffffffff16815260200190815260200160002060008282546112039190612c71565b92505081905550600754426112189190612c71565b600f60003373ffffffffffffffffffffffffffffffffffffffff1673ffffffffffffffffffffffffffffffffffffffff1681526020019081526020016000208190555050565b600c6020528060005260406000206000915090505481565b60008060009054906101000a900473ffffffffffffffffffffffffffffffffffffffff16905090565b600360009054906101000a900473ffffffffffffffffffffffffffffffffffffffff1681565b600360149054906101000a900460ff1615611315576040517f08c379a000000000000000000000000000000000000000000000000000000000815260040161130c90612606565b60405180910390fd5b600160009054906101000a900473ffffffffffffffffffffffffffffffffffffffff1673ffffffffffffffffffffffffffffffffffffffff166323b872dd3330846040518463ffffffff1660e01b815260040161137493929190612ca5565b6020604051808303816000875af1158015611393573d6000803e3d6000fd5b505050506040513d601f19601f820116820180604052508101906113b791906126d0565b6113f6576040517f08c379a00000000000000000000000000000000000000000000000000000000081526004016113ed90612749565b60405180910390fd5b80600c60003373ffffffffffffffffffffffffffffffffffffffff1673ffffffffffffffffffffffffffffffffffffffff16815260200190815260200160002060008282546114459190612c71565b925050819055506007544261145a9190612c71565b600e60003373ffffffffffffffffffffffffffffffffffffffff1673ffffffffffffffffffffffffffffffffffffffff1681526020019081526020016000208190555050565b6114a8611df4565b6114b181611ae9565b50565b600360009054906101000a900473ffffffffffffffffffffffffffffffffffffffff1673ffffffffffffffffffffffffffffffffffffffff163373ffffffffffffffffffffffffffffffffffffffff1614611544576040517f08c379a000000000000000000000000000000000000000000000000000000000815260040161153b90612d28565b60405180910390fd5b6000600360146101000a81548160ff0219169083151502179055507fb8b2cc4a9a9525cff7f6dd06a9a57bd0846e582cdcb3b948e19b644d58e68acd60405160405180910390a1565b600d6020528060005260406000206000915090505481565b600360149054906101000a900460ff16156115f5576040517f08c379a00000000000000000000000000000000000000000000000000000000081526004016115ec90612606565b60405180910390fd5b6000600b6000848152602001908152602001600020905080600501544210611652576040517f08c379a000000000000000000000000000000000000000000000000000000000815260040161164990612d94565b60405180910390fd5b8060090160003373ffffffffffffffffffffffffffffffffffffffff1673ffffffffffffffffffffffffffffffffffffffff16815260200190815260200160002060009054906101000a900460ff16156116e1576040517f08c379a00000000000000000000000000000000000000000000000000000000081526004016116d890612e00565b60405180910390fd5b600554600c60003373ffffffffffffffffffffffffffffffffffffffff1673ffffffffffffffffffffffffffffffffffffffff168152602001908152602001600020541015611765576040517f08c379a000000000000000000000000000000000000000000000000000000000815260040161175c90612e6c565b60405180910390fd5b6000600954600c60003373ffffffffffffffffffffffffffffffffffffffff1673ffffffffffffffffffffffffffffffffffffffff168152602001908152602001600020546117b491906128e1565b905082156117dc57808260060160008282546117d09190612c71565b925050819055506117f8565b808260070160008282546117f09190612c71565b925050819055505b60018260090160003373ffffffffffffffffffffffffffffffffffffffff1673ffffffffffffffffffffffffffffffffffffffff16815260200190815260200160002060006101000a81548160ff0219169083151502179055503373ffffffffffffffffffffffffffffffffffffffff16847f7c2de587c00d75474a0c6c6fa96fd3b45dc974cd4e8a75f712bb84c950dce1b5858460405161189b929190612e8c565b60405180910390a350505050565b600e6020528060005260406000206000915090505481565b600360149054906101000a900460ff1615611911576040517f08c379a000000000000000000000000000000000000000000000000000000000815260040161190890612606565b60405180910390fd5b600454341015611956576040517f08c379a000000000000000000000000000000000000000000000000000000000815260040161194d90612f01565b60405180910390fd5b60006004543461196691906128e1565b9050600160009054906101000a900473ffffffffffffffffffffffffffffffffffffffff1673ffffffffffffffffffffffffffffffffffffffff166340c10f1933836040518363ffffffff1660e01b81526004016119c5929190612692565b600060405180830381600087803b1580156119df57600080fd5b505af11580156119f3573d6000803e3d6000fd5b5050505050565b611a02611df4565b600360149054906101000a900460ff1615611a52576040517f08c379a0000000000000000000000000000000000000000000000000000000008152600401611a4990612606565b60405180910390fd5b80600260006101000a81548173ffffffffffffffffffffffffffffffffffffffff021916908373ffffffffffffffffffffffffffffffffffffffff1602179055508073ffffffffffffffffffffffffffffffffffffffff167fafd1cdc355e15bfc9038294be1c6203ce953704fda8c991bebe78ddd4d5420d160405160405180910390a250565b6000600a54905090565b60065481565b611af1611df4565b600073ffffffffffffffffffffffffffffffffffffffff168173ffffffffffffffffffffffffffffffffffffffff1603611b635760006040517f1e4fbdf7000000000000000000000000000000000000000000000000000000008152600401611b5a919061241d565b60405180910390fd5b611b6c81611e7b565b50565b600260009054906101000a900473ffffffffffffffffffffffffffffffffffffffff1681565b600160009054906101000a900473ffffffffffffffffffffffffffffffffffffffff1681565b600f60003373ffffffffffffffffffffffffffffffffffffffff1673ffffffffffffffffffffffffffffffffffffffff16815260200190815260200160002054421015611c3d576040517f08c379a0000000000000000000000000000000000000000000000000000000008152600401611c3490612672565b60405180910390fd5b6000600d60003373ffffffffffffffffffffffffffffffffffffffff1673ffffffffffffffffffffffffffffffffffffffff1681526020019081526020016000205490506000600d60003373ffffffffffffffffffffffffffffffffffffffff1673ffffffffffffffffffffffffffffffffffffffff16815260200190815260200160002081905550600160009054906101000a900473ffffffffffffffffffffffffffffffffffffffff1673ffffffffffffffffffffffffffffffffffffffff1663a9059cbb33836040518363ffffffff1660e01b8152600401611d23929190612692565b6020604051808303816000875af1158015611d42573d6000803e3d6000fd5b505050506040513d601f19601f82011682018060405250810190611d6691906126d0565b611da5576040517f08c379a0000000000000000000000000000000000000000000000000000000008152600401611d9c90612749565b60405180910390fd5b50565b611db0611df4565b80600360006101000a81548173ffffffffffffffffffffffffffffffffffffffff021916908373ffffffffffffffffffffffffffffffffffffffff16021790555050565b611dfc611f3f565b73ffffffffffffffffffffffffffffffffffffffff16611e1a611276565b73ffffffffffffffffffffffffffffffffffffffff1614611e7957611e3d611f3f565b6040517f118cdaa7000000000000000000000000000000000000000000000000000000008152600401611e70919061241d565b60405180910390fd5b565b60008060009054906101000a900473ffffffffffffffffffffffffffffffffffffffff169050816000806101000a81548173ffffffffffffffffffffffffffffffffffffffff021916908373ffffffffffffffffffffffffffffffffffffffff1602179055508173ffffffffffffffffffffffffffffffffffffffff168173ffffffffffffffffffffffffffffffffffffffff167f8be0079c531659141344cd1fd0a4f28419497f9722a3daafe3b4186f6b6457e060405160405180910390a35050565b600033905090565b6000604051905090565b600080fd5b600080fd5b6000819050919050565b611f6e81611f5b565b8114611f7957600080fd5b50565b600081359050611f8b81611f65565b92915050565b600060208284031215611fa757611fa6611f51565b5b6000611fb584828501611f7c565b91505092915050565b611fc781611f5b565b82525050565b600073ffffffffffffffffffffffffffffffffffffffff82169050919050565b6000611ff882611fcd565b9050919050565b61200881611fed565b82525050565b600081519050919050565b600082825260208201905092915050565b60005b8381101561204857808201518184015260208101905061202d565b60008484015250505050565b6000601f19601f8301169050919050565b60006120708261200e565b61207a8185612019565b935061208a81856020860161202a565b61209381612054565b840191505092915050565b60008115159050919050565b6120b38161209e565b82525050565b6000610120820190506120cf600083018c611fbe565b6120dc602083018b611fff565b81810360408301526120ee818a612065565b905081810360608301526121028189612065565b90506121116080830188611fbe565b61211e60a0830187611fbe565b61212b60c0830186611fbe565b61213860e0830185611fbe565b6121466101008301846120aa565b9a9950505050505050505050565b60006020820190506121696000830184611fbe565b92915050565b60008060008060008060c0878903121561218c5761218b611f51565b5b600061219a89828a01611f7c565b96505060206121ab89828a01611f7c565b95505060406121bc89828a01611f7c565b94505060606121cd89828a01611f7c565b93505060806121de89828a01611f7c565b92505060a06121ef89828a01611f7c565b9150509295509295509295565b61220581611fed565b811461221057600080fd5b50565b600081359050612222816121fc565b92915050565b60006020828403121561223e5761223d611f51565b5b600061224c84828501612213565b91505092915050565b600060208201905061226a60008301846120aa565b92915050565b600080fd5b600080fd5b7f4e487b7100000000000000000000000000000000000000000000000000000000600052604160045260246000fd5b6122b282612054565b810181811067ffffffffffffffff821117156122d1576122d061227a565b5b80604052505050565b60006122e4611f47565b90506122f082826122a9565b919050565b600067ffffffffffffffff8211156123105761230f61227a565b5b61231982612054565b9050602081019050919050565b82818337600083830152505050565b6000612348612343846122f5565b6122da565b90508281526020810184848401111561236457612363612275565b5b61236f848285612326565b509392505050565b600082601f83011261238c5761238b612270565b5b813561239c848260208601612335565b91505092915050565b600080604083850312156123bc576123bb611f51565b5b600083013567ffffffffffffffff8111156123da576123d9611f56565b5b6123e685828601612377565b925050602083013567ffffffffffffffff81111561240757612406611f56565b5b61241385828601612377565b9150509250929050565b60006020820190506124326000830184611fff565b92915050565b6124418161209e565b811461244c57600080fd5b50565b60008135905061245e81612438565b92915050565b6000806040838503121561247b5761247a611f51565b5b600061248985828601611f7c565b925050602061249a8582860161244f565b9150509250929050565b6000819050919050565b60006124c96124c46124bf84611fcd565b6124a4565b611fcd565b9050919050565b60006124db826124ae565b9050919050565b60006124ed826124d0565b9050919050565b6124fd816124e2565b82525050565b600060208201905061251860008301846124f4565b92915050565b6000612529826124d0565b9050919050565b6125398161251e565b82525050565b60006020820190506125546000830184612530565b92915050565b7f4e487b7100000000000000000000000000000000000000000000000000000000600052602260045260246000fd5b600060028204905060018216806125a157607f821691505b6020821081036125b4576125b361255a565b5b50919050565b7f44414f2069732070617573656400000000000000000000000000000000000000600082015250565b60006125f0600d83612019565b91506125fb826125ba565b602082019050919050565b6000602082019050818103600083015261261f816125e3565b9050919050565b7f4c6f636b20706572696f64206e6f742070617373656400000000000000000000600082015250565b600061265c601683612019565b915061266782612626565b602082019050919050565b6000602082019050818103600083015261268b8161264f565b9050919050565b60006040820190506126a76000830185611fff565b6126b46020830184611fbe565b9392505050565b6000815190506126ca81612438565b92915050565b6000602082840312156126e6576126e5611f51565b5b60006126f4848285016126bb565b91505092915050565b7f5472616e73666572206661696c65640000000000000000000000000000000000600082015250565b6000612733600f83612019565b915061273e826126fd565b602082019050919050565b6000602082019050818103600083015261276281612726565b9050919050565b7f566f74696e67207374696c6c2061637469766500000000000000000000000000600082015250565b600061279f601383612019565b91506127aa82612769565b602082019050919050565b600060208201905081810360008301526127ce81612792565b9050919050565b7f416c72656164792066696e616c697a6564000000000000000000000000000000600082015250565b600061280b601183612019565b9150612816826127d5565b602082019050919050565b6000602082019050818103600083015261283a816127fe565b9050919050565b60008151905061285081611f65565b92915050565b60006020828403121561286c5761286b611f51565b5b600061287a84828501612841565b91505092915050565b7f4e487b7100000000000000000000000000000000000000000000000000000000600052601260045260246000fd5b7f4e487b7100000000000000000000000000000000000000000000000000000000600052601160045260246000fd5b60006128ec82611f5b565b91506128f783611f5b565b92508261290757612906612883565b5b828204905092915050565b60006060820190506129276000830186611fbe565b6129346020830185611fbe565b6129416040830184611fbe565b949350505050565b7f496e73756666696369656e74207374616b6520746f2070726f706f7365000000600082015250565b600061297f601d83612019565b915061298a82612949565b602082019050919050565b600060208201905081810360008301526129ae81612972565b9050919050565b60006129c082611f5b565b91507fffffffffffffffffffffffffffffffffffffffffffffffffffffffffffffffff82036129f2576129f16128b2565b5b600182019050919050565b60008190508160005260206000209050919050565b60006020601f8301049050919050565b600082821b905092915050565b600060088302612a5f7fffffffffffffffffffffffffffffffffffffffffffffffffffffffffffffffff82612a22565b612a698683612a22565b95508019841693508086168417925050509392505050565b6000612a9c612a97612a9284611f5b565b6124a4565b611f5b565b9050919050565b6000819050919050565b612ab683612a81565b612aca612ac282612aa3565b848454612a2f565b825550505050565b600090565b612adf612ad2565b612aea818484612aad565b505050565b5b81811015612b0e57612b03600082612ad7565b600181019050612af0565b5050565b601f821115612b5357612b24816129fd565b612b2d84612a12565b81016020851015612b3c578190505b612b50612b4885612a12565b830182612aef565b50505b505050565b600082821c905092915050565b6000612b7660001984600802612b58565b1980831691505092915050565b6000612b8f8383612b65565b9150826002028217905092915050565b612ba88261200e565b67ffffffffffffffff811115612bc157612bc061227a565b5b612bcb8254612589565b612bd6828285612b12565b600060209050601f831160018114612c095760008415612bf7578287015190505b612c018582612b83565b865550612c69565b601f198416612c17866129fd565b60005b82811015612c3f57848901518255600182019150602085019450602081019050612c1a565b86831015612c5c5784890151612c58601f891682612b65565b8355505b6001600288020188555050505b505050505050565b6000612c7c82611f5b565b9150612c8783611f5b565b9250828201905080821115612c9f57612c9e6128b2565b5b92915050565b6000606082019050612cba6000830186611fff565b612cc76020830185611fff565b612cd46040830184611fbe565b949350505050565b7f4f6e6c792070616e6963206d756c746973696700000000000000000000000000600082015250565b6000612d12601383612019565b9150612d1d82612cdc565b602082019050919050565b60006020820190508181036000830152612d4181612d05565b9050919050565b7f566f74696e6720706572696f6420656e64656400000000000000000000000000600082015250565b6000612d7e601383612019565b9150612d8982612d48565b602082019050919050565b60006020820190508181036000830152612dad81612d71565b9050919050565b7f416c726561647920766f74656400000000000000000000000000000000000000600082015250565b6000612dea600d83612019565b9150612df582612db4565b602082019050919050565b60006020820190508181036000830152612e1981612ddd565b9050919050565b7f496e73756666696369656e74207374616b6520746f20766f7465000000000000600082015250565b6000612e56601a83612019565b9150612e6182612e20565b602082019050919050565b60006020820190508181036000830152612e8581612e49565b9050919050565b6000604082019050612ea160008301856120aa565b612eae6020830184611fbe565b9392505050565b7f496e73756666696369656e742045544800000000000000000000000000000000600082015250565b6000612eeb601083612019565b9150612ef682612eb5565b602082019050919050565b60006020820190508181036000830152612f1a81612ede565b905091905056fea2646970667358221220feb98347f5736f5cb3617f6197ca0ba1d99b32000fdc6578079cf355f00fb18c64736f6c6343000814003360806040523480156200001157600080fd5b5060405162001953380380620019538339818101604052810190620000379190620003ae565b80838381600390816200004b919062000693565b5080600490816200005d919062000693565b505050600073ffffffffffffffffffffffffffffffffffffffff168173ffffffffffffffffffffffffffffffffffffffff1603620000d55760006040517f1e4fbdf7000000000000000000000000000000000000000000000000000000008152600401620000cc91906200078b565b60405180910390fd5b620000e681620000f060201b60201c565b50505050620007a8565b6000600560009054906101000a900473ffffffffffffffffffffffffffffffffffffffff16905081600560006101000a81548173ffffffffffffffffffffffffffffffffffffffff021916908373ffffffffffffffffffffffffffffffffffffffff1602179055508173ffffffffffffffffffffffffffffffffffffffff168173ffffffffffffffffffffffffffffffffffffffff167f8be0079c531659141344cd1fd0a4f28419497f9722a3daafe3b4186f6b6457e060405160405180910390a35050565b6000604051905090565b600080fd5b600080fd5b600080fd5b600080fd5b6000601f19601f8301169050919050565b7f4e487b7100000000000000000000000000000000000000000000000000000000600052604160045260246000fd5b6200021f82620001d4565b810181811067ffffffffffffffff82111715620002415762000240620001e5565b5b80604052505050565b600062000256620001b6565b905062000264828262000214565b919050565b600067ffffffffffffffff821115620002875762000286620001e5565b5b6200029282620001d4565b9050602081019050919050565b60005b83811015620002bf578082015181840152602081019050620002a2565b60008484015250505050565b6000620002e2620002dc8462000269565b6200024a565b905082815260208101848484011115620003015762000300620001cf565b5b6200030e8482856200029f565b509392505050565b600082601f8301126200032e576200032d620001ca565b5b815162000340848260208601620002cb565b91505092915050565b600073ffffffffffffffffffffffffffffffffffffffff82169050919050565b6000620003768262000349565b9050919050565b620003888162000369565b81146200039457600080fd5b50565b600081519050620003a8816200037d565b92915050565b600080600060608486031215620003ca57620003c9620001c0565b5b600084015167ffffffffffffffff811115620003eb57620003ea620001c5565b5b620003f98682870162000316565b935050602084015167ffffffffffffffff8111156200041d576200041c620001c5565b5b6200042b8682870162000316565b92505060406200043e8682870162000397565b9150509250925092565b600081519050919050565b7f4e487b7100000000000000000000000000000000000000000000000000000000600052602260045260246000fd5b600060028204905060018216806200049b57607f821691505b602082108103620004b157620004b062000453565b5b50919050565b60008190508160005260206000209050919050565b60006020601f8301049050919050565b600082821b905092915050565b6000600883026200051b7fffffffffffffffffffffffffffffffffffffffffffffffffffffffffffffffff82620004dc565b620005278683620004dc565b95508019841693508086168417925050509392505050565b6000819050919050565b6000819050919050565b6000620005746200056e62000568846200053f565b62000549565b6200053f565b9050919050565b6000819050919050565b620005908362000553565b620005a86200059f826200057b565b848454620004e9565b825550505050565b600090565b620005bf620005b0565b620005cc81848462000585565b505050565b5b81811015620005f457620005e8600082620005b5565b600181019050620005d2565b5050565b601f82111562000643576200060d81620004b7565b6200061884620004cc565b8101602085101562000628578190505b620006406200063785620004cc565b830182620005d1565b50505b505050565b600082821c905092915050565b6000620006686000198460080262000648565b1980831691505092915050565b600062000683838362000655565b9150826002028217905092915050565b6200069e8262000448565b67ffffffffffffffff811115620006ba57620006b9620001e5565b5b620006c6825462000482565b620006d3828285620005f8565b600060209050601f8311600181146200070b5760008415620006f6578287015190505b62000702858262000675565b86555062000772565b601f1984166200071b86620004b7565b60005b8281101562000745578489015182556001820191506020850194506020810190506200071e565b8683101562000765578489015162000761601f89168262000655565b8355505b6001600288020188555050505b505050505050565b620007858162000369565b82525050565b6000602082019050620007a260008301846200077a565b92915050565b61119b80620007b86000396000f3fe608060405234801561001057600080fd5b50600436106100cf5760003560e01c806370a082311161008c57806395d89b411161006657806395d89b4114610202578063a9059cbb14610220578063dd62ed3e14610250578063f2fde38b14610280576100cf565b806370a08231146101aa578063715018a6146101da5780638da5cb5b146101e4576100cf565b806306fdde03146100d4578063095ea7b3146100f257806318160ddd1461012257806323b872dd14610140578063313ce5671461017057806340c10f191461018e575b600080fd5b6100dc61029c565b6040516100e99190610def565b60405180910390f35b61010c60048036038101906101079190610eaa565b61032e565b6040516101199190610f05565b60405180910390f35b61012a610351565b6040516101379190610f2f565b60405180910390f35b61015a60048036038101906101559190610f4a565b61035b565b6040516101679190610f05565b60405180910390f35b61017861038a565b6040516101859190610fb9565b60405180910390f35b6101a860048036038101906101a39190610eaa565b610393565b005b6101c460048036038101906101bf9190610fd4565b6103a9565b6040516101d19190610f2f565b60405180910390f35b6101e26103f1565b005b6101ec610405565b6040516101f99190611010565b60405180910390f35b61020a61042f565b6040516102179190610def565b60405180910390f35b61023a60048036038101906102359190610eaa565b6104c1565b6040516102479190610f05565b60405180910390f35b61026a6004803603810190610265919061102b565b6104e4565b6040516102779190610f2f565b60405180910390f35b61029a60048036038101906102959190610fd4565b61056b565b005b6060600380546102ab9061109a565b80601f01602080910402602001604051908101604052809291908181526020018280546102d79061109a565b80156103245780601f106102f957610100808354040283529160200191610324565b820191906000526020600020905b81548152906001019060200180831161030757829003601f168201915b5050505050905090565b6000806103396105f1565b90506103468185856105f9565b600191505092915050565b6000600254905090565b6000806103666105f1565b905061037385828561060b565b61037e8585856106a0565b60019150509392505050565b60006012905090565b61039b610794565b6103a5828261081b565b5050565b60008060008373ffffffffffffffffffffffffffffffffffffffff1673ffffffffffffffffffffffffffffffffffffffff168152602001908152602001600020549050919050565b6103f9610794565b610403600061089d565b565b6000600560009054906101000a900473ffffffffffffffffffffffffffffffffffffffff16905090565b60606004805461043e9061109a565b80601f016020809104026020016040519081016040528092919081815260200182805461046a9061109a565b80156104b75780601f1061048c576101008083540402835291602001916104b7565b820191906000526020600020905b81548152906001019060200180831161049a57829003601f168201915b5050505050905090565b6000806104cc6105f1565b90506104d98185856106a0565b600191505092915050565b6000600160008473ffffffffffffffffffffffffffffffffffffffff1673ffffffffffffffffffffffffffffffffffffffff16815260200190815260200160002060008373ffffffffffffffffffffffffffffffffffffffff1673ffffffffffffffffffffffffffffffffffffffff16815260200190815260200160002054905092915050565b610573610794565b600073ffffffffffffffffffffffffffffffffffffffff168173ffffffffffffffffffffffffffffffffffffffff16036105e55760006040517f1e4fbdf70000000000000000000000000000000000000000000000000000000081526004016105dc9190611010565b60405180910390fd5b6105ee8161089d565b50565b600033905090565b6106068383836001610963565b505050565b600061061784846104e4565b90507fffffffffffffffffffffffffffffffffffffffffffffffffffffffffffffffff81101561069a578181101561068a578281836040517ffb8f41b2000000000000000000000000000000000000000000000000000000008152600401610681939291906110cb565b60405180910390fd5b61069984848484036000610963565b5b50505050565b600073ffffffffffffffffffffffffffffffffffffffff168373ffffffffffffffffffffffffffffffffffffffff16036107125760006040517f96c6fd1e0000000000000000000000000000000000000000000000000000000081526004016107099190611010565b60405180910390fd5b600073ffffffffffffffffffffffffffffffffffffffff168273ffffffffffffffffffffffffffffffffffffffff16036107845760006040517fec442f0500000000000000000000000000000000000000000000000000000000815260040161077b9190611010565b60405180910390fd5b61078f838383610b3a565b505050565b61079c6105f1565b73ffffffffffffffffffffffffffffffffffffffff166107ba610405565b73ffffffffffffffffffffffffffffffffffffffff1614610819576107dd6105f1565b6040517f118cdaa70000000000000000000000000000000000000000000000000000000081526004016108109190611010565b60405180910390fd5b565b600073ffffffffffffffffffffffffffffffffffffffff168273ffffffffffffffffffffffffffffffffffffffff160361088d5760006040517fec442f050000000000000000000000000000000000000000000000000000000081526004016108849190611010565b60405180910390fd5b61089960008383610b3a565b5050565b6000600560009054906101000a900473ffffffffffffffffffffffffffffffffffffffff16905081600560006101000a81548173ffffffffffffffffffffffffffffffffffffffff021916908373ffffffffffffffffffffffffffffffffffffffff1602179055508173ffffffffffffffffffffffffffffffffffffffff168173ffffffffffffffffffffffffffffffffffffffff167f8be0079c531659141344cd1fd0a4f28419497f9722a3daafe3b4186f6b6457e060405160405180910390a35050565b600073ffffffffffffffffffffffffffffffffffffffff168473ffffffffffffffffffffffffffffffffffffffff16036109d55760006040517fe602df050000000000000000000000000000000000000000000000000000000081526004016109cc9190611010565b60405180910390fd5b600073ffffffffffffffffffffffffffffffffffffffff168373ffffffffffffffffffffffffffffffffffffffff1603610a475760006040517f94280d62000000000000000000000000000000000000000000000000000000008152600401610a3e9190611010565b60405180910390fd5b81600160008673ffffffffffffffffffffffffffffffffffffffff1673ffffffffffffffffffffffffffffffffffffffff16815260200190815260200160002060008573ffffffffffffffffffffffffffffffffffffffff1673ffffffffffffffffffffffffffffffffffffffff168152602001908152602001600020819055508015610b34578273ffffffffffffffffffffffffffffffffffffffff168473ffffffffffffffffffffffffffffffffffffffff167f8c5be1e5ebec7d5bd14f71427d1e84f3dd0314c0f7b2291e5b200ac8c7c3b92584604051610b2b9190610f2f565b60405180910390a35b50505050565b600073ffffffffffffffffffffffffffffffffffffffff168373ffffffffffffffffffffffffffffffffffffffff1603610b8c578060026000828254610b809190611131565b92505081905550610c5f565b60008060008573ffffffffffffffffffffffffffffffffffffffff1673ffffffffffffffffffffffffffffffffffffffff16815260200190815260200160002054905081811015610c18578381836040517fe450d38c000000000000000000000000000000000000000000000000000000008152600401610c0f939291906110cb565b60405180910390fd5b8181036000808673ffffffffffffffffffffffffffffffffffffffff1673ffffffffffffffffffffffffffffffffffffffff16815260200190815260200160002081905550505b600073ffffffffffffffffffffffffffffffffffffffff168273ffffffffffffffffffffffffffffffffffffffff1603610ca85780600260008282540392505081905550610cf5565b806000808473ffffffffffffffffffffffffffffffffffffffff1673ffffffffffffffffffffffffffffffffffffffff168152602001908152602001600020600082825401925050819055505b8173ffffffffffffffffffffffffffffffffffffffff168373ffffffffffffffffffffffffffffffffffffffff167fddf252ad1be2c89b69c2b068fc378daa952ba7f163c4a11628f55a4df523b3ef83604051610d529190610f2f565b60405180910390a3505050565b600081519050919050565b600082825260208201905092915050565b60005b83811015610d99578082015181840152602081019050610d7e565b60008484015250505050565b6000601f19601f8301169050919050565b6000610dc182610d5f565b610dcb8185610d6a565b9350610ddb818560208601610d7b565b610de481610da5565b840191505092915050565b60006020820190508181036000830152610e098184610db6565b905092915050565b600080fd5b600073ffffffffffffffffffffffffffffffffffffffff82169050919050565b6000610e4182610e16565b9050919050565b610e5181610e36565b8114610e5c57600080fd5b50565b600081359050610e6e81610e48565b92915050565b6000819050919050565b610e8781610e74565b8114610e9257600080fd5b50565b600081359050610ea481610e7e565b92915050565b60008060408385031215610ec157610ec0610e11565b5b6000610ecf85828601610e5f565b9250506020610ee085828601610e95565b9150509250929050565b60008115159050919050565b610eff81610eea565b82525050565b6000602082019050610f1a6000830184610ef6565b92915050565b610f2981610e74565b82525050565b6000602082019050610f446000830184610f20565b92915050565b600080600060608486031215610f6357610f62610e11565b5b6000610f7186828701610e5f565b9350506020610f8286828701610e5f565b9250506040610f9386828701610e95565b9150509250925092565b600060ff82169050919050565b610fb381610f9d565b82525050565b6000602082019050610fce6000830184610faa565b92915050565b600060208284031215610fea57610fe9610e11565b5b6000610ff884828501610e5f565b91505092915050565b61100a81610e36565b82525050565b60006020820190506110256000830184611001565b92915050565b6000806040838503121561104257611041610e11565b5b600061105085828601610e5f565b925050602061106185828601610e5f565b9150509250929050565b7f4e487b7100000000000000000000000000000000000000000000000000000000600052602260045260246000fd5b600060028204905060018216806110b257607f821691505b6020821081036110c5576110c461106b565b5b50919050565b60006060820190506110e06000830186611001565b6110ed6020830185610f20565b6110fa6040830184610f20565b949350505050565b7f4e487b7100000000000000000000000000000000000000000000000000000000600052601160045260246000fd5b600061113c82610e74565b915061114783610e74565b925082820190508082111561115f5761115e611102565b5b9291505056fea2646970667358221220f5208fab860011c97db4a88c1c856f8d6c9c873d16ffcfaa768e3dd04a6799e664736f6c63430008140033",
  "linkReferences": {},
  "deployedLinkReferences": {}
}