{
  "_format": "hh-sol-artifact-1",
  "contractName": "SimpleMajorityStrategy",
  "sourceName": "contracts/SimpleMajorityStrategy.sol",
  "abi": [
    {
      "inputs": [
        {
          "internalType": "uint256",
          "name": "forVotes",
          "type": "uint256"
        },
        {
          "internalType": "uint256",
          "name": "againstVotes",
          "type": "uint256"
        },
        {
          "internalType": "uint256",
          "name": "",
          "type": "uint256"
        }
      ],
      "name": "isAccepted",
      "outputs": [
        {
          "internalType": "bool",
          "name": "",
          "type": "bool"
        }
      ],
      "stateMutability": "pure",
      "type": "function"
    }
  ],
  "bytecode": "0x608060405234801561001057600080fd5b50610168806100206000396000f3fe608060405234801561001057600080fd5b506004361061002b5760003560e01c8063d95baddf14610030575b600080fd5b61004a600480360381019061004591906100a9565b610060565b6040516100579190610117565b60405180910390f35b600082841190509392505050565b600080fd5b6000819050919050565b61008681610073565b811461009157600080fd5b50565b6000813590506100a38161007d565b92915050565b6000806000606084860312156100c2576100c161006e565b5b60006100d086828701610094565b93505060206100e186828701610094565b92505060406100f286828701610094565b9150509250925092565b60008115159050919050565b610111816100fc565b82525050565b600060208201905061012c6000830184610108565b9291505056fea264697066735822122029c1b2b0ebc79ecb740f89ade6250826b1767217a6a80d24ff80702fba6313d864736f6c63430008140033",
  "linkReferences": {},
  "deployedLinkReferences": {}
}