{
  "_format": "hh-sol-artifact-1",
  "contractName": "FullQuorumMajorityStrategy",
  "sourceName": "contracts/FullQuorumMajorityStrategy.sol",
  "abi": [
    {
      "inputs": [
        {
          "internalType": "uint256",
          "name": "forVotes",
          "type": "uint256"
        },
        {
          "internalType": "uint256",
          "name": "",
          "type": "uint256"
        },
        {
          "internalType": "uint256",
          "name": "totalVotingPower",
          "type": "uint256"
        }
      ],
      "name": "isAccepted",
      "outputs": [
        {
          "internalType": "bool",
          "name": "",
          "type": "bool"
        }
      ],
      "stateMutability": "pure",
      "type": "function"
    }
  ],
  "bytecode": "0x608060405234801561001057600080fd5b506101e5806100206000396000f3fe608060405234801561001057600080fd5b506004361061002b5760003560e01c8063d95baddf14610030575b600080fd5b61004a600480360381019061004591906100b5565b610060565b6040516100579190610123565b60405180910390f35b600081600285610070919061016d565b1190509392505050565b600080fd5b6000819050919050565b6100928161007f565b811461009d57600080fd5b50565b6000813590506100af81610089565b92915050565b6000806000606084860312156100ce576100cd61007a565b5b60006100dc868287016100a0565b93505060206100ed868287016100a0565b92505060406100fe868287016100a0565b9150509250925092565b60008115159050919050565b61011d81610108565b82525050565b60006020820190506101386000830184610114565b92915050565b7f4e487b7100000000000000000000000000000000000000000000000000000000600052601160045260246000fd5b60006101788261007f565b91506101838361007f565b92508282026101918161007f565b915082820484148315176101a8576101a761013e565b5b509291505056fea2646970667358221220894ad339b2ab6deb593b72b1777fd82a957009e1d26202914f2bfc54a27db55764736f6c63430008140033",
  "linkReferences": {},
  "deployedLinkReferences": {}
}